:020000040000FA
:0600000064EF5CF0120049
:020006001200E6
:0600080056EF4AF0120061
:02000E000004EC
:04001000A300000148
:0400140000000000E8
:0600180019EF4BF012008D
:02001E000800D8
:100020006BB900005F0200000100000067B900002A
:100030005502000004000000F5B400005E0200005C
:100040000100000065B900005B0200000200000032
:100050002AB90000000200003B00000028B900009F
:10006000590200000200000020B90000300F00001B
:10007000080000001400000051020000040000000D
:10008000D9CFE6FFE1CFD9FFFE0EDB500201595D6B
:1000900040E0FE0E595D1BE01C0EE66EE66AD70ED0
:1000A000E66E010EE66E59511C0DF3CF14F0F4CF3D
:1000B00015F05A0E1426010E152214C0E6FF15C0C5
:1000C000E6FF0EEC58F0166E060EE15E1650FE0EC0
:1000D000DBCF59F2DB50FE081CE01C0EE66EE66A30
:1000E000FE0EDB501C0DF3CF14F0F4CF15F05A0EBA
:1000F0001426010E152214C0E6FF15C0E6FFD70E28
:10010000E66E010EE66E0EEC58F0166E060EE15E1F
:100110001650E552E7CFD9FF1200020159515A5D3E
:1001200001E11200FE0E5A5D35E0270EE66EE66A2A
:10013000010EE66EB00EE66E010EE66E5A511C0D13
:10014000F3CFE9FFF4CFEAFF5A0EE926010EEA22C7
:100150001B0EE926000EEA22EF50E66E5A511C0DE6
:10016000F3CFE9FFF4CFEAFF5A0EE926010EEA22A7
:10017000EECF14F0EFCF15F0270E145E000E155AD7
:1001800014C0E6FF15C0E6FF8DEC29F0166E080ED0
:10019000E15E165059C25AF2270EE66EE66AF2C1C7
:1001A000E6FFD7C114F0D8C115F0145E000E155A41
:1001B00014C0E6FF15C0E6FF010EE66EB00EE66E57
:1001C000010EE66E8DEC29F0166E080EE15E1650FB
:1001D0001200D9CFE6FFE1CFD9FF0B0EE126E60EE4
:1001E000F36E090EF3CFDBFF1C0EF36E0A0EF3CF96
:1001F000DBFF0101AE51AF110FE19EEC37F006C0FD
:10020000AEF107C0AFF1FF0E0101AE17070EAF1739
:10021000000EAE27040EAF233C0EE66EE66AE66AD9
:10022000C00EE66E000EE66E5CEC58F0146E050E25
:10023000E15E1450010EDB6ADF6ADF50146E156A4E
:10024000030E145C000E155801E3BED0DFCFE6FFAD
:1002500017DFE552DF50060DF3CFF6FFF4CFF7FFBF
:100260000E0EF626B90EF722F62A000EF722080027
:10027000080EF5CFDBFFDF50060DF3CFF6FFF4CF0E
:10028000F7FF0E0EF626B90EF722020EF626000E26
:10029000F7220900020EF5CFDBFF0A00030EF5CFAF
:1002A000DBFFDF50060DF3CFF6FFF4CFF7FF0E0EA6
:1002B000F626B90EF722040EF626000EF7220900E4
:1002C000040EF5CFDBFF0A00050EF5CFDBFF080EAD
:1002D000DB5042E1090EDBCF08F00A0EDBCF09F05C
:1002E000060E08C0DBFF070E09C0DBFF020EDBCFE6
:1002F00016F0030EDBCF17F0270E1626000E17227E
:10030000010E1626000E1722040EDB501624146E62
:10031000050EDB501720156E010E1426000E152257
:10032000D950090FE96EDACFEAFF1450EE261550C6
:10033000ED22090EDBCF14F00A0EDBCF15F0166AA2
:10034000176AD880FC0E14541F0E1554000E165454
:10035000000E175402E2EDD7FFD7080EDBCFF2F103
:10036000060EDBCFD7F1070EDBCFD8F1270E010148
:10037000D727000ED823020EDB50D725D96F030EE6
:10038000DB50D821DA6F010ED927000EDA23040ED4
:10039000DB50D925DB6F050EDB50DA21DC6F0D0E4B
:1003A000ED6FEE97BADEDF50060DF3CFF6FFF4CF18
:1003B000F7FF0E0EF626B90EF7220800F5CFD6F19C
:1003C000B8EC1DF0DF2A39D70B0EE15C02E2E16ADE
:1003D000E552E16EE552E7CFD9FF1200D9CFE6FF33
:1003E000E1CFD9FFE652DF6ADF50146E156A030EC3
:1003F000145C000E155801E3D0D0DFCFE6FF40DEDD
:10040000E5520D0E0101ED5D01E0C5D086DEF70E6F
:10041000DB500101D65D01E0BED0180ED36F020E95
:10042000D46FFA0EDB5010E1F80EDBCFC0F1F90EFD
:10043000DBCFC1F1EE87040EED6FF80EDBCFF0F1EC
:10044000F90EDBCFF1F1A5D0000EAE5D040EAF5971
:1004500006E3880ED880AE55130EAF5503E2AE6B9F
:10046000040EAF6FAEC1C0F1AFC1C1F1AE2B000E33
:10047000AF23F80EDBCFBEF1F90EDBCFBFF1D9EC25
:1004800058F006C0E5F107C0E6F108C0E7F109C081
:10049000E8F10101EE89FA0EDB50040A34E0070AA4
:1004A00001E077D0FB0EDBCF18F0FC0EDBCF19F0AC
:1004B000FD0EDB501824166EFE0EDB501920176E51
:1004C000F80EDB501624146EF90EDB501720156E53
:1004D0001450C019F06F1550C119F16FFB0EDBCF2E
:1004E000C6F1FC0EDBCFC7F1FD0EDBCFC8F1FE0E6F
:1004F000DBCFC9F1D56B0F0EB06FB16BB26BB36BC5
:10050000020EED6F46D0FB0EDBCFE9FFFC0EDBCF1A
:10051000EAFF020EE926000EEA22EECF18F0EFCF36
:1005200019F0FB0EDBCFE9FFFC0EDBCFEAFF185022
:10053000EE24166E1950EE20176EF80EDB501624BE
:10054000146EF90EDB501720156E1450C019F06FA1
:100550001550C119F16F0A0EE66EE66AFB0EDBCF8D
:10056000E6FFFC0EDBCFE6FFC60EE66E010EE66E82
:100570000EEC58F0146E060EE15E14500101050EEB
:10058000ED6F010EE66E020EE66EDDEC15F0E55243
:10059000E552DF5003D0DF2A27D7FE0EE552E552A1
:1005A000E7CFD9FF1200D9CFE6FFE1CFD9FFFE0E8A
:1005B000DBCFE6FF65DDE5520101EFA903D0EF993E
:1005C000010E01D0000EE552E7CFD9FF1200D9CFBE
:1005D000E6FFE1CFD9FFFE0EDBCFE6FF51DDE552AE
:1005E000070E0101ED5D02E0000E01D0010EE552A3
:1005F000E7CFD9FF1200D9CFE6FFE1CFD9FFFE0E3A
:10060000DBCFE6FF3DDDE552E1C1E3F1E2C1E4F11C
:100610000101ED51080A40E0010A3EE0050A3CE014
:10062000020A37E0050A21E00D0A0BE0010A09E0A1
:10063000070A39E0020A37E0010A35E0060A2CE130
:1006400032D0010EE66E110EE66EDDEC15F0E552CD
:10065000E5520101C251C31106E0BC51DD19F1E1BF
:10066000BD51DE19EEE1080E15D0010EE66E110E39
:10067000E66EDDEC15F0E552E5520101C251C31101
:1006800006E0BC51DD19F1E1BD51DE19EEE10C0EC1
:1006900001D00D0EED6F09D0E66A140EE66EDDECAA
:1006A00015F0E552E552B8EC1DF0E552E7CFD9FF61
:1006B0001200D9CFE6FFE1CFD9FFFE0EDBCFE6FF78
:1006C000DFDCE5520101EE97FE0EDBCFE6FF93DFA4
:1006D000E552E552E7CFD9FF1200D9CFE6FFE1CFCF
:1006E000D9FFFE0EDBCFE6FFCBDCE55216DD0A0EAE
:1006F000E66EE66AC60EE66E010EE66EF30EE66E76
:10070000010EE66E0EEC58F0146E060EE15E14500B
:10071000BEC1FDF1BFC1FEF1F30E146E010E156EE8
:1007200014C0F3FFF46EE552E7CFD9FF1200D9CF22
:10073000E6FFE1CFD9FFFE0EDBCFE6FFA1DCE552FD
:10074000ECDC0101BC51DD1902E1BD51DE1908E00C
:10075000010EE66E100EE66EDDEC15F0E552E55288
:10076000E552E7CFD9FF1200D9CFE6FFE1CFD9FF9D
:10077000E652FE0EDBCFE6FF83DCE552EDC1DFFF84
:10078000070EDF5C06E00B0EDF5C03E0F36AF46A41
:100790002CD00101DF51DD5DE051DE5919E3D75165
:1007A000D95D166EDA51D855176E1606000E175A17
:1007B000DF51DD5D186EDE51E055196E1850165C84
:1007C000146E19501758156E14C0F3FFF46E0DD047
:1007D000DD51DF5D146EE051DE55156E1406000E1E
:1007E000155A14C0F3FF15C0F4FFE552E552E7CFE8
:1007F000D9FF1200D9CFE6FFE1CFD9FF020EE126E3
:10080000FE0EDBCFE6FF3CDCE552FE0EDBCFE6FF63
:10081000ABDFE552F3CFDEFFF4CFDDFFD9CFE9FF49
:10082000DACFEAFFEE50ED1002E1000E73D0D9CF1F
:10083000E9FFDACFEAFF010EEE1807E1ED5005E11E
:10084000FE0EDBCFE6FF73DFE5520101EF51010B36
:1008500019E1DECF14F0DDCF15F0D751D95D166E5A
:10086000DA51D855176ED890173216321450165CDC
:100870001550175807E3FE0EDBCFE6FF58DFE552B1
:100880000101EF81010EE66EE66AE66ED950FD0FBA
:10089000E66EFF0EDA20E66EF2C1E6FFDDC1E6FF8E
:1008A000DEC1E6FF8DEC29F0146E080EE15E1450F7
:1008B0000101DD2B000EDE23D951DD5DDA51DE5959
:1008C00004E3D7C1DDF1D8C1DEF1D9CFE9FFDACF3A
:1008D000EAFF010EEE1808E1ED5006E1FE0EDBCF57
:1008E000E6FF25DFE55215D0EEBB13D0EE8BE3EC2F
:1008F00058F006C014F007C015F0166A176A020E09
:100900001426000E15221622172214C0E9F115C074
:10091000EAF1010E146E020EE15C02E2E16AE552B8
:10092000E16E1450E552E7CFD9FF1200D9CFE6FFB0
:10093000E1CFD9FF060EE126040EDB6A050EDB6A65
:10094000FE0EDBCFE6FF40EC00F0E552FE0EDBCF03
:10095000E6FF0ADFE552020EF3CFDBFF030EF4CF12
:10096000DBFFD950020FE96EDACFEAFFEE50ED104F
:1009700008E1FE0EDBCFE6FFDADEE552F36AF46A49
:10098000ECD0020EDBCFDEFFDBCFDDFFDBCF14F0E0
:10099000030EDBCF15F0FA0EDBCF16F0FB0EDBCF2C
:1009A00017F01450165C1550175805E2FA0EDBCFFD
:1009B000DEFFDBCFDDFF0101EF51010B1BE1020E7A
:1009C000DBCF14F0030EDBCF15F0D751D95D166ED7
:1009D000DA51D855176ED890173216321450165C6B
:1009E0001550175807E3FE0EDBCFE6FFA0DEE552F9
:1009F0000101EF81DE50DD250001146EDD500101A3
:100A0000DE210001156E0101D951145CDA5115582F
:100A100048E3DD51D95D146EDA51DE55156E040ED2
:100A200014C0DBFF050E15C0DBFF040EDBCFE6FFB5
:100A3000050EDBCFE6FF010EE66EFC0EDBCFE6FF18
:100A4000FD0EDBCFE6FFF2C1E6FFDDC1E6FFDEC152
:100A5000E6FF8DEC29F0146E080EE15E1450040ED2
:100A6000DBCF14F0050EDBCF15F0D950FC0FE96E8B
:100A7000FF0EDA20EA6E1450EE261550ED22040E19
:100A8000DBCF14F0050EDBCF15F0D9CFE9FFDACFBD
:100A9000EAFF1450EE5E1550ED5AD7C1DDF1D8C112
:100AA000DEF1DECFE6FFDDCFE6FF010EE66EFC0EE7
:100AB000DBCFE6FFFD0EDBCFE6FFF2C1E6FFDDC1D7
:100AC000E6FFDEC1E6FF8DEC29F0146E080EE15E54
:100AD0001450D9CFE9FFDACFEAFFEE500101DD274C
:100AE000EE50DE23020EDBCF14F0030EDBCF15F049
:100AF000FA0EDBCF16F0FB0EDBCF17F01450165CAE
:100B00001550175806E3FE0EDBCFE6FF10DEE55268
:100B100015D0EEBB13D0EE8BE3EC58F006C014F00A
:100B200007C015F0166A176A020E1426000E152269
:100B30001622172214C0E9F115C0EAF1040EDBCF2A
:100B400016F0050EDBCF17F0DE501624146EDD50C4
:100B50001720156E14C0F3FFF46E060EE15C02E27E
:100B6000E16AE552E16EE552E7CFD9FF1200D9CF35
:100B7000E6FFE1CFD9FF060EE126040EDB6A050E83
:100B8000DB6AFE0EDBCFE6FF40EC00F0E552FE0E26
:100B9000DBCFE6FFE9DDE552020EF3CFDBFF030E0C
:100BA000F4CFDBFFD950020FE96EDACFEAFFEE5047
:100BB000ED1008E1FE0EDBCFE6FFB9DDE552F36A8A
:100BC000F46AE8D00101EF51010B1BE1020EDBCF0B
:100BD00014F0030EDBCF15F0D751D95D166EDA5144
:100BE000D855176ED890173216321450165C15501F
:100BF000175807E3FE0EDBCFE6FF99DDE552010152
:100C0000EF81020EDBCFDEFFDBCFDDFFDBCF14F0A9
:100C1000030EDBCF15F0FA0EDBCF16F0FB0EDBCFA9
:100C200017F01450165C1550175805E2FA0EDBCF7A
:100C3000DEFFDBCFDDFFDE50DD250001146EDD5071
:100C40000101DE210001156E0101D951145CDA5158
:100C5000155846E3DD51D95D146EDA51DE55156E37
:100C6000040E14C0DBFF050E15C0DBFF040EDBCF46
:100C7000E6FF050EDBCFE6FFFC0EDBCFE6FFFD0E49
:100C8000DBCFE6FFF2C1E6FFDDC1E6FFDEC1E6FF36
:100C900029EC2AF0146E070EE15E1450040EDBCF2F
:100CA00014F0050EDBCF15F0D950FC0FE96EFF0EE6
:100CB000DA20EA6E1450EE261550ED22040EDBCF3A
:100CC00014F0050EDBCF15F0D9CFE9FFDACFEAFF3C
:100CD0001450EE5E1550ED5AD7C1DDF1D8C1DEF1EA
:100CE000DECFE6FFDDCFE6FFFC0EDBCFE6FFFD0E3D
:100CF000DBCFE6FFF2C1E6FFDDC1E6FFDEC1E6FFC6
:100D000029EC2AF0146E070EE15E1450D9CFE9FFEA
:100D1000DACFEAFFEE500101DD27EE50DE23020EAE
:100D2000DBCF14F0030EDBCF15F0FA0EDBCF16F09D
:100D3000FB0EDBCF17F01450165C1550175806E366
:100D4000FE0EDBCFE6FFF3DCE55215D0EEBB13D091
:100D5000EE8BE3EC58F006C014F007C015F0166AED
:100D6000176A020E1426000E15221622172214C02E
:100D7000E9F115C0EAF1040EDBCF16F0050EDBCF6A
:100D800017F0DE501624146EDD501720156E14C0B7
:100D9000F3FFF46E060EE15C02E2E16AE552E16EF9
:100DA000E552E7CFD9FF1200D9CFE6FFE1CFD9FF57
:100DB000FC0EDBCF16F0FD0EDBCF17F016C0E6FF02
:100DC00017C0E6FFFC0EDBCFE6FFFD0EDBCFE6FF34
:100DD00076EC58F0E552E552F3CF18F0F4CF19F065
:100DE000F3CFE6FFF4CFE6FFFC0EDBCFE6FFFD0E10
:100DF000DBCFE6FFFE0EDBCFE6FF98DD1A6E050EB9
:100E0000E15E1A50E552E7CF17F0E552E7CF16F052
:100E10001650F324146E1750F420156E14C0F3FF0F
:100E2000F46EE552E7CFD9FF1200D9CFE6FFE1CF4C
:100E3000D9FFFC0EDBCF16F0FD0EDBCF17F016C08E
:100E4000E6FF17C0E6FFFC0EDBCF1AF0FD0EDBCF8E
:100E50001BF01C6A1AC0E6FF1BC0E6FF1CC0E6FFC1
:100E600084EC58F0E552E552E55207C018F008C08E
:100E700019F007C0E6FF08C0E6FFFC0EDBCFE6FF77
:100E8000FD0EDBCFE6FFFE0EDBCFE6FF70DE1D6E54
:100E9000050EE15E1D50E552E7CF17F0E552E7CFB2
:100EA00016F01650F324146E1750F420156E14C06B
:100EB000F3FFF46EE552E7CFD9FF1200D9CFE6FF7A
:100EC000E1CFD9FF040EE126FE0EDBCFE6FF40ECBA
:100ED00000F0E5520101D751D95D146EDA51D855B1
:100EE000156E1406000E155A020E14C0DBFF030E19
:100EF00015C0DBFFFE0EDBCFE6FF36DCE552F3CF9D
:100F0000DEFFF4CFDDFF020EDBCF16F0030EDBCFEA
:100F100017F0DE50165C146EDD501758156E14C0B5
:100F2000F3FFF46E040EE15C02E2E16AE552E16E69
:100F3000E552E7CFD9FF1200D9CFE6FFE1CFD9FFC5
:100F4000FE0EDBCFE6FF1ED8E552F3CF14F0F4CF50
:100F500015F0F350F41012E0FE0EDBCFE6FF40EC8C
:100F600000F0E552E1C1E3F1E2C1E4F1010EE66E09
:100F7000100EE66EDDEC15F0E552E552E552E7CFD6
:100F8000D9FF1200D9CFE6FFE1CFD9FFFE0EDBCFAC
:100F9000E6FF40EC00F0E5520101E351E15DE45170
:100FA000E25906E3E351E15D146EE251E45515D0D8
:100FB000E351DB5D166EDC51E455176E010E16260B
:100FC000000E1722D951E15D186EE251DA55196E03
:100FD00016501824146E17501920156E14C0F3FF04
:100FE000F46EE552E7CFD9FF1200D9CFE6FFE1CF8B
:100FF000D9FF020EE126FE0EDBCFE6FFC3DFE5528E
:10100000F3CFDEFFF4CFDDFFD9CFE9FFDACFEAFF80
:10101000EE50ED1002E1000E53D0FE0EDBCFE6FFE6
:1010200040EC00F0E552D950FC0FE96EFF0EDA20DB
:10103000EA6EEE50ED1016E0010EE66EE66AF2C1C1
:10104000E6FFE3C1E6FFE4C1E6FFE66EFC0EDBCFA0
:10105000E6FFFD0EDBCFE6FF8DEC29F0146E080EE7
:10106000E15E14500101E32B000EE423E351DB5D4C
:10107000E451DC5904E2D9C1E3F1DAC1E4F1D9CF9A
:10108000E9FFDACFEAFF010EEE1804E1ED5002E1CC
:10109000EF8515D0EEBB13D0EE8BE3EC58F006C015
:1010A00014F007C015F0166A176A0C0E1426000E0D
:1010B00015221622172214C0E9F115C0EAF1010E1B
:1010C000146E020EE15C02E2E16AE552E16E145038
:1010D000E552E7CFD9FF1200D9CFE6FFE1CFD9FF24
:1010E000040EE126020EDB6A030EDB6AFE0EDBCF86
:1010F000E6FF48DFE552F3CFDEFFF4CFDDFFD9CFC7
:10110000E9FFDACFEAFFEE50ED1003E1F36AF46A8B
:10111000FED0FE0EDBCFE6FF40EC00F0E552FA0E0B
:10112000DBCF14F0FB0EDBCF15F0DECF16F0DDCFFA
:1011300017F01450165C155017580AE2D9CFE9FF82
:10114000DACFEAFFFA0EEECFDBFFFB0EEDCFDBFFCF
:10115000FA0EDB500101E3250001146EFB0EDB509B
:101160000101E4210001156E01011450DB5D1550F1
:10117000DC5957E2E351DB5D146EDC51E455156E2A
:10118000010E1426000E1522020E14C0DBFF030E02
:1011900015C0DBFFD950FC0FE96EFF0EDA20EA6EB6
:1011A000EE50ED102AE0020EDBCFE6FF030EDBCFA0
:1011B000E6FFF2C1E6FFE3C1E6FFE4C1E6FF010E90
:1011C000E66EFC0EDBCFE6FFFD0EDBCFE6FF8DEC1F
:1011D00029F0146E080EE15E1450020EDBCF14F0FD
:1011E000030EDBCF15F0D950FC0FE96EFF0EDA20AD
:1011F000EA6E1450EE261550ED22020EDBCF14F0ED
:10120000030EDBCF15F0D950FA0FE96EFF0EDA208E
:10121000EA6E1450EE5E1550ED5AD9C1E3F1DAC111
:10122000E4F1D950FC0FE96EFF0EDA20EA6EEE50C1
:10123000ED101AE0FA0EDBCFE6FFFB0EDBCFE6FF88
:10124000F2C1E6FFE3C1E6FFE4C1E6FF010EE66E90
:10125000FC0EDBCFE6FFFD0EDBCFE6FF8DEC29F0C9
:10126000146E080EE15E1450FA0EDBCF08F0FB0E90
:10127000DBCF09F008500101E3270950E423020EF7
:10128000DBCF14F0030EDBCF15F0D950FA0FE96E67
:10129000FF0EDA20EA6E1450EE261550ED22DECF56
:1012A00016F0DDCF17F0FA0EDB50165C146EFB0E55
:1012B000DB501758156EFA0EDBCF18F0FB0EDBCFA4
:1012C00019F01450185C1550195802E3EF8515D029
:1012D000EEBB13D0EE8BE3EC58F006C014F007C061
:1012E00015F0166A176A0C0E1426000E1522162227
:1012F000172214C0E9F115C0EAF1FA0EDBCF14F0A1
:10130000FB0EDBCF15F014C0F3FF15C0F4FF040E85
:10131000E15C02E2E16AE552E16EE552E7CFD9FF16
:101320001200D9CFE6FFE1CFD9FF040EE126FE0E71
:10133000DBCFE6FF40EC00F0E5520101D951DB5D67
:10134000146EDC51DA55156E020E14C0DBFF030E6D
:1013500015C0DBFFFE0EDBCFE6FF14DEE552F3CF58
:10136000DEFFF4CFDDFF020EDBCF16F0030EDBCF86
:1013700017F0DE50165C146EDD501758156E14C051
:10138000F3FFF46E040EE15C02E2E16AE552E16E05
:10139000E552E7CFD9FF1200D9CFE6FFE1CFD9FF61
:1013A000060EE126D950FA0FE96EFF0EDA20EA6E3A
:1013B000EE50ED1003E1F36AF46AF4D0FE0EDBCFD9
:1013C000E6FF40EC00F0E552FE0EDBCFE6FFDADD93
:1013D000E552020EF3CFDBFF030EF4CFDBFFFA0E74
:1013E000DBCF16F0FB0EDBCF17F0F80EDB50162428
:1013F000146EF90EDB501720156E020EDBCF18F0BD
:10140000030EDBCF19F01450185C1550195814E274
:10141000020EDBCF16F0030EDBCF17F0F80EDB5019
:10142000165C146EF90EDB501758156EFA0E14C0C8
:10143000DBFFFB0E15C0DBFFF80EDB500101E325DF
:10144000146EF90EDB50E42114C0DEFFDD6EDECF3A
:1014500014F0DDCF15F01450DB5D1550DC5912E2AD
:10146000D951DB5D146EDC51DA55156E010E142670
:10147000000E1522D9CFE9FFDACFEAFF1450EE5E55
:101480001550ED5ADE50DB5D146EDD50DC59156EE3
:10149000010E1426000E1522040E14C0DBFF050EEB
:1014A00015C0DBFFFA0EDBCF14F0FB0EDBCF15F01F
:1014B000040EDBCF16F0050EDBCF17F01450165CD0
:1014C000155017581BE3FA0EDBCFE6FFFB0EDBCF00
:1014D000E6FFF2C1E6FFDECFE6FFDDCFE6FF010E5D
:1014E000E66EFC0EDBCFE6FFFD0EDBCFE6FF8DECFC
:1014F00029F0146E080EE15E14504AD0040EDBCFC2
:10150000E6FF050EDBCFE6FFF2C1E6FFDECFE6FF2A
:10151000DDCFE6FF010EE66EFC0EDBCFE6FFFD0E33
:10152000DBCFE6FF8DEC29F0146E080EE15E14505F
:10153000FA0EDBCF16F0FB0EDBCF17F0040EDB50FC
:10154000165C146E050EDB501758156E14C0E6FFBE
:10155000E66EF2C1E6FFD9C1E6FFDAC1E6FF010E91
:10156000E66E040EDBCF1AF0050EDBCF1BF0FC0E8F
:10157000DB501A24186EFD0EDB501B20196E18C0AC
:10158000E6FFE66E8DEC29F01C6E080EE15E1C5045
:10159000FA0EDBCF14F0FB0EDBCF15F014C0F3FF17
:1015A00015C0F4FF060EE15C02E2E16AE552E16E6D
:1015B000E552E7CFD9FF1200D9CFE6FFE1CFD9FF3F
:1015C000E652FC0EDBCFE6FFFD0EDBCFE6FF010EA1
:1015D000E66EE66AD9CFE6FFDACFE6FFFE0EDBCF96
:1015E000E6FFDADE146E070EE15E1450DF50E552BE
:1015F000E552E7CFD9FF1200D9CFE6FFE1CFD9FFFF
:10160000300EE126D950FA0FE96EFF0EDA20EA6EAD
:10161000EE50ED1003E1F36AF46ABED2FE0EDBCFAA
:10162000E6FF40EC00F0E552FE0EDBCFE6FFAADC61
:10163000E552F80EDB50F35C146EF90EDB50F458F3
:10164000156E020E14C0DBFF030E15C0DBFF020E89
:10165000DBCF14F0030EDBCF15F0FA0EDBCF16F064
:10166000FB0EDBCF17F01650145C1750155801E233
:1016700082D2D950F60FE96EFF0EDA20EA6EEE50F4
:10168000ED101DE0020EDBCF14F0030EDBCF15F0E2
:10169000F60EDBCF16F0F70EDBCF17F01450165C0A
:1016A000155017580CE2F60EDBCF08F0F70EDBCF23
:1016B00009F0020E08C0DBFF030E09C0DBFFF80EC5
:1016C000DB500101E325146EF90EDB50E421156EA9
:1016D000060E14C0DBFF070E15C0DBFF060EDBCFC6
:1016E00014F0070EDBCF15F01450DB5D1550DC59FC
:1016F00013E2D951DB5D146EDC51DA55156E010E23
:101700001426000E1522D950060FE96EDACFEAFF33
:101710001450EE5E1550ED5A060EDBCFDEFFDBCF28
:10172000DDFFDB50DB5D146E070EDB50DC59000182
:10173000156E010E1426000E1522040E14C0DBFFD8
:10174000050E15C0DBFFF80EDBCF08F0F90EDBCF7E
:1017500009F0060E08C0DBFF070E09C0DBFFFA0E1A
:10176000DBCF08F0FB0EDBCF09F0080E08C0DBFF73
:10177000090E09C0DBFFFC0EDBCF08F0FD0EDBCF4E
:1017800009F00A0E08C0DBFF0B0E09C0DBFFFC0EE0
:10179000DBCFE9FFDB2AFD0EDBCFEAFF01E3DB2A2B
:1017A0000D0EEFCFDBFF0F0EDB6AF50EDB5016E000
:1017B000610EF36E0D0EDBCFF4FFF350F45C0EE31D
:1017C0000D0EDB507A080AE3E00E146E0D0EDBCF2F
:1017D000E7FF1450E7260D0EE7CFDBFF200EF36E78
:1017E0000E0EF3CFDBFFDBCF14F0040EDBCF15F0D2
:1017F000050EDBCF16F01450155C000E165806E2ED
:10180000040EDB50E76E0E0EE7CFDBFF0E0EDBCFD4
:1018100014F0020EDBCF15F0030EDBCF16F01450E0
:10182000155C000E165806E2020EDB50E76E0E0E37
:10183000E7CFDBFF0E0EDBCFE6FFE66AF2C1E6FF85
:10184000DECFE6FFDDCFE6FF010EE66ED950100FCA
:10185000E66E000EDA20E66E8DEC29F0146E080EAE
:10186000E15E14500E0EDB50DE26000EDD220E0E61
:10187000DB50146E156AD950040FE96EDACFEAFF17
:101880001450EE5E1550ED5AD950040FE96EDACFC0
:10189000EAFFEE50ED1008E1D9C1DEFFDAC1DDFF4D
:1018A000040EDB68050EDB68F50EDB5001E1C0D0ED
:1018B0000C0EDB6A0E0EDB50F36E0C0EDBCFF4FF6A
:1018C000F350F45C01E339D1D950100F156E0C0EB2
:1018D000DB500F011524E96E000EDA20EA6EEFCF1F
:1018E00014F0610E145C1DE3D950100F176EDACF9F
:1018F00018F00C0EDB501724E96E000EDA20EA6EA9
:10190000EF507A080EE3E00E166ED950100F146EE9
:101910000C0EDB501424E96E000EDA20EA6E16502D
:10192000EF26D950100F146E0C0EDB501424E96E04
:10193000000EDA20EA6EEF50F36E0D0EDB50F35C12
:1019400035E1FA0EDB06DBCF14F0FB0E01E2DB061D
:10195000DBCF15F01450151001E193D0FC0EDBCF56
:10196000E9FFDB2AFD0EDBCFEAFF01E3DB2A0D0EE8
:10197000EFCFDBFF010EF36E0F0EF3CFDBFF610E37
:10198000F36E0D0EDBCFF4FFF350F45C4EE30D0E5F
:10199000DB507A084AE3E00E146E0D0EDBCFE7FF52
:1019A0001450E7260D0EE7CFDBFF3FD0080EDBCF4C
:1019B00008F0090EDBCF09F0FA0E08C0DBFFFB0EC2
:1019C00009C0DBFF0F0EDB5030E00A0EDBCF08F062
:1019D0000B0EDBCF09F0FC0E08C0DBFFFD0E09C0CB
:1019E000DBFFFC0EDBCFE9FFDB2AFD0EDBCFEAFFDE
:1019F00001E3DB2A0D0EEFCFDBFF610EF36E0D0E60
:101A0000DBCFF4FFF350F45C0EE30D0EDB507A08ED
:101A10000AE3E00E146E0D0EDBCFE7FF1450E7264D
:101A20000D0EE7CFDBFF0F0EDB6A0C0EDB2A42D771
:101A30000C0EDB6A0E0EDB50F36E0C0EDBCFF4FFE8
:101A4000F350F45C01E379D0D950100F146E0C0EF2
:101A5000DB500F011424E96E000EDA20EA6EEF501D
:101A6000F36E0D0EDB50F35C3CE1FA0EDB06DBCFD0
:101A700014F0FB0E01E2DB06DBCF15F0145015105D
:101A80001EE1060EDBCF18F0070EDBCF19F0080EB3
:101A9000DB50185C166E090EDB501958176E0C0ED1
:101AA000DB501624146E000E1720156E010E14263E
:101AB000000E152214C0F3FF15C0F4FF6DD0FC0E0C
:101AC000DBCFE9FFDB2AFD0EDBCFEAFF01E3DB2AF8
:101AD0000D0EEFCFDBFF010EF36E0F0EF3CFDBFF2A
:101AE00029D0080EDBCF08F0090EDBCF09F0FA0E83
:101AF00008C0DBFFFB0E09C0DBFF0F0EDB501AE056
:101B00000A0EDBCF08F00B0EDBCF09F0FC0E08C08D
:101B1000DBFFFD0E09C0DBFFFC0EDBCFE9FFDB2A9C
:101B2000FD0EDBCFEAFF01E3DB2A0D0EEFCFDBFF7B
:101B30000F0EDB6A0C0EDB2A7DD70E0EDB50146E07
:101B4000156AD950020FE96EDACFEAFF1450EE5E43
:101B50001550ED5A020EDBCF14F0030EDBCF15F05B
:101B6000FA0EDBCF16F0FB0EDBCF17F01650145C2D
:101B70001750155803E2F368F4680ED00E0EDB50D0
:101B8000146E156AD950060FE96EDACFEAFF1450C9
:101B9000EE261550ED2222D6300EE15C02E2E16A1B
:101BA000E552E16EE552E7CFD9FF1200D9CFE6FF4B
:101BB000E1CFD9FF300EE126D950FA0FE96EFF0EC2
:101BC000DA20EA6EEE50ED1003E1F36AF46AC4D253
:101BD000FE0EDBCFE6FF40EC00F0E552FE0EDBCF61
:101BE000E6FFC2EC07F0E552F80EDB50F35C146E32
:101BF000F90EDB50F458156E020E14C0DBFF030E15
:101C000015C0DBFF020EDBCF14F0030EDBCF15F0A7
:101C1000FA0EDBCF16F0FB0EDBCF17F01650145C7C
:101C20001750155801E287D2D950F60FE96EFF0E12
:101C3000DA20EA6EEE50ED101DE0020EDBCF14F05C
:101C4000030EDBCF15F0F60EDBCF16F0F70EDBCF71
:101C500017F01450165C155017580CE2F60EDBCF37
:101C600008F0F70EDBCF09F0020E08C0DBFF030E11
:101C700009C0DBFFF80EDB500101E325146EF90EFD
:101C8000DB50E421156E060E14C0DBFF070E15C0F5
:101C9000DBFF060EDBCF14F0070EDBCF15F0145080
:101CA000DB5D1550DC5913E2D951DB5D146EDC515C
:101CB000DA55156E010E1426000E1522D950060FA6
:101CC000E96EDACFEAFF1450EE5E1550ED5A060EBB
:101CD000DBCFDEFFDBCFDDFFDB50DB5D146E070EFD
:101CE000DB50DC590001156E010E1426000E152282
:101CF000040E14C0DBFF050E15C0DBFFF80EDBCFB2
:101D000008F0F90EDBCF09F0060E08C0DBFF070E66
:101D100009C0DBFFFA0EDBCF08F0FB0EDBCF09F0CA
:101D2000080E08C0DBFF090E09C0DBFFFC0EDBCF8D
:101D300008F0FD0EDBCF09F00A0E08C0DBFF0B0E2A
:101D400009C0DBFFFC0EDBCFF6FFDB2AFD0EDBCF8D
:101D5000F7FF01E3DB2A08000D0EF5CFDBFF0F0EC6
:101D6000DB6AF50EDB5016E0610EF36E0D0EDBCF75
:101D7000F4FFF350F45C0EE30D0EDB507A080AE337
:101D8000E00E146E0D0EDBCFE7FF1450E7260D0EAC
:101D9000E7CFDBFF200EF36E0E0EF3CFDBFFDBCFC2
:101DA00014F0040EDBCF15F0050EDBCF16F0145047
:101DB000155C000E165806E2040EDB50E76E0E0EA0
:101DC000E7CFDBFF0E0EDBCF14F0020EDBCF15F0FA
:101DD000030EDBCF16F01450155C000E165806E209
:101DE000020EDB50E76E0E0EE7CFDBFF0E0EDBCFF1
:101DF000E6FFE66AF2C1E6FFDECFE6FFDDCFE6FFF3
:101E0000010EE66ED950100FE66E000EDA20E66E77
:101E10008DEC29F0146E080EE15E14500E0EDB50AE
:101E2000DE26000EDD220E0EDB50146E156AD95030
:101E3000040FE96EDACFEAFF1450EE5E1550ED5A4A
:101E4000D950040FE96EDACFEAFFEE50ED1008E149
:101E5000D9C1DEFFDAC1DDFF040EDB68050EDB68E9
:101E6000F50EDB5001E1C2D00C0EDB6A0E0EDB502A
:101E7000F36E0C0EDBCFF4FFF350F45C01E33DD1C5
:101E8000D950100F156E0C0EDB500F011524E96EA2
:101E9000000EDA20EA6EEFCF14F0610E145C1DE341
:101EA000D950100F176EDACF18F00C0EDB50172434
:101EB000E96E000EDA20EA6EEF507A080EE3E00ECB
:101EC000166ED950100F146E0C0EDB501424E96EF0
:101ED000000EDA20EA6E1650EF26D950100F146E5D
:101EE0000C0EDB501424E96E000EDA20EA6EEF507F
:101EF000F36E0D0EDB50F35C36E1FA0EDB06DBCF42
:101F000014F0FB0E01E2DB06DBCF15F014501510C8
:101F100001E195D0FC0EDBCFF6FFDB2AFD0EDBCF17
:101F2000F7FF01E3DB2A08000D0EF5CFDBFF010E02
:101F3000F36E0F0EF3CFDBFF610EF36E0D0EDBCFF2
:101F4000F4FFF350F45C4FE30D0EDB507A084BE3E3
:101F5000E00E146E0D0EDBCFE7FF1450E7260D0EDA
:101F6000E7CFDBFF40D0080EDBCF08F0090EDBCF58
:101F700009F0FA0E08C0DBFFFB0E09C0DBFF0F0EF5
:101F8000DB5031E00A0EDBCF08F00B0EDBCF09F09F
:101F9000FC0E08C0DBFFFD0E09C0DBFFFC0EDBCF33
:101FA000F6FFDB2AFD0EDBCFF7FF01E3DB2A08009B
:101FB0000D0EF5CFDBFF610EF36E0D0EDBCFF4FFE0
:101FC000F350F45C0EE30D0EDB507A080AE3E00EEA
:101FD000146E0D0EDBCFE7FF1450E7260D0EE7CF92
:101FE000DBFF0F0EDB6A0C0EDB2A40D70C0EDB6A20
:101FF0000E0EDB50F36E0C0EDBCFF4FFF350F45CEF
:1020000001E37BD0D950100F146E0C0EDB500F0182
:102010001424E96E000EDA20EA6EEF50F36E0D0E16
:10202000DB50F35C3DE1FA0EDB06DBCF14F0FB0E78
:1020300001E2DB06DBCF15F0145015101EE1060E91
:10204000DBCF18F0070EDBCF19F0080EDB50185C61
:10205000166E090EDB501958176E0C0EDB50162445
:10206000146E000E1720156E010E1426000E152298
:1020700014C0F3FF15C0F4FF6FD0FC0EDBCFF6FFEA
:10208000DB2AFD0EDBCFF7FF01E3DB2A08000D0E94
:10209000F5CFDBFF010EF36E0F0EF3CFDBFF2AD07F
:1020A000080EDBCF08F0090EDBCF09F0FA0E08C0EE
:1020B000DBFFFB0E09C0DBFF0F0EDB501BE00A0E3F
:1020C000DBCF08F00B0EDBCF09F0FC0E08C0DBFF06
:1020D000FD0E09C0DBFFFC0EDBCFF6FFDB2AFD0E99
:1020E000DBCFF7FF01E3DB2A08000D0EF5CFDBFFA6
:1020F0000F0EDB6A0C0EDB2A7BD70E0EDB50146E44
:10210000156AD950020FE96EDACFEAFF1450EE5E7D
:102110001550ED5A020EDBCF14F0030EDBCF15F095
:10212000FA0EDBCF16F0FB0EDBCF17F01650145C67
:102130001750155803E2F368F4680ED00E0EDB500A
:10214000146E156AD950060FE96EDACFEAFF145003
:10215000EE261550ED221ED6300EE15C02E2E16A59
:10216000E552E16EE552E7CFD9FF1200D9CFE6FF85
:10217000E1CFD9FFF80EDBCFE6FFF90EDBCFE6FFAC
:10218000FA0EDBCFE6FFFB0EDBCFE6FFFC0EDBCF6C
:10219000E6FF010EE66EE66AD950FD0FE66EFF0E11
:1021A000DA20E66EFE0EDBCFE6FFFCEC0AF0146EE2
:1021B0000A0EE15E1450E552E7CFD9FF1200D9CFE5
:1021C000E6FFE1CFD9FF060EE126DF6ADF50146E8D
:1021D000156A030E145C000E155801E320D3DFCFFF
:1021E000E6FF40EC00F0E552030EDB6A010EDB6A0D
:1021F000020EDB6A0101EF51020B03E1EF51040B08
:1022000012E033EC2CF000090EE0100EF36E030E1A
:10221000F3CFDBFF0101EF51040B01E0010EE76E8C
:10222000010EE7CFDBFF0101EEAB15D0E3EC58F078
:1022300001010650E95D146E0750EA59156EE83445
:1022400004E214500008000E155405E3100EF36E5E
:10225000030EF3CFDBFFEEAD15D0E3EC58F0010138
:102260000650EB5D146E0750EC59156EE83404E22D
:1022700014500008000E155405E3100EF36E030E03
:10228000F3CFDBFF0B0EED5D17E1E3EC58F001013E
:102290000650EB5D146E0750EC59156EE83404E2FD
:1022A00014500008000E155407E3110EF36E030ED0
:1022B000F3CFDBFF0C0EED6F040EED5D01E030D1CE
:1022C000040EDB6A050EDB6A040EDBCF14F0050E8C
:1022D000DBCF15F0030E145C000E155801E320D17E
:1022E000040EDBCFE9FF050EDBCFEAFF140EEA0296
:1022F000F3CFEAFFE902F3CFE9FFF450EA26C00E7C
:10230000E926000EEA22100EE926000EEA22EE501F
:10231000ED1001E105D1040EDBCFE9FF050EDBCFA7
:10232000EAFF140EEA02F3CFEAFFE902F3CFE9FF76
:10233000F450EA26C00EE926000EEA22100EE92625
:10234000000EEA22EECF14F0EFCF15F0F051141882
:1023500001E0DFD0F151151801E0DBD08DEC00F089
:102360000A0EE66EE66A040EDBCFE9FF050EDBCF50
:10237000EAFF140EEA02F3CFEAFFE902F3CFE9FF26
:10238000F450EA26C00EE926000EEA22E9CF14F046
:10239000EACF15F0E9CFE6FFEACFE6FFC60EE66E1C
:1023A000010EE66E0EEC58F0166E060EE15E16504B
:1023B000040EDBCFE9FF050EDBCFEAFF140EEA02C5
:1023C000F3CFEAFFE902F3CFE9FFF450EA26C00EAB
:1023D000E926000EEA220A0EE926000EEA22EECFD6
:1023E000BEF1EDCFBFF1040EDBCFE9FF050EDBCF71
:1023F000EAFF140EEA02F3CFEAFFE902F3CFE9FFA6
:10240000F450EA26C00EE926000EEA220C0EE92658
:10241000000EEA22EECFB8F1EECFB9F1EECFBAF16D
:10242000EFCFBBF10101B82BB923BA23BB23C851AD
:10243000C625166EC951C721176E1650BE25146EDB
:102440001750BF21156E1450C019F06F1550C119E7
:10245000F16F120EF36E030EF3CFDBFF060EED6F7E
:10246000040EDBCF14F0050EDBCF15F0020ED88082
:102470001456000E1556140E1502F3CF15F0140263
:10248000F3CF14F0F4501526F3CFE6FF15C0E6FFA6
:10249000010EE66EE76E040EDBCF16F0050EDBCF05
:1024A00017F0E7501626000E1722140E1702F3CF6E
:1024B00017F01602F3CF16F0F4501726C00E1626AA
:1024C000000E172216C0E6FF17C0E6FF010EE66EEB
:1024D000040EDBCF18F0050EDBCF19F0140E190235
:1024E000F3CF19F01802F3CF18F0F4501926C00EEC
:1024F0001826000E192218C0E6FF19C0E6FF8DEC61
:1025000029F01A6E080EE15E1A500001F86BF96BA3
:1025100007D0040EDB2A050E01E2D6D6DB2AD4D67C
:10252000030EDB500DE0010EDB5002E0000E01D087
:10253000010EE66E030EDBCFE6FF3FDBE552E55210
:102540000101EEB954D0070EED5D01E066D1D9EC82
:1025500058F00101E551065C146EE6510758156EFE
:10256000E7510858166EE8510958176E0001800EA1
:10257000171401E052D10101EE51070B06081AE1D0
:10258000EE51080B01E0010EE76E030EE7CFDBFF13
:10259000DFCFE6FFFBEC02F0E552DFCFE6FFFBEC1E
:1025A00002F0E552030EDB5001E037D101010E0EBF
:1025B000ED6F33D18DEC00F0020EE66E100EE66E7C
:1025C000FCDAE552E552D9EC58F006C0E5F107C057
:1025D000E6F108C0E7F109C0E8F15A0E0101E5276C
:1025E000620EE623020EE723000EE82316D1D9EC93
:1025F00058F00101E551065C146EE6510758156E5E
:10260000E7510858166EE8510958176E0001800E00
:10261000171401E002D18DEC00F00101ED510C0A1C
:1026200001E18CD0060A01E184D0030A01E192D0D5
:10263000010A01E179D00F0A6EE00C0A6CE00D0A84
:1026400061E0030A4AE0060A14E0010A01E08CD0C6
:10265000E3EC58F006C0E9F107C0EAF1C60EE66EF9
:10266000010EE66EFBEC4FF0E552E5520101030E60
:1026700032D0CA0EE66E010EE66EC60EE66E010E92
:10268000E66E68EC50F0E552E552E552E55200097D
:1026900019E1E3EC58F00101E951065C146EEA51CE
:1026A0000758156E1450B05D1550B1595DE2060E15
:1026B000D55D06E2D52BD890B037B137B237B337F6
:1026C000020E09D0020EF36E030EF3CFDBFF010EF4
:1026D000DB6A0101050EED6F47D0020EF36E030EAB
:1026E000F3CFDBFFDE52010EDD6E040ED55D3CE361
:1026F000040ED56F900EB06FD00EB16F030EB26F97
:10270000B36B32D0020ED55D02E2120E1BD0EEB7D3
:1027100021D0020E06D0050ED55D0EE3080EED6F3A
:10272000110EF36E030E1ED0050ED55D13E2110ED1
:1027300009D0050ED55D0EE2100E04D0050ED55D54
:1027400009E2110EF36E030EF3CFDBFFDE52010E32
:10275000DD6E0AD0140EF36E030EF3CFDBFF010E15
:10276000F36E020EF3CFDBFF030EDB5051E0010EE0
:10277000DB5046E0D52BD890B037B137B237B337FE
:10278000DF51BC5D146EBD51E055156E040E14C0D2
:10279000DBFF050E15C0DBFFDF51BC5DE051BD590D
:1027A0000FE2D751D95D146EDA51D855156ED95054
:1027B000040FE96EDACFEAFF1450EE261550ED2231
:1027C000040EDBCF14F0050EDBCF15F0166A176A86
:1027D0001450B45F1550B55B1650B65B1750B75B1D
:1027E000040EDBCF08F0050EDBCF09F00850C2273E
:1027F0000950C323DFC1BCF1E0C1BDF1E66A02D0DC
:10280000010EE66E030EDBCFE6FFD7D9E552E552A7
:10281000020EDB5002E0B8EC1DF0DF2AD7D4040E24
:10282000DB6A050EDB6A040EDBCF14F0050EDBCF8E
:1028300015F0030E145C000E155801E3B2D0040E1F
:10284000DBCFE9FF050EDBCFEAFF140EEA02F3CF80
:10285000EAFFE902F3CFE9FFF450EA26C00EE926C9
:10286000000EEA22100EE926000EEA22EE50ED10CC
:1028700001E197D0040EDBCFE9FF050EDBCFEAFFC5
:10288000140EEA02F3CFEAFFE902F3CFE9FFF450B6
:10289000EA26C00EE926000EEA22120EE926000EF4
:1028A000EA22EECF16F0EFCF17F016C0E6FF17C002
:1028B000E6FFE3EC58F0E552E7CF17F0E552E7CF3B
:1028C00016F01650065C146E17500758156EB70EAA
:1028D000D8801454000E15545DE2040EDBCF14F0C2
:1028E000050EDBCF15F0020ED8801456000E1556DB
:1028F000140E1502F3CF15F01402F3CF14F0F450B8
:102900001526F3CFE6FF15C0E6FF010EE66EE76E73
:10291000040EDBCF16F0050EDBCF17F0E7501626BE
:10292000000E1722140E1702F3CF17F01602F3CF82
:1029300016F0F4501726C00E1626000E172216C0E9
:10294000E6FF17C0E6FF010EE66E040EDBCF18F0BF
:10295000050EDBCF19F0140E1902F3CF19F018028F
:10296000F3CF18F0F4501926C00E1826000E1922C5
:1029700018C0E6FF19C0E6FF8DEC29F01A6E080EAC
:10298000E15E1A500001F86BF96B040EDB06050ED0
:1029900001E2DB06040EDB2A050E01E244D7DB2A46
:1029A00042D7060EE15C02E2E16AE552E16EE552D1
:1029B000E7CFD9FF1200D9CFE6FFE1CFD9FF250E2F
:1029C000E126FD0EDBCFE9FFFE0EDBCFEAFF140EA2
:1029D000EECFDBFF150EEECFDBFF160EEECFDBFFEB
:1029E000170EEECFDBFFFB0EDBCFE9FFFC0EDBCFDC
:1029F000EAFF180EEECFDBFF190EEECFDBFF1A0E4B
:102A0000EECFDBFF1B0EEECFDBFF1C0EDB6A060EEC
:102A1000F36E1D0EF3CFDBFFF90EDBCF08F0FA0EDD
:102A2000DBCF09F01E0E08C0DBFF1F0E09C0DBFF65
:102A30001E0EDBCFE6FF1F0EDBCFE6FF06EC3CF001
:102A4000E552E5521E0EF3CFDBFF1F0EF4CFDBFF86
:102A50000C0EE66EE66AD950140FE66E000EDA2010
:102A6000E66E81EC3CF0E552E552E552E552F3CFDB
:102A700014F0F4CF15F0141E151E200E14C0DBFF49
:102A8000210E15C0DBFFF90EDBCFE6FFFA0EDBCF20
:102A9000E6FFFCEC30F0E552E552220EF3CFDBFF0F
:102AA000230EF4CFDBFF200EDBCF14F0210EDBCFA3
:102AB00015F0220EDB50141871E1230EDB501518AF
:102AC0006DE1000EE66EE66A94EC54F0E552E552D4
:102AD000140EE66EE66AD9CFE6FFDACFE6FF0DEC1C
:102AE00034F0E552E552E552E552D9CFE6FFDACFB0
:102AF000E6FFA0EC1CF0E552E552D9500C0FE96E50
:102B0000DACFEAFFEF50F00BE842E842E842E84251
:102B1000040DF350146E156A140E145E000E155A4F
:102B2000240E14C0DBFFDB50166E176AF90EDBCFE4
:102B300008F0FA0EDBCF09F01650085C146E17503F
:102B40000958156E140E145E000E155AF90E14C0B5
:102B5000DBFFFA0E15C0DBFFFD0EDBCFE6FFFE0E3E
:102B6000DBCFE6FFD9CFE6FFDACFE6FFC0EC19F006
:102B7000E552E552E552E552000910E0F90EDBCFCF
:102B8000E6FFFA0EDBCFE6FFD9CFE6FFDACFE6FFAE
:102B9000A8EC1EF0E552E552E552E5523EEC2CF071
:102BA000010E146E250EE15C02E2E16AE552E16E6F
:102BB0001450E552E7CFD9FF1200D9CFE6FFE1CF9D
:102BC000D9FF280EE1268DEC00F0FE0EDBA004D02C
:102BD0000101EF87FE0EDB900101EE9BEE9DEE9F63
:102BE000EF93EF95EF9133EC2CF00009FCE0FE0E33
:102BF000DB50060B05E0260EDB6A270EDB6A57D199
:102C00000101BC51DD1908E1BD51DE1905E1260EB7
:102C1000DB6A270EDB6A2FD1DD51BC5DDE51BD5969
:102C200052E2BC51DD5D146EDE51BD55156E260EAF
:102C300014C0DBFF270E15C0DBFF260EDBCF14F020
:102C4000270EDBCF15F01450C25D1550C35906E2B4
:102C5000260EC2C1DBFF270EC3C1DBFF260EDBCF72
:102C600014F0270EDBCF15F01450D35D1550D45956
:102C700007E2260ED3C1DBFF270ED4C1DBFFEF85B1
:102C8000260EDBCFE6FF270EDBCFE6FFF2C1E6FF25
:102C9000BCC1E6FFBDC1E6FFE66A2B0EE66E170E6D
:102CA000E66E8DEC29F0146E080EE15E1450260ECF
:102CB000DBCF08F0270EDBCF09F008500101BC275D
:102CC0000950BD23D8D0BC51D95D146EDA51BD5521
:102CD000156E240E14C0DBFF250E15C0DBFF240E7D
:102CE000DB50DD250001166E250EDB500101DE21D3
:102CF0000001176E0101D751165C146ED851175898
:102D0000156E260E14C0DBFF270E15C0DBFF260E46
:102D1000DBCF14F0270EDBCF15F01450C25D155039
:102D2000C35906E2260EC2C1DBFF270EC3C1DBFF7B
:102D3000260EDBCF14F0270EDBCF15F01450D35D39
:102D40001550D45907E2260ED3C1DBFF270ED4C19C
:102D5000DBFFEF85240EDBCF14F0250EDBCF15F063
:102D6000260EDBCF16F0270EDBCF17F01450165CC3
:102D7000155017580CE2260EDBCF08F0270EDBCFDC
:102D800009F0240E08C0DBFF250E09C0DBFF240E6E
:102D9000DBCFE6FF250EDBCFE6FFF2C1E6FFBCC1CD
:102DA000E6FFBDC1E6FFE66A2B0EE66E170EE66E85
:102DB0008DEC29F0146E080EE15E1450260EDBCF68
:102DC00016F0270EDBCF17F0240EDB50165C146EC6
:102DD000250EDB501758156E240E14C0DBFF250E90
:102DE00015C0DBFFD950240FE96EDACFEAFFEE50B1
:102DF000ED1027E0240EDBCFE6FF250EDBCFE6FF4C
:102E0000F2C1E6FFD7C1E6FFD8C1E6FFE66A0101DD
:102E1000BC51D95D146EDA51BD55156E166A176A2C
:102E20002B0E1426170E1522000E1622172214C080
:102E3000E6FF15C0E6FF8DEC29F0186E080EE15E86
:102E40001850260EDBCF08F0270EDBCF09F0085014
:102E50000101BC270950BD23D951BC5DDA51BD59D0
:102E60000AE3D751D95D146EDA51D855156E145056
:102E7000BC5F1550BD5BEFA71AD0260EDBCF14F058
:102E8000270EDBCF15F0C251141802E1C3511518FB
:102E90000EE0260EDBCF16F0270EDBCF17F0D35156
:102EA000161802E1D451171802E0FE0EDB80D9504B
:102EB000260FE96EDACFEAFFEE50ED1004E1FE0EC8
:102EC000DB50030B30E0260EDBCF08F0270EDBCF04
:102ED00009F008500101C25F0950C35BD950260FA9
:102EE000E96EDACFEAFFEE50ED1002E0FE0EDB866F
:102EF000FD0EDBA007D0D56B090EB06F3D0EB16F94
:102F0000B26BB36BD9EC58F006500101B025E56FF8
:102F10000750B121E66F0850B221E76F0950B32185
:102F2000E86FEE893ED0FD0EDBA21FD0EE0EE96EFB
:102F3000010EEA6EEF50070BE82AF36EE850070B1C
:102F4000F36EF46EF80EEF14F310EF6EF45001010F
:102F5000B407000EB55BB65BB75B010EF36E260ED1
:102F6000F3CFDBFF270EDB6A1CD00101EEA919D0DD
:102F7000DBB008D0D55106E0D507D890B333B233D3
:102F8000B133B033D9EC58F006500101B025E56FEC
:102F90000750B121E66F0850B221E76F0950B32105
:102FA000E86F020EC0C1DBFF030EC1C1DBFF040EE0
:102FB000BEC1DBFF050EBFC1DBFF060EB4C1DBFFE8
:102FC000070EB5C1DBFF080EB6C1DBFF090EB7C1A6
:102FD000DBFF0A0EB8C1DBFF0B0EB9C1DBFF0C0E25
:102FE000BAC1DBFF0D0EBBC1DBFF0F0EDB9CDB9E0E
:102FF0000E0EDB90DB92DB94DB96FE0EDB50E76E71
:103000000F0EE7CFDBFF140EDB6A150EDB6A260E10
:10301000DBCF14F0270EDBCF15F0000114500101B7
:10302000B427000115500101B523000EB623B723C4
:10303000FE0EDBA21DD0DBB808D00A0EDB6A0B0E39
:10304000DB6A0C0EDB6A0D0EDB6AD2A30BD0D95003
:10305000060FE96EDACFEAFFEE06000EEE5AEE5AE0
:10306000EE5A06D0B42B000EB523B623B723D28375
:10307000FE0EDBA013D0D2A10BD0D950060FE96E03
:10308000DACFEAFFEE06000EEE5AEE5AEE5A06D0FE
:10309000B42B000EB523B623B723D281E351E15DF3
:1030A000E451E25913E3D951DB5D166EDC51DA5578
:1030B000176EE351E15D186EE251E455196E185038
:1030C000165C146E19501758156E09D0E151E35D66
:1030D000146EE451E255156E1406000E155A100ECA
:1030E00014C0DBFF110E15C0DBFF8BEC2CF0F3CF0F
:1030F000DEFFF4CFDDFFDECF14F0DDCF15F0400EA4
:10310000145C000E155803E2DE6ADD6A08D0D9CFE0
:10311000E9FFDACFEAFF400EEE5E000EED5A100E28
:10312000DBCF14F0110EDBCF15F0DECF16F0DDCFC4
:1031300017F01450165C155017580AE2D9CFE9FF62
:10314000DACFEAFF100EEECFDBFF110EEDCFDBFF83
:10315000D950020FE66E000EDA20E66EA0EC1CF0ED
:10316000E552E552D950260FE96EDACFEAFF140E88
:10317000EE26000EED220E0EDB88DB9ADB8CDB9E4A
:10318000FE0EDBA236D0D950260FE96EDACFEAFF69
:10319000040EEE26000EED22020EF36E160EF3CF95
:1031A000DBFF040EF36E170EF3CFDBFF020EF36EA0
:1031B000180EF3CFDBFFF36E190EF3CFDBFF010E1A
:1031C000146ED9500E0FE96EDACFEAFFEF50F00B14
:1031D000E842E842E842E84214240F0BF36EF46E32
:1031E000F346F346F346F3460F0EEF14F310EF6E7B
:1031F000F4501A0E87C0DBFF1B0E88C0DBFF1C0ECD
:1032000089C0DBFF1D0E8AC0DBFF1E0EC6C1DBFFBF
:103210001F0EC7C1DBFF200EC8C1DBFF210EC9C1D5
:10322000DBFF220EDB6A060EF36E230EF3CFDBFF0D
:10323000260EDBCF08F0270EDBCF09F0240E08C0E6
:10324000DBFF250E09C0DBFF240EDBCFE6FF250EDA
:10325000DBCFE6FF06EC3CF0E552E552240EF3CF5F
:10326000DBFF250EF4CFDBFF0C0EE66EE66AD950CD
:103270001A0FE66E000EDA20E66E81EC3CF0E552A5
:10328000E552E552E552F3CF14F0F4CF15F0141ED9
:10329000151E120E14C0DBFF130E15C0DBFF030E4C
:1032A000E66E170EE66E0CEC30F0E552E552260E97
:1032B000DBCFE6FF270EDBCFE6FF060EE66EC60E7F
:1032C000E66E010EE66EE3EC53F0146E050EE15E61
:1032D0001450140EE66EE66AD950020FE66E000E28
:1032E000DA20E66E91EC34F0E552E552E552E55213
:1032F000FE0EDBA20FD0040EE66EE66AD950160F62
:10330000E66E000EDA20E66E91EC34F0E552E552FE
:10331000E552E552170EE66EE66E45EC30F0E552EA
:10332000E552260EDBCFE6FF270EDBCFE6FFFCECF7
:1033300030F0E552E552F3CFDEFFF4CFDDFF270E8C
:10334000E66E170EE66E0CEC30F0E552E552020E1A
:10335000E66EE66AD9CFE6FFDACFE6FF91EC34F00D
:10336000E552E552E552E55287EC2EF0280EE15C7D
:1033700002E2E16AE552E16EE552E7CFD9FF1200C1
:10338000D9CFE6FFE1CFD9FF060EE126FD0EDBCF58
:10339000E9FFFE0EDBCFEAFF020EE926000EEA226D
:1033A000EE50ED1001E10CD1DE52FE0EDD6EFB0E93
:1033B000DBCFE9FFFC0EDBCFEAFF020EE926000EB1
:1033C000EA22EECF1AF0EFCF1BF0FB0EDBCFE9FFC6
:1033D000FC0EDBCFEAFF1A50EE24186E1B50EE20D5
:1033E000196EFD0EDBCFE9FFFE0EDBCFEAFF1850B2
:1033F000EE24166E1950EE20176EFD0EDBCFE9FF9E
:10340000FE0EDBCFEAFF020EE926000EEA2216507E
:10341000EE18146E1750EE18156E020E14C0DBFF76
:10342000030E15C0DBFFDF6ADF50146E156A030E52
:10343000145C000E15586CE2DFCFE6FF40EC00F0A4
:10344000E5520D0E0101ED5D61E0040EED5D18E148
:10345000FD0EDBCFE9FFFE0EDBCFEAFF020EE92611
:10346000000EEA22EECF14F0EFCF15F01450F01951
:103470004DE11550F1194AE1010EDFCFDBFF46D0D7
:10348000F0C114F0F1C115F0020EDB5014183EE14A
:10349000030EDB5015183AE18DEC00F0FD0EDBCF8A
:1034A000E9FFFE0EDBCFEAFF020EE926000EEA225C
:1034B000EECF14F0EFCF15F00101C051141826E142
:1034C000C151151823E1FD0EDBCFE9FFFE0EDBCF66
:1034D000EAFFEECF16F0EFCF17F0BE51161816E147
:1034E000BF51171813E1FB0EDBCFE9FFFC0EDBCF5A
:1034F000EAFFEE50C6190AE1EE50C71907E1EE5097
:10350000C81904E1EE50C91901E147E0DF2A8CD760
:10351000010EDB50FE0843E0010EDBCFE6FF40EC7E
:1035200000F0E5528DEC00F0010EDB50FE0837E0B4
:10353000020EDBCFF0F1030EDBCFF1F10A0EE66EE7
:10354000E66AFB0EDBCFE6FFFC0EDBCFE6FFC60E26
:10355000E66E010EE66E0EEC58F0146E060EE15E9D
:103560001450FD0EDBCFE9FFFE0EDBCFEAFFEECFFE
:10357000BEF1EDCFBFF1FD0EDBCFE9FFFE0EDBCFDD
:10358000EAFF020EE926000EEA22EECFC0F1EDCFEF
:10359000C1F1D7C1BCF1D8C1BDF1010EC5D1FD0E3D
:1035A000DBCFE9FFFE0EDBCFEAFF0D0EE926000EB2
:1035B000EA22EF50020B04E00001F851F91102E099
:1035C000000EB2D1040EDB6A050EDB6A040EDBCFFF
:1035D00014F0050EDBCF15F0030E145C000E155829
:1035E00001E3ABD0040EDBCFE9FF050EDBCFEAFF32
:1035F000140EEA02F3CFEAFFE902F3CFE9FFF45039
:10360000EA26C00EE926000EEA22100EE926000E78
:10361000EA22EE50ED1001E190D0040EDBCFE9FF7D
:10362000050EDBCFEAFF140EEA02F3CFEAFFE90250
:10363000F3CFE9FFF450EA26C00EE926000EEA2295
:10364000100EE926000EEA22EECF14F0EFCF15F0AF
:10365000FD0EDBCFE9FFFE0EDBCFEAFF020EE9260F
:10366000000EEA22EECF16F0EFCF17F01650141826
:103670005DE1175015185AE1040EDBCFE9FF050E86
:10368000DBCFEAFF140EEA02F3CFEAFFE902F3CF41
:10369000E9FFF450EA26C00EE926000EEA220A0EDF
:1036A000E926000EEA22EECF14F0EFCF15F0FD0E62
:1036B000DBCFE9FFFE0EDBCFEAFFEECF16F0EFCF58
:1036C00017F01650141832E1175015182FE1FB0EA1
:1036D000DBCFE9FFFC0EDBCFEAFFEECF14F0EECF3D
:1036E00015F0EECF16F0EFCF17F0040EDBCFE9FFA9
:1036F000050EDBCFEAFF140EEA02F3CFEAFFE90280
:10370000F3CFE9FFF450EA26C00EE926000EEA22C4
:10371000EE500001141808E1EE50151805E1EE50C6
:10372000161802E1EE50171801E1DBD0040EDB2A77
:10373000050E01E24BD7DB2A49D7DF6ADF50146E52
:10374000156A030E145C000E155801E3ECD0DFCFB0
:10375000E6FF40EC00F0E5520101EEA7E2D08DEC6F
:1037600000F0FD0EDBCFE9FFFE0EDBCFEAFF020E1D
:10377000E926000EEA22EECF14F0EFCF15F0145038
:103780000101C01901E0CDD01550C11901E0C9D027
:103790000A0EE66EE66AFB0EDBCFE6FFFC0EDBCF21
:1037A000E6FF040EDBCFE9FF050EDBCFEAFF140EC8
:1037B000EA02F3CFEAFFE902F3CFE9FFF450EA2689
:1037C000C00EE926000EEA22E9CF14F0EACF15F088
:1037D000E9CFE6FFEACFE6FF0EEC58F0166E060ED4
:1037E000E15E1650FD0EDBCFE9FFFE0EDBCFEAFFF8
:1037F000EECF14F0EFCF15F0040EDBCFE9FF050E8E
:10380000DBCFEAFF140EEA02F3CFEAFFE902F3CFBF
:10381000E9FFF450EA26C00EE926000EEA220A0E5D
:10382000E926000EEA2214C0EEFF15C0EDFFFD0EE2
:10383000DBCFE9FFFE0EDBCFEAFF040EE926000E28
:10384000EA22EECF14F0EECF15F0EECF16F0EFCF68
:1038500017F0040EDBCFE9FF050EDBCFEAFF140EF5
:10386000EA02F3CFEAFFE902F3CFE9FFF450EA26D8
:10387000C00EE926000EEA220C0EE926000EEA220E
:1038800014C0EEFF15C0EEFF16C0EEFF17C0EEFF2E
:10389000FD0EDBCFE9FFFE0EDBCFEAFF020EE926CD
:1038A000000EEA22EECF14F0EFCF15F0040EDBCFBE
:1038B000E9FF050EDBCFEAFF140EEA02F3CFEAFFC1
:1038C000E902F3CFE9FFF450EA26C00EE926000E24
:1038D000EA22100EE926000EEA2214C0EEFF15C0FF
:1038E000EDFFE3EC58F007C015F0040EDBCFE9FF65
:1038F000050EDBCFEAFF140EEA02F3CFEAFFE9027E
:10390000F3CFE9FFF450EA26C00EE926000EEA22C2
:10391000120EE926000EEA2206C0EEFF15C0EDFFEA
:1039200003D0DF2A0BD7000E146E060EE15C02E214
:10393000E16AE552E16E1450E552E7CFD9FF12007B
:10394000D9CFE6FFE1CFD9FFFD0EDBCFE9FFFE0EB9
:10395000DBCFEAFFEECFE6FFEFCFE6FF06EC3CF071
:10396000E552E552F3CF14F0F4CF15F0FD0EDBCFA6
:10397000E9FFFE0EDBCFEAFFF3CFEEFF15C0EDFF50
:10398000FD0EDBCFE9FFFE0EDBCFEAFF020EE926DC
:10399000000EEA22EECFE6FFEFCFE6FF06EC3CF0AA
:1039A000E552E552F3CF14F0F4CF15F0FD0EDBCF66
:1039B000E9FFFE0EDBCFEAFF020EE926000EEA2247
:1039C000F3CFEEFF15C0EDFFFD0EDBCFE9FFFE0EDE
:1039D000DBCFEAFF040EE926000EEA22EECFE6FF77
:1039E000EECFE6FFEECFE6FFEFCFE6FF2FEC3CF0A9
:1039F000E552E552E552E55206C014F007C015F055
:103A000008C016F009C017F0FD0EDBCFE9FFFE0E6F
:103A1000DBCFEAFF040EE926000EEA2206C0EEFF25
:103A200015C0EEFF16C0EEFF17C0EEFFFD0EDBCF98
:103A3000E9FFFE0EDBCFEAFF080EE926000EEA22C0
:103A4000EECFE6FFEECFE6FFEECFE6FFEFCFE6FFED
:103A50002FEC3CF0E552E552E552E55206C014F079
:103A600007C015F008C016F009C017F0FD0EDBCF37
:103A7000E9FFFE0EDBCFEAFF080EE926000EEA2280
:103A800006C0EEFF15C0EEFF16C0EEFF17C0EEFF3A
:103A9000FD0EDBCFE9FFFE0EDBCFEAFF0E0EE926BF
:103AA000000EEA22EECFE6FFEFCFE6FF06EC3CF099
:103AB000E552E552F3CF14F0F4CF15F0FD0EDBCF55
:103AC000E9FFFE0EDBCFEAFF0E0EE926000EEA222A
:103AD000F3CFEEFF15C0EDFFFD0EDBCFE9FFFE0ECD
:103AE000DBCFEAFF100EE926000EEA22EECFE6FF5A
:103AF000EFCFE6FF06EC3CF0E552E552F3CF14F0D1
:103B0000F4CF15F0FD0EDBCFE9FFFE0EDBCFEAFFB1
:103B1000100EE926000EEA22F3CFEEFF15C0EDFFEE
:103B2000FD0EDBCFE9FFFE0EDBCFEAFF120EE9262A
:103B3000000EEA22EECFE6FFEFCFE6FF06EC3CF008
:103B4000E552E552F3CF14F0F4CF15F0FD0EDBCFC4
:103B5000E9FFFE0EDBCFEAFF120EE926000EEA2295
:103B6000F3CFEEFF15C0EDFFE552E7CFD9FF12000E
:103B70008DEC00F0C0C1F0F1C1C1F1F1D7C1DDF1B0
:103B8000D8C1DEF1D7C1DFF1D8C1E0F1D9C1E1F18F
:103B9000DAC1E2F1D9C1E3F1DAC1E4F10101EE5198
:103BA000080B02E0040E01D00D0EED6FEE91EE93C6
:103BB000EE95EE99EE9BEE9DEE9FEF91EF93EF95D4
:103BC000EF97EF89D291D293D297D299D7C1BCF116
:103BD000D8C1BDF15BEC37F0F3CFB4F1F4CFB5F160
:103BE0005BEC37F0F3CFB6F1F4CFB7F10101D06958
:103BF000D169010EC26FC36B1200D9CFE6FFE1CFCE
:103C0000D9FF040EE1260C0EE66EE66A94EC54F041
:103C1000E552E552F2EC33F0DF6EF00EDF14E840CF
:103C2000E8403F0B146E156A140E145E000E155A10
:103C30001450DF6EDF5001E17DD0070EE66EE66ABC
:103C4000000EE66EE66A0DEC34F0E552E552E55200
:103C5000E552DF50DF0600096DE0F2EC33F0E76E6D
:103C6000010EE7CFDBFFDB5065E0010EDB04F1E086
:103C7000010EDB50020841E1030EDF5C5BE3020E44
:103C8000DB6A030EDB6AF2EC33F0E76E010EE7CF7E
:103C9000DBFFDB5004080CE1F2EC33F0E76E030EBF
:103CA000E7CFDBFFF2EC33F0E76E020EE7CFDBFF8E
:103CB000020EDBCF14F0030EDBCF15F0180E145CF0
:103CC000020E155837E3D950020FE96EDACFEAFF3A
:103CD000B40ED880EE54050EED5404E2B40EF36E2B
:103CE000050E2BD0020EDBCF14F0030EDBCF15F048
:103CF00014C0F3FF15C0F4FF21D0020EDF5C1AE3FD
:103D0000F2EC33F0E76E010EE7CFDBFFDB50DF5C58
:103D100011E3010EDBCFE6FFE66A000EE66EE66A0F
:103D20000DEC34F0E552E552E552E552010EDB5060
:103D3000DF5E8FD7180EF36E020EF46E040EE15C98
:103D400002E2E16AE552E16EE552E7CFD9FF1200E7
:103D5000D9CFE6FFE1CFD9FF1C0EE126FD0EDBCF68
:103D6000E9FFFE0EDBCFEAFF0D0EE926000EEA2288
:103D70000E0EEFCFDBFFFD0EDBCFE9FFFE0EDBCF3C
:103D8000EAFF080EE926000EEA220F0EEECFDBFF57
:103D9000100EEECFDBFF110EEECFDBFF120EEECFDB
:103DA000DBFFFD0EDBCFE9FFFE0EDBCFEAFF040EEB
:103DB000E926000EEA22130EEECFDBFF140EEECF43
:103DC000DBFF150EEECFDBFF160EEECFDBFF0101A2
:103DD000EE91EE93EE95EEB913D0D9EC58F006C003
:103DE000E5F107C0E6F108C0E7F109C0E8F15A0EB5
:103DF0000101E527620EE623020EE723000EE82309
:103E0000ED51050A47E0010A15E0FB0EDBCF08F093
:103E1000FC0EDBCF09F0170E08C0DBFF180E09C03F
:103E2000DBFF0E0EDBA0ABD0170EDB2A180E01E273
:103E3000A6D0A4D00E0EDBB405EF28F0DBA810D07E
:103E40000F0EDBCFB4F1100EDBCFB5F1110EDBCFCF
:103E5000B6F1120EDBCFB7F1E66A040EE6EF23F0FF
:103E6000DBA205EF28F0130EDBCFB8F1140EDBCF89
:103E7000B9F1150EDBCFBAF1160EDBCFBBF1B82BC3
:103E8000000EB923BA23BB23B8DEF3CFD3F1F4CFAE
:103E9000D4F167D00E0EDBB410EF28F0DBA815D0FC
:103EA000D9500F0FE96EDACFEAFFEE50B41901E0F6
:103EB000F5D1EE50B51901E0F1D1EE50B61901E09F
:103EC000EDD1EE50B71901E0E9D10E0EDBA210EFF3
:103ED00028F0130EDBCFB8F1140EDBCFB9F1150EBD
:103EE000DBCFBAF1160EDBCFBBF1B82B000EB92336
:103EF000BA23BB23FD0EDBCFE9FFFE0EDBCFEAFFCB
:103F00000E0EE926000EEA22EECFC2F1EDCFC3F18C
:103F100074DEF3CFD3F1F4CFD4F10E0EDBA821D0B1
:103F2000010EE66E100EE66EDDEC15F0E552E55280
:103F30000101070EED6FD9EC58F006C0E5F107C09E
:103F4000E6F108C0E7F109C0E8F15A0E0101E527E2
:103F5000620EE623020EE723000EE823EE9910EF2F
:103F600028F0010EE66E120EE66EDDEC15F0E5525D
:103F7000E5520101060EED6F10EF28F0DB2A0E0E60
:103F8000DBA205D0170EDB2A180E01E3DB2AE35172
:103F9000E15DE451E25913E3D951DB5D166EDC516A
:103FA000DA55176EE351E15D186EE251E455196E72
:103FB0001850165C146E19501758156E09D0E1513F
:103FC000E35D146EE451E255156E1406000E155AA9
:103FD0000C0E14C0DBFF0D0E15C0DBFFD950130F04
:103FE000E96EDACFEAFFB851EE5C146EB951EE58C3
:103FF000156EBA51EE58166EBB51EE58176E060E7E
:1040000014C0DBFF070E15C0DBFF080E16C0DBFF78
:10401000090E17C0DBFF060EDBCF08F0070EDBCF63
:1040200009F00A0E08C0DBFF0B0E09C0DBFF190EFA
:10403000DB6AD950170FE96EDACFEAFFEE50ED10C8
:1040400001E1B8D0D9500C0FE96EDACFEAFFEE509B
:10405000ED1001E1EED0D950060FE96EDACFEAFF9C
:10406000D890030EEB50000A08E6000EEE5C000E3E
:10407000EE58000EEE58000EEE5816E30C0EDBCF95
:1040800014F00D0EDBCF15F0166A176AD950060F23
:10409000E96EDACFEAFF1450EE5C1550EE58165078
:1040A000EE581750EE584EE3170EDBCF14F0180EF3
:1040B000DBCF15F0166A176AD950060FE96EDACF12
:1040C000EAFFEE501426EE501522EE501622EE5066
:1040D00017221734000E171809E6D880000E145462
:1040E000000E1554000E1654000E175430E20C0E3C
:1040F000DBCF1CF00D0EDBCF1DF0170EDB501C5C70
:10410000186E180EDB501D58196E1A6A1B6A19AE0C
:1041100002D01A681B68D950060FE96EDACFEAFFA1
:10412000030EEBCFF3FF1B50F318E8AE02D0F334CD
:1041300008D0EE50185CEE501958EE501A58EE5058
:104140001B5805E3010EF36E190EF3CFDBFF0C0EC7
:10415000DBCF14F00D0EDBCF15F0166A176AD950BD
:10416000060FE96EDACFEAFF030EEB501718E8AE40
:1041700002D0173408D01450EE5C1550EE5816508B
:10418000EE581750EE5855E2170EDBCF1AF0180E06
:10419000DBCF1BF00A0EDB501A24186E0B0EDB501F
:1041A0001B20196EE83445E218500008000E19541F
:1041B00040E23AD0060EDBCF14F0070EDBCF15F04D
:1041C000080EDBCF16F0090EDBCF17F014501510D8
:1041D0001610171029E0D950060FE96EDACFEAFF62
:1041E000D890030EEB50000A08E6000EEE5C000EBD
:1041F000EE58000EEE58000EEE581BE30C0EDBCF0F
:1042000014F00D0EDBCF15F0166A176AD950060FA1
:10421000E96EDACFEAFF1450EE5C1550EE581650F6
:10422000EE581750EE5805E2010EF36E190EF3CF5B
:10423000DBFF190EDB5006E10E0EDBB410EF28F0A9
:1042400008EF28F00E0EDB50060B02E005EF28F019
:104250000E0EDBA810EF28F0ED510C0A01E1DED2C2
:104260000B0A4CE00F0A4AE0010A48E0020A46E065
:10427000010A44E00C0A01E0E9D2D9500F0FE96EBF
:10428000DACFEAFFEE50B41908E1EE50B51905E1B6
:10429000EE50B61902E1EE50B7192EE0130EB4C17C
:1042A000DBFF140EB5C1DBFF150EB6C1DBFF160E2A
:1042B000B7C1DBFF0F0EDBCFB4F1100EDBCFB5F1D2
:1042C000110EDBCFB6F1120EDBCFB7F1010EE66EA9
:1042D000040EE66EDDEC15F0E552E552130EDBCF71
:1042E000B4F1140EDBCFB5F1150EDBCFB6F1160E1F
:1042F000DBCFB7F110EF28F0070EED6FBC51DD5D9D
:10430000146EDE51BD55156E040E14C0DBFF050E94
:1043100015C0DBFF040E050EDBCF15F00001800E8B
:10432000151410E00101D751D95D146EDA51D8553A
:10433000156ED950040FE96EDACFEAFF1450EE265D
:104340001550ED22040EDBCF14F0050EDBCF15F077
:10435000166A176AB40EE96E010EEA6EEE50142664
:10436000EE501522EE501622EE50172214C0DFFF39
:10437000010E15C0DBFF020E16C0DBFF030E17C0D7
:10438000DBFF0F0EDBCF18F0100EDBCF19F0110E94
:10439000DBCF1AF0120EDBCF1BF0D9CFE9FFDACF5B
:1043A000EAFF1850EE5C146E1950EE58156E1A5054
:1043B000EE58166E1B50EE58176E0001800E171443
:1043C00003E0E66A0AEF28F00101DF51BC5D186ED8
:1043D000BD51E055196E1A6A1B6A19AE02D01A68EF
:1043E0001B681850B45D146E1950B559156E1A50EB
:1043F000B659166E1B50B759176E14C0DFFF010E69
:1044000015C0DBFF020E16C0DBFF030E17C0DBFF7B
:10441000DF51BC5DE051BD5914E2D751D95D146E36
:10442000DA51D855156E166A176AD9CFE9FFDACF77
:10443000EAFF1450EE5E1550EE5A1650EE5A175021
:10444000EE5A0F0EDBCF18F0100EDBCF19F0110E65
:10445000DBCF1AF0120EDBCF1BF0D9CFE9FFDACF9A
:10446000EAFFEE50185C146EEE501958156EEE50BF
:104470001A58166EEE501B58176E14C0DFFF010E4F
:1044800015C0DBFF020E16C0DBFF030E17C0DBFFFB
:10449000DECF07F0DECF08F0DECF09F0DDCF0AF087
:1044A000DD52DD520A34000E0A1809E6D880000EEB
:1044B0000754000E0854000E0954000E0A5401E37C
:1044C00094D0D751D95D146EDA51D855156E166A4D
:1044D000176AD9CFE9FFDACFEAFFEE50145CEE504D
:1044E0001558EE501658EE50175801E27ED0D2976C
:1044F000D299EF91040EDFC1DBFF050EE0C1DBFFB7
:10450000D9CFE9FFDACFEAFFEE50DF27EE50E02304
:10451000040EDBCF14F0050EDBCF15F01450BC5D9C
:104520001550BD590DE3DF51BC5DE051BD593EE270
:10453000BC51DF5D146EE051BD55156E000128D0F1
:10454000D751D95D166EDA51D855176EBC51162465
:10455000146EBD511720156E040E14C0DBFF050E3E
:1045600015C0DBFF040EDBCF14F0050EDBCF15F01A
:10457000DF51145CE051155819E2040EDB50DF5D89
:104580000001146E050EDB500101E0590001156EAB
:1045900014500101B427000115500101B523000E8C
:1045A000B623B723DFC1BCF1E0C1BDF1D951DF5D56
:1045B000DA51E0590AE3D751D95D146EDA51D85572
:1045C000156E1450DF5F1550E05BD951BC5DDA51B8
:1045D000BD5949E3D751D95D146EDA51D855156EDE
:1045E0001450BC5F1550BD5B3ED0BC51DF1902E1D9
:1045F000BD51E01938E0D2A735D0D2A932D0DF5171
:10460000BC5D146EBD51E055156E166A176A15AE85
:1046100002D0166817681450B45F1550B55B165079
:10462000B65B1750B75BDF51BC5DE051BD5914E27A
:10463000D751D95D146EDA51D855156E166A176ABE
:1046400015AE02D0166817681450B45F1550B55BEC
:104650001650B65B1750B75BDFC1BCF1E0C1BDF1CE
:10466000EF85D289D287DD51DF1931E1DE51E019C2
:104670002EE1EFB715D0D9EC58F006C0E5F107C030
:10468000E6F108C0E7F109C0E8F15A0E0101E5279B
:10469000620EE623020EE723000EE823EE9917D000
:1046A000D9500F0FE96EDACFEAFFB451EE180FE1DF
:1046B000B551EE180CE1B651EE1809E1B751EE18FC
:1046C00006E105E1D251010B02E0EE99EF97D950D6
:1046D0000F0FE96EDACFEAFFEE50B45D166EEE50C2
:1046E000B559176EEE50B659186EEE50B759196E8F
:1046F000FD0EDBCFE9FFFE0EDBCFEAFF0E0EE92653
:10470000000EEA221650EE5C146E1750EE58156E2D
:104710001A0E14C0DBFF1B0E15C0DBFFC251C31104
:1047200009E1D9501A0FE96EDACFEAFFEE50ED1029
:1047300001E0EF831A0EDBCFC2F11B0EDBCFC3F11A
:10474000080EED5D2FE1D9500F0FE96EDACFEAFFC9
:10475000B451EE1801E07AD0B551EE1801E076D0F0
:10476000B651EE1801E072D0B751EE186FE16EE16C
:10477000D251010B6BE0D9EC58F006C0E5F107C04F
:10478000E6F108C0E7F109C0E8F12D0E0101E527C7
:10479000310EE623010EE723000EE823EE89090E11
:1047A000ED6F54D0090EED5D18E10E0EDBB04ED06A
:1047B0000F0EDBCFB4F1100EDBCFB5F1110EDBCF56
:1047C000B6F1120EDBCFB7F1E66A140EE66EDDEC41
:1047D00015F0E552E55205EF28F00A0EED5D36E1E1
:1047E000D9500F0FE96EDACFEAFFB451EE1802E0AC
:1047F00010EF28F0B551EE1802E010EF28F0B65196
:10480000EE1802E010EF28F0B751EE1802E010EFBA
:1048100028F002E010EF28F005EF28F0D9500F0F34
:10482000E96EDACFEAFFB451EE1801E0F9D3B551E1
:10483000EE1801E0F5D3B651EE1801E0F1D3B7510F
:10484000EE1801E0EDD301E0EBD3DFD30E0EDBBABF
:10485000E7D30B0EED5D01E1E3D30A0EED5D01E15F
:10486000DFD30C0EED5D01E1DBD3D950FB0FE96E18
:10487000FF0EDA20EA6EEE50ED1001E12AD30A0EA7
:10488000DBCF14F00B0EDBCF15F0153404E214501F
:104890000008000E155401E24ED1FD0EDBCFE9FFFA
:1048A000FE0EDBCFEAFF0C0EE926000EEA22EF50E7
:1048B000F00BE842E842E842E842040DF350166E7D
:1048C000176A0A0EDB50F35C146E0B0EDB501758A0
:1048D000156E14C0E6FFE66E94EC54F0E552E55216
:1048E0000A0EDBCF14F00B0EDBCF15F0D950FB0F07
:1048F000E96EFF0EDA20EA6E1450EE261550ED2216
:10490000FB0EDBCF14F0FC0EDBCF15F00C0EDBCF73
:1049100016F00D0EDBCF17F01450165C155017581B
:104920000CE20C0EDBCF08F00D0EDBCF09F0FB0E16
:1049300008C0DBFFFC0E09C0DBFFFB0EDBCF14F071
:10494000FC0EDBCF15F0000114500101B827000167
:1049500015500101B923000EBA23BB23FB0EDB5017
:10496000E1250001146EFC0EDB500101E221000183
:10497000156E01011450DB5D1550DC595BE2E1510D
:10498000DB5D146EDC51E255156E010E1426000E2F
:104990001522040E14C0DBFF050E15C0DBFF040E4C
:1049A000DBCFE6FF050EDBCFE6FFE66AE668E668EA
:1049B000F2C1E6FFE1C1E6FFE2C1E6FF8DEC29F0BE
:1049C000146E080EE15E1450FB0EDBCF16F0FC0EE9
:1049D000DBCF17F0040EDB50165C146E050EDB50B7
:1049E0001758156E14C0E6FFE66EE66AE668E668DC
:1049F000F2C1E6FFD9C1E6FFDAC1E6FF8DEC29F08E
:104A0000186E080EE15E1850FB0EDBCF16F0FC0EA0
:104A1000DBCF17F0040EDB50165C146E050EDB5076
:104A20001758156E0101D9511424E16FDA51152080
:104A3000E26F20D0FB0EDBCFE6FFFC0EDBCFE6FF04
:104A4000E66AE668E668F2C1E6FFE1C1E6FFE2C1B8
:104A5000E6FF8DEC29F0146E080EE15E1450FB0E9B
:104A6000DBCF08F0FC0EDBCF09F008500101E12795
:104A70000950E223D01D01E1D11D01E12AD2FB0E34
:104A8000DBCF08F0FC0EDBCF09F00850D05F0950F7
:104A9000D15BC451D025146EC551D121156E040EC1
:104AA00014C0DBFF050E15C0DBFF040EDBCF14F0D6
:104AB000050EDBCF15F00001800E151402E0010198
:104AC00037D00101D13504E2D0510008000ED15594
:104AD00001E2FFD1040EDBCF14F0050EDBCF15F0A1
:104AE000000114500101B827000115500101B9233C
:104AF000000EBA23BB23040EDBCF08F0050EDBCF7C
:104B000009F00850E1270950E223E151DB5DE25151
:104B1000DC590EE2D951DB5D146EDC51DA55156EAD
:104B2000010E1426000E15221450E15F1550E25BB1
:104B3000D069D169CED10A0EDBCF14F00B0EDBCFDA
:104B400015F0153401E3C5D114500008000E1554BA
:104B500001E3BFD10A0EDBCF16F00B0EDBCF17F04F
:104B6000FB0EDB501624146EFC0EDB501720156E66
:104B70000C0EDBCF18F00D0EDBCF19F01450185CC3
:104B80001550195814E20C0EDBCF16F00D0EDBCFCA
:104B900017F00A0EDB50165C146E0B0EDB50175824
:104BA000156EFB0E14C0DBFFFC0E15C0DBFFFD0E07
:104BB000DBCFE9FFFE0EDBCFEAFF0C0EE926000E8D
:104BC000EA22EF50F00BE842E842E842E842040DE6
:104BD000F350E66EE66A94EC54F0E552E5520A0EA4
:104BE000DB500101E1250001166E0B0EDB500101C7
:104BF000E2210001176EFB0EDB501624146EFC0E32
:104C0000DB501720156E01011450DB5D1550DC5987
:104C100001E390D0E151DB5D166EDC51E255176E79
:104C2000010E1626000E17220A0EDB50165C146EBB
:104C30000B0EDB501758156E040E14C0DBFF050E6B
:104C400015C0DBFF040E050EDBCF15F00001800E52
:104C500015143FE1040EDBCFE6FF050EDBCFE6FFC8
:104C6000E66AE668E668F2C1E6FF0A0EDB5001017B
:104C7000E1250001146E0B0EDB500101E221000161
:104C8000156E14C0E6FFE66E48DB166E080EE15E98
:104C90001650FB0EDBCF16F0FC0EDBCF17F0040E28
:104CA000DB50165C146E050EDB501758156E14C0E1
:104CB000E6FFE66EE66AE668E668F2C1E6FFD9C19D
:104CC000E6FFDAC1E6FF29DB186E080EE15E185038
:104CD0004FD0FB0EDBCFE6FFFC0EDBCFE6FFE66A34
:104CE000E668E668F2C1E6FF0A0EDB500101E12545
:104CF0000001166E0B0EDB500101E2210001176E60
:104D00000101D951DB5D186EDC51DA55196E010EC7
:104D10001826000E19221850165C146E19501758D8
:104D2000156E14C0E6FFE66EF8DA1A6E080EE15E44
:104D30001A501ED0FB0EDBCFE6FFFC0EDBCFE6FFEA
:104D4000E66AE668E668F2C1E6FF0A0EDB50E12596
:104D50000001146E0B0EDB500101E2210001156E03
:104D600014C0E6FFE66ED9DA166E080EE15E165044
:104D70000101D01D0FE1D11D0DE10A0EDBCFD0F1F5
:104D80000B0EDBCFD1F1FB0EDBCFC4F1FC0EDBCF82
:104D9000C5F19FD00A0EDBCF14F00B0EDBCF15F060
:104DA000D051145CD15115584CE2FB0EDBCF16F0FC
:104DB000FC0EDBCF17F00A0EDB501624146E0B0E20
:104DC000DB501720156ED051C425186ED151C52166
:104DD000196E1450185C1550195813E3FB0EDBCFF5
:104DE0001CF0FC0EDBCF1DF00A0EDB501C241A6EEB
:104DF0000B0EDB501D201B6ED0511A5CD1511B587D
:104E000007E2FB0EDBCFC4F1FC0EDBCFC5F112D005
:104E1000D051C425146ED151C521156E0A0EDB5038
:104E20000001145C0101C46F0B0EDB50000115582A
:104E30000101C56F0A0EDBCFD0F10B0EDBCFD1F134
:104E400048D0FB0EDBCF16F0FC0EDBCF17F00A0EBE
:104E5000DB501624146E0B0EDB501720156ED0514C
:104E6000C425186ED151C521196E1450185C155007
:104E700019582FE20A0EDBCF14F00B0EDBCF15F022
:104E8000D051C425166ED151C521176E1450165C31
:104E9000155017581EE3FB0EDBCF1AF0FC0EDBCFCC
:104EA0001BF00A0EDB501A24186E0B0EDB501B2071
:104EB000196ED051185C166ED1511958176EC45125
:104EC000165C146EC5511758156E1450C427155032
:104ED000C523D950170FE96EDACFEAFFEE50ED1077
:104EE00023E0070EED5D04E0E1C1E3F1E2C1E4F18E
:104EF000EEAF0BD0010EE66E100EE66EDDEC15F097
:104F0000E552E5528DEC00F00FD0EE8FEEBD0CD0E7
:104F1000EE8DE3EC58F006C0EBF107C0ECF1060EA5
:104F20000101EB27000EEC230E0EDBA079D0B8C1F7
:104F300014F0B9C115F0BAC116F0BBC117F0142AAC
:104F4000000E152216221722170EDBCF18F0180EAE
:104F5000DBCF19F01A6A1B6AD950130FE96EDACF4A
:104F6000EAFFEE501826EE501922EE501A22EE50AB
:104F70001B221450181854E11550191851E11650FD
:104F80001A184EE117501B184BE14AE10101B82BEA
:104F9000000EB923BA23BB23ED51090A2FE0010A01
:104FA00018E00F0A08E0010A33E10C0EED6F010E64
:104FB000E66E110E30D00B0EED6FE3EC58F006C02C
:104FC000EBF107C0ECF10C0E0101EB27000EEC2316
:104FD0001FD0D9500F0FE96EDACFEAFFB451EE18A7
:104FE0000AE1B551EE1807E1B651EE1804E1B751E8
:104FF000EE1801E103E00A0EED6F0AD0E66A100E2A
:10500000E66EDDEC15F0E552E552B8EC1DF008D087
:10501000010EE66E100EE66EDDEC15F0E552E5527F
:105020001C0EE15C02E2E16AE552E16EE552E7CF77
:10503000D9FF1200D9CFE6FFE1CFD9FF060EE12656
:10504000FE0EDBCFE6FF40EC00F0E552D950FC0F3E
:10505000E96EFF0EDA20EA6EEE50ED1007E1010E68
:10506000F36EFC0EF3CFDBFFFD0EDB6A0101D751BF
:10507000DB5D146EDC51D855156E1406000E155A02
:1050800014C0DEFF15C0DDFFFA0EDBCF16F0FB0EFD
:10509000DBCF17F0FC0EDB501624146EFD0EDB5038
:1050A0001720156EDECF18F0DDCF19F01450185C04
:1050B0001550195801E2C0D08DEC00F0F90EDB500C
:1050C000030B03E1F90EDB80DB82FA0EDBCF08F085
:1050D000FB0EDBCF09F0040E08C0DBFF050E09C094
:1050E000DBFFFA0EDBCF16F0FB0EDBCF17F0FC0E6A
:1050F000DB501624146EFD0EDB501720156ED9CF31
:10510000E9FFDACFEAFF1450EE5E1550ED5AF90EC2
:10511000DBA217D0DBA008D0DECF14F0DDCF15F076
:10512000D8901532143204D0DECF14F0DDCF15F054
:10513000D950040FE96EDACFEAFF1450EE2615506D
:10514000ED22040EDB500101D7250001146E050E7F
:10515000DB500101D8210001156E010E1426000E4E
:10516000152214C0DEFF15C0DDFF020EE1C1DBFF1A
:10517000030EE2C1DBFF0101D01D01E1D11D2DE0D5
:10518000D051C425146ED151C521156ED950020FCE
:10519000E96EDACFEAFF1450EE261550ED22020E2A
:1051A000DBCF14F0030EDBCF15F01450DB5D155090
:1051B000DC5913E2D951DB5D146EDC51DA55156E02
:1051C000010E1426000E1522D950020FE96EDACF17
:1051D000EAFF1450EE5E1550ED5A020EDBCF14F0CC
:1051E000030EDBCF15F01450E35D1550E4590DE2CA
:1051F000DECF14F0DDCF15F01450E35D1550E45907
:1052000025E2F90EDBB418D019D0020EDBCF14F072
:10521000030EDBCF15F0E351145CE45115580EE298
:10522000DECF14F0DDCF15F01450D95D1550DA59EA
:105230000DE2F90EDBA402D0000E63D0DECFE3F165
:10524000DDCFE4F1DECFE1F1DDCFE2F1020EDBCF25
:1052500014F0030EDBCF15F0E351145CE451155844
:1052600034E2F90EDB50040B30E0020EDBCF08F025
:10527000030EDBCF09F0D951085C146EDA510958DE
:10528000156E14C0E6FFE66EF2C1E6FFD9C1E6FF77
:10529000DAC1E6FFF2C1E6FFDECFE6FFDDCFE6FFD3
:1052A0003CD8166E080EE15E16500101E351E15D37
:1052B000E451E2590AE2DE50D95D146EDD50DA594C
:1052C000156E1450E15F1550E25BDECFD9F1DDCFF2
:1052D000DAF1D7C1BCF1D8C1BDF1D7C1DFF1D8C176
:1052E000E0F1D7C1DDF1D8C1DEF1070EED5D08E1D7
:1052F000010EE66E100EE66EDDEC15F0E552E5529D
:10530000010E146E060EE15C02E2E16AE552E16E06
:105310001450E552E7CFD9FF1200D9CFE6FFE1CF15
:10532000D9FFF90EDB5047E0010A01E08ED0FC0EF8
:10533000DB501CE0010A01E088D0F70EDBCFE6FF6E
:10534000F80EDBCFE6FFFA0EDBCFE6FFFB0EDBCF7E
:10535000E6FFFD0EDBCFE6FFFE0EDBCFE6FF0EEC39
:1053600058F0146E060EE15E14506FD0D950FD0F48
:10537000E96EFF0EDA20EA6EFF0EEE1802E1FF0E74
:10538000ED180AE0FD0EDBCFE6FFFE0EDBCFE6FFF9
:105390000CEC30F0E552E552F70EDBCFE6FFF80EED
:1053A000DBCFE6FFFA0EDBCFE6FFFB0EDBCFE6FF3F
:1053B00091EC34F029D0FC0EDB502BE0010A45E1E2
:1053C000D950FA0FE96EFF0EDA20EA6EFF0EEE18E2
:1053D00002E1FF0EED180AE0FA0EDBCFE6FFFB0E4E
:1053E000DBCFE6FF45EC30F0E552E552F70EDBCFC0
:1053F000E6FFF80EDBCFE6FFFD0EDBCFE6FFFE0E8D
:10540000DBCFE6FF0DEC34F0E552E552E552E55214
:105410001CD0F70EDBCFE6FFF80EDBCFE6FFFA0E6F
:10542000DBCFE6FFFB0EDBCFE6FFFD0EDBCFE6FFBB
:10543000FE0EDBCFE6FF11EC32F0146E060EE15EDD
:105440001450E8EC33F00009FCE0E552E7CFD9FF57
:105450001200D9CFE6FFE1CFD9FF120EE126FC0EF4
:10546000DB5023E0010A01E0AFD0F80EDBCFE6FF0E
:10547000F90EDBCFE6FFFA0EDBCF14F0FB0EDBCF2D
:1054800015F0166A14C0E6FF15C0E6FF16C0E6FF69
:10549000FD0EDBCFE6FFFE0EDBCFE6FF39EC58F06A
:1054A000176E070EE15E17508FD0D950FD0FE96ED1
:1054B000FF0EDA20EA6EFF0EEE1802E1FF0EED1885
:1054C0000AE0FD0EDBCFE6FFFE0EDBCFE6FF0CECC5
:1054D00030F0E552E552100EF36EDB6E110EDB6A12
:1054E000D950F80FE96EFF0EDA20EA6EEE50ED109B
:1054F0006BE0100EDBCF14F0110EDBCF15F0F80EC1
:10550000DBCF16F0F90EDBCF17F01450165C1550F8
:1055100017580CE2F80EDBCF08F0F90EDBCF09F0DC
:10552000100E08C0DBFF110E09C0DBFF100EDBCF31
:10553000E6FF110EDBCFE6FFFA0EDBCF14F0FB0E19
:10554000DBCF15F0166A14C0E6FF15C0E6FF16C0E3
:10555000E6FFD9CFE6FFDACFE6FF39EC58F0176E59
:10556000070EE15E1750100EDBCFE6FF110EDBCF0A
:10557000E6FFD9CFE6FFDACFE6FF91EC34F0E55253
:10558000E552E552E552100EDBCF14F0110EDBCFE1
:1055900015F0D950FA0FE96EFF0EDA20EA6E1450BA
:1055A000EE261550ED22100EDBCF14F0110EDBCFDE
:1055B00015F0D950F80FE96EFF0EDA20EA6E14509C
:1055C000EE5E1550ED5A8CD7120EE15C02E2E16AF4
:0C55D000E552E16EE552E7CFD9FF120072
:0455DC00D9CFE6FF3E
:1055E000E1CFD9FFE652898A929A9496949A948848
:1055F0009E96200EC66EC78CC79EF6EC34F01D0E2C
:10560000E66E46EC35F0E552146EDF6E080EDF14E0
:10561000F4E1DF1C010BF1E10201010E4F6F4B6B56
:105620004C6BE66A080EE66EE2EC35F0E552E552A8
:10563000E66A090EE66EE2EC35F0E552E552F30E4D
:10564000E66E0C0EE66EE2EC35F0E552E552160E13
:10565000E66E0D0EE66EE2EC35F0E552E552F30E25
:10566000E66E0A0EE66EE2EC35F0E552E552160EF5
:10567000E66E0B0EE66EE2EC35F0E552E552F40E06
:10568000E66E040EE66EE2EC35F0E552E552160EDB
:10569000E66E050EE66EE2EC35F0E552E552F40EEC
:1056A000E66E020EE66EE2EC35F0E552E552160EBD
:1056B000E66E030EE66EE2EC35F0E552E552E66A80
:1056C00075EC34F0E552E66A020EE66E78EC36F0E0
:1056D000E552E5520D0EE66EE66AE2EC35F0E55273
:1056E000E552320EE66E020EE66EE2EC35F0E55261
:1056F000E552120EE66E040EE66EE2EC35F0E5526F
:10570000E552400EE66E030EE66EE2EC35F0E55231
:10571000E5523F0EE66E090EE66EE2EC35F0E5521C
:10572000E552120EE66E060EE66EE2EC35F0E5523C
:10573000E5520C0EE66E070EE66EE2EC35F0E55231
:10574000E552EE0EE66E0A0EE66EE2EC35F0E5523C
:10575000E552050EE66E0B0EE66EE2EC35F0E55214
:10576000E552040EE66E030EE66E78EC36F0E55276
:10577000E552B4C0E6FF040EE66EE2EC35F0E55209
:10578000E552B5C0E6FF050EE66EE2EC35F0E552F7
:10579000E552B6C0E6FF020EE66EE2EC35F0E552E9
:1057A000E552B7C0E6FF030EE66EE2EC35F0E552D7
:1057B000E552B8C0E6FFE66AE2EC35F0E552E552A4
:1057C000B9C0E6FF010EE66EE2EC35F0E552E552B7
:1057D000E66A150EE66EE2EC35F0E552E552120E81
:1057E000E66E46EC35F0E552146EE8CF50F2E66A0C
:1057F000010EE66E100EE66E3CEC36F0E552E55218
:10580000E552720EE66E340EE66E140EE66E3CEC59
:1058100036F0E552E552E552000EE66EE66AE66ABB
:105820003CEC36F0E552E552E552000EE66EE66AD3
:1058300078EC36F0E552E552040EE66E1F0EE66E89
:105840001EEC36F0E552E552E552E552E7CFD9FFBE
:105850001200010EE66E84EC35F0E552F350040BB5
:1058600001E0010E12001F0EE66E46EC35F0E55227
:10587000E850080B080A01E0010E1200D9CFE6FF3C
:10588000E1CFD9FF020EE12602014F513AE1010EAC
:105890004F6F4BC214F04CC215F01406000E155A8F
:1058A00014C0DEFF15C0DDFFDECF14F0DDCF15F034
:1058B000166A176AD880F30E1454160E1554000E8B
:1058C0001654000E175404E2F30EDE6E160EDD6E53
:1058D000400EE66E1E0EE66E1EEC36F0E552E55208
:1058E000DFCFE6FF0C0EE66EE2EC35F0E552E55256
:1058F000010EDBCFE6FF0D0EE66EE2EC35F0E55271
:10590000E552020EE15C02E2E16AE552E16EE55227
:10591000E7CFD9FF1200D9CFE6FFE1CFD9FF040EC0
:10592000E126190EE66E010EE66E78EC36F0E552D1
:10593000E552190EE66E46EC35F0E552146EDF6E58
:105940000E0EE66EE66A78EC36F0E552E5520E0E83
:10595000E66E46EC35F0E552146E020E14C0DBFF25
:105960000F0EE66E46EC35F0E552146E030E14C0D1
:10597000DBFF190EE66E010EE66E78EC36F0E552AE
:10598000E552190EE66E46EC35F0E552146EDF5026
:105990000001145CCEE10C0EE66EE66A78EC36F09F
:1059A000E552E5520C0EE66E46EC35F0E552146E0B
:1059B000DF6E0D0EE66E46EC35F0E552146E010E0C
:1059C00014C0DBFF020EDBCF14F0030EDBCF15F0AB
:1059D000DECF16F0DDCF17F01450165C15501758B7
:1059E00021E2F30E186E160E196E1A6A1B6A020E69
:1059F000DBCF20F0030EDBCF21F0DE50205C1C6EED
:105A0000DD5021581D6E1E6A1F6A1C50185C146EF2
:105A10001D501958156E1E501A58166E1F501B58DF
:105A2000176E21D0020EDBCF14F0030EDBCF15F082
:105A3000DF50141809E1DE52DD50151805E1F30EB0
:105A4000F36E160EF46E13D0DECF16F0DDCF17F026
:105A5000020EDB50165C146E030EDB501758156EE9
:105A60001406000E155A14C0F3FF15C0F4FF040EFF
:105A7000E15C02E2E16AE552E16EE552E7CFD9FF6F
:105A80001200D9CFE6FFE1CFD9FF150EE126190E9E
:105A9000E66E010EE66E78EC36F0E552E552190E30
:105AA000E66E46EC35F0E552146E140E14C0DBFFC2
:105AB000000EE66EE66A78EC36F0E552E552140E1A
