:020000040000FA
:060000007BEF05F0120089
:020006000000F8
:06000800D0EF02F012002F
:02000E001200DE
:06001800FCEF02F01200F3
:02001E008F0E43
:10002000D3147009D36E0F01386B396B3A6B3B6B8D
:100030003C6B3B8994949398829C8198D5EC03F017
:1000400089EC05F0ADEC01F07AEF02F0D9CFE6FFD4
:10005000E1CFD9FFE652DF6ADFCF00F0090EE76E8D
:100060000018E8AE02D0003403D0E750D880005426
:100070000CE3DFCFE9FFEA6AE9BEEA680A0EE92687
:100080000F0EEA22EF6ADF2AE7D7DF6A0F010A695B
:10009000060E0B6F120E0C6FFE0EDBCF0DFF040E63
:1000A000E66E0E0EE66E0F0EE66E0A0EE66E0F0E92
:1000B000E66EA4D8006E050EE15E00500ECFDFFFA5
:1000C0000FCF0EFFDFCF0FFFDF6ADFCFE9FFEA6A56
:1000D000E9BEEA680A0EE9260F0EEA22EF50736EB7
:1000E000DF2ADFCF00F0050EE76E0018E8AE02D081
:1000F000003403D0E750D880005409E372A2FED741
:10010000DFCFE9FFEA6AE9AEE5D7EA68E3D7E5526F
:10011000E552E7CFD9FF1200D9CFE6FFE1CFD9FFF3
:10012000E652DF6ADFCF00F0090EE76E0018E8AE96
:1001300002D0003403D0E750D88000540CE3DFCF66
:10014000E9FFEA6AE9BEEA680A0EE9260F0EEA222A
:10015000EF6ADF2AE7D7DF6A0F010A690A0E0B6F21
:10016000100E0C6FFD0EDBCF0DFFFC0EDBCF0EFF74
:10017000FB0EDBCF0FFFFA0EDBCF10FFFE0EDBCF47
:1001800011FF080EE66E120EE66E0F0EE66E0A0EF8
:10019000E66E0F0EE66E32D8006E050EE15E005080
:1001A00012CFDFFF13CF12FFDFCF13FFDF6ADFCFE6
:1001B000E9FFEA6AE9BEEA680A0EE9260F0EEA22BA
:1001C000EF50736EDF2ADFCF00F0090EE76E0018E4
:1001D000E8AE02D0003403D0E750D880005409E3E1
:1001E00072A2FED7DFCFE9FFEA6AE9AEE5D7EA6897
:1001F000E3D7E552E552E7CFD9FF1200D9CFE6FFAA
:10020000E1CFD9FF060EE126FB0EDBCFE9FFFC0EA6
:10021000DBCFEAFFEE6AED6A010EF36E020EF3CF5A
:10022000DBFF030EDB6A020EDBCF00F0030EDBCF39
:1002300001F0FA0EDB50026E036A03500118E8AEBB
:1002400002D0013404D00050025C0150035801E296
:100250007AD0FB0EDBCFE9FFFC0EDBCFEAFFEECF5F
:1002600002F0EFCF03F003C002F0036AFD0EDBCF14
:10027000E9FFFE0EDBCFEAFFEF500218016E006AC5
:10028000040E00C0DBFF050E01C0DBFFDE6ADD6A85
:10029000DECF00F0DDCF01F0D890015004E6080E6B
:1002A000005C000E015826E2050EDB50800B0EE0CC
:1002B000040EDBCF00F0050EDBCF01F0D890003646
:1002C0000136210E001A100E011A09D0040EDBCFE0
:1002D00000F0050EDBCF01F0D89000360136040E99
:1002E00000C0DBFF050E01C0DBFFDF2A010ED0E3FB
:1002F000DB2ACED7FB0EDBCFE9FFFC0EDBCFEAFF1C
:10030000EECF02F002C003F0026A040EDB500218C6
:10031000006E050EDB500318016EFB0EDBCFE9FF0C
:10032000FC0EDBCFEAFF00C0EEFF01C0EDFF020EC6
:10033000DB2A030E01E3DB2AFD0EDB2AFE0E01E2BF
:1003400072D7DB2A70D7060EE15C02E2E16AE55261
:0A035000E16EE552E7CFD9FF12007D
:06035A00D9CFE6FFE1CF60
:10036000D9FFE652DF6A0A0EDF5C18E2EA6ADF3480
:10037000FE0BEA36E96E600EE926000EEA22EE6A0E
:10038000ED6AEA6ADF34FE0BEA36E96E740EE9269E
:10039000000EEA22EE6AED6ADF2AE5D7E552E55261
:1003A000E7CFD9FF1200D9CFE6FFE1CFD9FF020E88
:1003B000E126010EDE6EDD6ADECFE9FFDDCFEAFF6A
:1003C000D890E936EA36E806FBE1600EE926000E31
:1003D000EA22EE50ED100EE0DECF00F0DDCF01F0AE
:1003E0000A0E005C000E015805E2DF2A010EE4E36C
:1003F000DB2AE2D7DECF00F0DDCF01F00A0E005C91
:10040000000E01583AE2DECFE9FFDDCFEAFF010E30
:10041000D890E936EA36E806FBE1600EE926000EE0
:10042000EA22FD0EDBCFEEFFFE0EDBCFEDFFDECFCF
:10043000E9FFDDCFEAFF010ED890E936EA36E8069B
:10044000FBE1740EE926000EEA22FB0EDBCFEEFF85
:10045000FC0EDBCFEDFFDECFE9FFDDCFEAFF010EC3
:10046000D890E936EA36E806FBE1880EE926000E68
:10047000EA22EE6AED6ADF5001D0FF0E006E020E36
:10048000E15C02E2E16AE552E16E0050E552E7CF3D
:10049000D9FF1200D9CFE6FFE1CFD9FF000EF36EEE
:1004A000FE0EDBCFF4FFF350F45C20E30A0EF36E94
:1004B000FE0EDBCFF4FFF350F45C18E2FE0EEA6AA6
:1004C000DB34FE0BEA36E96E600EE926000EEA2206
:1004D000EE6AED6AFE0EEA6ADB34FE0BEA36E96E7E
:1004E000740EE926000EEA22EE6AED6AE552E7CFC5
:1004F000D9FF1200D9CFE6FFE1CFD9FFE65255EC84
:1005000005F0DF6A0A0EDF5CFCE2EA6ADF34FE0B0C
:10051000EA36E96E600EE926000EEA22EE50ED1092
:100520003DE0EA6ADF34FE0BEA36E96E880EE92622
:10053000000EEA22EECF00F0EFCF01F0EA6ADF34DE
:10054000FE0BEA36E96E740EE926000EEA22EECFC3
:1005500002F0EFCF03F00250005C035001581EE39D
:10056000EA6ADF34FE0BEA36E96E880EE926000EF1
:10057000EA22EE6AED6AEA6ADF34FE0BEA36E96ED9
:10058000600EE926000EEA22EECF00F0EFCF01F078
:1005900004D001C0FAFF0050F96EFBDFDF2AB2D7AA
:1005A000DACFE4FFE2CFDAFFE9CFE4FFEACFE4FFFE
:1005B000E652D9CFE6FFE1CFD9FFE652DF6A0A0E55
:1005C000DF5C0EE2EA6ADF34FE0BEA36E96E880E83
:1005D000E926000EEA22EE2A000EEF22DF2AEFD7EC
:1005E000E552E552E7CFD9FFE552E5CFEAFFE5CF87
:1005F000E9FFE5CFDAFF1100DACFE4FFE652E5527A
:06060000E5CFDAFF110056
:0A060600D9CFE6FFE1CFD9FFF00ED7
:10061000831695169292959A929489928C9A8994BF
:10062000C9EC03F0300EE66E94EC04F0E552050ED2
:10063000E66E3EEC05F0E552300EE66E94EC04F00A
:10064000E552010EE66E3EEC05F0E552320EE66E26
:1006500094EC04F0E55223EC05F00009FCE123ECF6
:1006600005F00009FCE1FE0EDBCFE6FF94EC04F0A0
:10067000E55223EC05F00009FCE1080EE66E94EC6F
:1006800004F0E55223EC05F00009FCE10F0EE66EE4
:1006900094EC04F0E55223EC05F00009FCE1010EB6
:1006A000E66E94EC04F0E55223EC05F00009FCE161
:1006B000060EE66E94EC04F0E55223EC05F000091A
:1006C000FCE1E66AF7EC03F0E552E552E7CFD9FF2B
:0206D000120016
:0E06D200060EF66E000EF76E000EF86E0F01AB
:1006E0000900F550056F0900F550066F03E1056735
:1006F00001D03DD00900F550006F0900F550016FA1
:100700000900F550026F09000900F550E96E090073
:10071000F550EA6E090009000900F550036F090061
:10072000F550046F09000900F6CF07FFF7CF08FF67
:10073000F8CF09FF00CFF6FF01CFF7FF02CFF8FF98
:100740000F01035302E1045307E00900F550EE6E78
:100750000307F8E20407F9D707CFF6FF08CFF7FF42
:1007600009CFF8FF0F010507000E065BBFD7120087
:100770000000000000000000000000000000000079
:100780000000000000000000000000000000000069
:100790001200060EE66E3EEC05F0E5521200020E67
:1007A000E66E3EEC05F0E552120095909592959418
:1007B000959692929294959A280EE66E03EC03F029
:1007C000E55223EC05F00009FCE1240EE66E0B0E69
:1007D000E66E47EC04F0E552E55223EC05F0000923
:0E07E000FCE1400EE66EF7EC03F0E55212006D
:0207EE00D9CF61
:1007F000E6FFE1CFD9FFF00E95168316FE0EDB5013
:100800008009E8380F0B0F0B831289928C9AB8EC91
:1008100003F08984B8EC03F08994F00E8316FE0E81
:10082000DB500F0B8312B8EC03F08984B8EC03F0B3
:0E08300089940F0E9512E552E7CFD9FF120002
:02083E00D9CF10
:10084000E6FFE1CFD9FFF00E95168316FE0EDB50C2
:100850004009E8380F0B0F0B831289928C9AB8EC81
:1008600003F08984B8EC03F08994F00E8316FE0E31
:10087000DB500F0B8312B8EC03F08984B8EC03F063
:0E08800089940F0E9512E552E7CFD9FF1200B2
:02088E00D9CFC0
:10089000E6FFE1CFD9FFFD0EDBCFF6FFFE0EDBCF8B
:1008A000F7FF0800F55016E023EC05F00009FCE125
:1008B000FD0EDBCFF6FFFE0EDBCFF7FF0800F55095
:1008C000E66E6EEC04F0E552FD0EDB2AFE0EE3E36D
:0C08D000DB2AE1D7E552E7CFD9FF120088
:0408DC00D9CFE6FF8B
:1008E000E1CFD9FFF00E95168316FE0EDB380F0B05
:1008F0000F0B83128C8A8992B8EC03F08984B8ECD0
:1009000003F08994F00E8316FE0EDB500F0B83125A
:10091000B8EC03F08984B8EC03F089940F0E9512BB
:08092000E552E7CFD9FF1200F8
:08092800D9CFE6FFE1CFD9FFB2
:10093000F00E95168316FE0EDB380F0B0F0B83128D
:1009400089928C9AB8EC03F08984B8EC03F089940E
:10095000F00E8316FE0EDB500F0B8312B8EC03F083
:100960008984B8EC03F089940F0E9512E552E7CF15
:04097000D9FF120099
:0C097400D9CFE6FFE1CFD9FFFD0EDBCFAD
:10098000E9FFFE0EDBCFEAFFEF5015E023EC05F0A8
:100990000009FCE1FD0EDBCFE9FFFE0EDBCFEAFF35
:1009A000EF50E66E6EEC04F0E552FD0EDB2AFE0E13
:0E09B000E5E3DB2AE3D7E552E7CFD9FF1200DB
:0209BE00D9CF8F
:1009C000E6FFE1CFD9FFE65289828C8AB8EC03F0CA
:1009D0008984B8EC03F08338F00BF00BDF6E899458
:1009E000B8EC03F08984B8EC03F00F0E8314DF1227
:1009F00089948C9A8992DF50E552E552E7CFD9FF6E
:020A00001200E2
:0E0A0200D9CFE6FFE1CFD9FFE65289828C9A68
:100A1000B8EC03F08984B8EC03F08338F00BF00BEA
:100A2000DF6E8994B8EC03F08984B8EC03F00F0E04
:100A30008314DF12899489927F0EDF14E552E55208
:060A4000E7CFD9FF120010
:0A0A460089828C9AB8EC03F08984D1
:100A5000B8EC03F083A609D08994B8EC03F089843C
:100A6000B8EC03F089948992010C8994B8EC03F0F6
:0C0A70008984B8EC03F089948992000C92
:040A7C00FF0EE35036
:100A8000076EEF0E01D0F30EE76EE72E45EF05F08F
:100A90000C0E066EE76AE72E4BEF05F0062E4AEFC6
:0A0AA00005F0072E43EF05F01200E9
:060AAA00FE0ECF6E0B0EE4
:100AB000CE6E3F0ECD140009CD6ECF0ECD14300991
:100AC000CD6ECD84CC9E9E909F809D80F28ED08EE8
:060AD000F29CCD80120033
:0A0AD600380EF36E00EE00F00F0E74
:100AE00001D81200EA6002D0EE6AFCD7F350E96048
:060AF0001200EE6AFCD7C3
:0A0AF6001EEE00F02EEE00F0F86A8C
:100B0000059C69EC03F007EC00F00FEC00F0FBD75C
:020B10001200D1
:0E0B120096809682968494809482F288F29265
:040B2000F19C120032
:0B0B240048656C6C6F20776F726400F6
:020000040030CA
:0100010008F6
:0100020018E5
:010003003CC0
:01000500BF3B
:010006008178
:00000001FF
