:020000040000FA
:0600000009EF0CF01200F4
:020006001200E6
:0600080032EF0AF01200C5
:01000E0030C1
:0600180031EF0AF01200B6
:02001E000100DF
:0C0020000E000000170F0000010000009F
:04002C00D9CFE6FF43
:10003000E1CFD9FF150EE126F90EDBCF08F0FA0E5D
:10004000DBCF09F00E0E08C0DBFF0F0E09C0DBFF8F
:10005000F80EDB28146E156A14BE1568060E14C05F
:10006000DBFF070E15C0DBFFF80EDBCF14F01434F6
:1000700007E3070EF36E060EF3CFDBFF070EDB6A16
:10008000F80EDBCF14F0160EE76E1418E8AE02D0AF
:10009000143403D0E750D880145407E2170EF36EDF
:1000A000060EF3CFDBFF070EDB6A080EDB6A090ED4
:1000B000DB6AF70EDB50660804E0F70EDB504608FB
:1000C00007E1010EF36E080EF3CFDBFF090EDB6ACA
:1000D000F70EDB50670804E0F70EDB50470807E136
:1000E000020EF36E080EF3CFDBFF090EDB6ADE6A49
:1000F000DD6AFB0EDBCF14F0FC0EDBCF15F0FD0E3E
:10010000DBCF16F0FE0EDBCF17F00C6A0D6A0E6A1D
:100110000F6A14C007F015C008F016C009F017C028
:100120000AF0A1EC06F0010A33E1F90EDBCFE9FF9A
:10013000DB2AFA0EDBCFEAFF01E3DB2A2D0EEF6E9E
:10014000FB0EDBCF14F0FC0EDBCF15F0FD0EDBCF8A
:1001500016F0FE0EDBCF17F00C6A0D6A800E0E6EE5
:10016000BF0E0F6E14C007F015C008F016C009F0DE
:1001700017C00AF0ABEC05F0FB0E07C0DBFFFC0E6E
:1001800008C0DBFFFD0E09C0DBFFFE0E0AC0DBFF6F
:10019000FB0EDBCF07F0FC0EDBCF08F0FD0EDBCF54
:1001A00009F0FE0EDBCF0AF00C6A0D6A0E6A0F6AC8
:1001B0009AEC06F0010A4BE0FB0EDBCF14F0FC0ECC
:1001C000DBCF15F0FD0EDBCF16F0FE0EDBCF17F008
:1001D0000C6A0D6A800E0E6E3F0E0F6E14C007F093
:1001E00015C008F016C009F017C00AF0A1EC06F01F
:1001F000010A2DE1FB0EDBCF14F0FC0EDBCF15F076
:10020000FD0EDBCF16F0FE0EDBCF17F00C6A0D6A89
:10021000200E0E6E410E0F6E14C007F015C008F0D0
:1002200016C009F017C00AF0ABEC05F0FB0E07C0D2
:10023000DBFFFC0E08C0DBFFFD0E09C0DBFFFE0E7E
:100240000AC0DBFFDF06010EB7E2DB06B5D7FB0E07
:10025000DBCF14F0FC0EDBCF15F0FD0EDBCF16F07C
:10026000FE0EDBCF17F00C6A0D6A200E0E6E410EEB
:100270000F6E14C007F015C008F016C009F017C0C3
:100280000AF0A1EC06F0010A2EE0FB0EDBCF14F021
:10029000FC0EDBCF15F0FD0EDBCF16F0FE0EDBCF34
:1002A00017F0CD0E0C6ECC0E0D6E0E6E3D0E0F6E59
:1002B00014C007F015C008F016C009F017C00AF006
:1002C000ABEC05F0FB0E07C0DBFFFC0E08C0DBFF4C
:1002D000FD0E09C0DBFFFE0E0AC0DBFFDF2A010EA8
:1002E000B6E3DB2AB4D7D950080FE96EDACFEAFFBC
:1002F000EE50ED1012E0060EDBCF16F0070EDBCF4E
:1003000017F0DE501624146EDD501720156E060E01
:1003100014C0DBFF070E15C0DBFFF80EDB5027E132
:10032000DECF14F0DDCF15F0060EDBCF16F0070E92
:10033000DBCF17F017501518E8AE02D0153404D0F3
:100340001450165C1550175812E2D950080FE96E78
:10035000DACFEAFFEE50ED100AE0D9CFE9FFDACFAD
:10036000EAFF060EEECFDBFF070EEDCFDBFF0A0E36
:10037000DB6A0B0EDB6A800EF36E0C0EF3CFDBFF35
:100380003F0EF36E0D0EF3CFDBFF010EF36E020E88
:10039000F3CFDBFF030EDB6A020EDBCF14F0030E9C
:1003A000DBCF15F0060EDBCF16F0070EDBCF17F014
:1003B00015501718E8AE02D0173404D01650145C4C
:1003C000175015582FE20A0EDBCF14F00B0EDBCFBF
:1003D00015F00C0EDBCF16F00D0EDBCF17F0CD0EA7
:1003E0000C6ECC0E0D6E0E6E3D0E0F6E14C007F02F
:1003F00015C008F016C009F017C00AF0ABEC05F004
:100400000A0E07C0DBFF0B0E08C0DBFF0C0E09C095
:10041000DBFF0D0E0AC0DBFF020EDB2A030EBCE37E
:10042000DB2ABAD7FB0EDBCF14F0FC0EDBCF15F0C6
:10043000FD0EDBCF16F0FE0EDBCF17F00A0EDBCF82
:100440001CF00B0EDBCF1DF00C0EDBCF1EF00D0EE3
:10045000DBCF1FF00C6A0D6A0E6A3F0E0F6E1CC0D8
:1004600007F01DC008F01EC009F01FC00AF0ABEC79
:1004700005F007C018F008C019F009C01AF00AC04A
:100480001BF007C00CF008C00DF009C00EF00AC048
:100490000FF014C007F015C008F016C009F017C01F
:1004A0000AF015EC05F0FB0E07C0DBFFFC0E08C0E0
:1004B000DBFFFD0E09C0DBFFFE0E0AC0DBFFFB0EFB
:1004C000DBCF14F0FC0EDBCF15F0FD0EDBCF16F00A
:1004D000FE0EDBCF17F00C6A0D6A200E0E6E410E79
:1004E0000F6E14C007F015C008F016C009F017C051
:1004F0000AF0A1EC06F0010A17E0FB0EDB6AFC0E25
:10050000DB6A800EF36EFD0EF3CFDBFF3F0EF36E62
:10051000FE0EF3CFDBFFDF2A010E01E3DB2A060E1E
:10052000DB2A070E01E3DB2AD950080FE96EDACF88
:10053000EAFFEE50ED1062E0DECF14F0DDCF15F0F3
:100540000001800E15145AE0F90EDBCFE9FFDB2A1B
:10055000FA0EDBCFEAFF01E3DB2A300EEF6EF80E76
:10056000DB500BE0F90EDBCFE9FFDB2AFA0EDBCF25
:10057000EAFF01E3DB2A2E0EEF6E060EDBCF14F04E
:10058000070EDBCF15F0800E15140EE0DECF16F04F
:10059000DDCF17F0060EDB50165C146E070EDB5035
:1005A000175814C0DEFFDD6E020EDB68030EDB6839
:1005B000020EDBCF14F0030EDBCF15F0DECF16F00A
:1005C000DDCF17F017501518E8AE02D0153404D05F
:1005D0001450165C1550175811E2F90EDBCFE9FFE5
:1005E000DB2AFA0EDBCFEAFF01E3DB2A300EEF6EE7
:1005F000020EDB06030EDCE2DB06DAD7020EDB6A54
:10060000030EDB6A020EDBCF14F0030EDBCF15F016
:10061000060EDBCF16F0070EDBCF17F015501718BC
:10062000E8AE02D0173404D01650145C1750155899
:1006300001E3FFD0FB0EDBCF07F0FC0EDBCF08F0B1
:10064000FD0EDBCF09F0FE0EDBCF0AF06BEC06F0FF
:10065000040E08C0DBFF050E09C0DBFF300EE76E9D
:10066000040EDBCF14F0050EDBCF15F0E750142697
:10067000000E1522F90EDBCFE9FFDB2AFA0EDBCFE5
:10068000EAFF01E3DB2A14C0EFFFD950080FE96E3F
:10069000DACFEAFFEE50ED1008E1D950020FE96E13
:1006A000DACFEAFFEE50ED1015E0D950080FE96EF1
:1006B000DACFEAFFEE50ED101BE0020EDBCF14F0B4
:1006C000030EDBCF15F0DF50141812E1DE52DD50BF
:1006D00015180EE1F80EDB500BE0F90EDBCFE9FF49
:1006E000DB2AFA0EDBCFEAFF01E3DB2A2E0EEF6EE8
:1006F000040EDBCF08F0050EDBCF09F001EC05F0AE
:10070000100E07C0DBFF110E08C0DBFF120E09C080
:10071000DBFF130E0AC0DBFF100EDBCF14F0110E4F
:10072000DBCF15F0120EDBCF16F0130EDBCF17F078
:100730000C6A0D6A200E0E6E410E0F6E14C007F08B
:1007400015C008F016C009F017C00AF0ABEC05F0B0
:10075000100E07C0DBFF110E08C0DBFF120E09C030
:10076000DBFF130E0AC0DBFFFB0EDBCF14F0FC0E29
:10077000DBCF15F0FD0EDBCF16F0FE0EDBCF17F052
:100780000C6A0D6A200E0E6E410E0F6E14C007F03B
:1007900015C008F016C009F017C00AF0ABEC05F060
:1007A000FB0E07C0DBFFFC0E08C0DBFFFD0E09C01F
:1007B000DBFFFE0E0AC0DBFFFB0EDBCF14F0FC0EEE
:1007C000DBCF15F0FD0EDBCF16F0FE0EDBCF17F002
:1007D000100EDBCF18F0110EDBCF19F0120EDBCFAD
:1007E0001AF0130EDBCF1BF018C00CF019C00DF07F
:1007F0001AC00EF01BC00FF014C007F015C008F0AF
:1008000016C009F017C00AF014EC05F0FB0E07C083
:10081000DBFFFC0E08C0DBFFFD0E09C0DBFFFE0E98
:100820000AC0DBFF020EDB2A030E01E2EBD6DB2A55
:10083000E9D6D950080FE96EDACFEAFFEE50ED1095
:1008400001E0B9D0D9CFE9FFDACFEAFFEE50ED10E1
:1008500001E1B1D0F90EDBCFE9FFDB2AFA0EDBCFE5
:10086000EAFF01E3DB2AF70EDBCFEFFFDECF14F068
:10087000DDCF15F00001800E151417E00868096837
:10088000DECF0DF0DDCF0EF03EEC06F006C0DEFF51
:1008900007C0DDFFF90EDBCFE9FFDB2AFA0EDBCF65
:1008A000EAFF01E3DB2A2D0EEF6EE80EF36E040E75
:1008B000F3CFDBFF030EF36E050EF3CFDBFF040E69
:1008C000DBCF14F0050EDBCF15F0DECF16F0DDCF59
:1008D00017F017501518E8AE02D0153404D0145094
:1008E000165C1550175816E20A0E146E156A040E9F
:1008F000DBCF08F0050EDBCF09F014C00DF015C0FA
:100900000EF018EC06F0040E08C0DBFF050E09C05F
:10091000DBFFD5D7040EDBCF14F0050EDBCF15F0CF
:10092000153449E214500008000E155444E2140E28
:10093000DB50300FE66EF90EDBCFE9FFDB2AFA0E53
:10094000DBCFEAFF01E3DB2AE552E750EF6EDECFB3
:1009500016F0DDCF17F0140EDBCF18F0196A18BEB1
:10096000196818C008F019C009F0040EDBCF0DF0AB
:10097000050EDBCF0EF03EEC06F00650165C146E52
:100980000750175814C0DEFFDD6E0A0E146E156A8C
:10099000040EDBCF08F0050EDBCF09F014C00DF01C
:1009A00015C00EF018EC06F0040E08C0DBFF050EB3
:1009B00009C0DBFFAFD7F90EDBCFE9FFDB2AFA0E68
:1009C000DBCFEAFF01E3DB2AEF6AF90EDBCF16F09B
:1009D000FA0EDBCF17F00E0EDB50165C146E0F0E06
:1009E000DB50175814C0F3FFF46E150EE15C02E201
:0E09F000E16AE552E16EE552E7CFD9FF120051
:0209FE00019E58
:100A000008D0019E09AE05D0086C091EE86A0922CB
:100A1000018E09C003F008C002F0136A126A8E0E3C
:100A2000046E056A1BEF07F00F7E016A57EC07F0B2
:100A30006FEC07F001B6FFEF06F001A20AD001AAA1
:100A400003D001BEFFEF06F001A40BEF07F008EFA3
:100A500007F001AA05D001AC0BEF07F008EF07F093
:100A600001A00AD001A808D001BE04D001A402D080
:100A700014EF07F018EF07F0126A056A0F500A5CCE
:100A8000116E10E307C013F008C002F009C003F0B4
:100A90000AC010F00CC007F00DC008F00EC009F03D
:100AA000013A09D00CC013F00DC002F00EC003F0E3
:100AB0000FC010F0116C019E01BC018E10C004F03B
:100AC00001B047EF07F01A0E116047EF07F0046A14
:100AD0000A6A01A408D0076C081E091E0A1EE86AEB
:100AE000082209220A2201AC08D0136C021E031E40
:100AF000041EE86A022203220422066A115207E059
:100B00000A340932083207320632112EF9D707505B
:100B1000132608500222095003220A50042206C05C
:100B200012F0019E04AE0BD0126C131E021E031EA7
:100B3000041EE86A1322022203220422018E04A06A
:100B400006D0D8800332023213321232102A10C07B
:100B500004F01BEF07F0016A57EC07F06FEC07F0A9
:100B600001B6FFEF06F001A205D001B8FFEF06F0D5
:100B700006EF07F001AA05D001B0FFEF06F006EF7F
:100B800007F001B002D001A802D012EF07F0056A09
:100B90000F500A24046EE86A05227E0E045EE86A9D
:100BA000055A126A136A026A036A0E500902F4CFE8
:100BB00003F0F3CF02F00D500902F3501326F45066
:100BC0000222000E03220E500802F3501326F450A6
:100BD0000222000E03220C500902F3501226F45098
:100BE0001322000E022203220D500802F350122697
:100BF000F4501322000E022203220E500702F3507B
:100C00001226F4501322000E022203220C50080276
:100C1000F4501226000E1322022203220D50070266
:100C2000F4501226000E1322022203221BEF07F0BB
:100C3000006A0EAE21EF06F00D6C0E1EE86A0E2261
:100C4000001E09AE29EF06F0086C091EE86A0922A9
:100C5000001EE3EC0BF009BE39EF06F000AE000C0D
:100C6000086C091EE86A0922046C051EE86A052260
:100C7000000C00BE30EF06F00188FF0C09C013F035
:100C800008C012F008500D02F4CF07F0F3CF06F0C1
:100C900009500E02F4CF09F0F3CF08F00D02F35023
:100CA0000726F4500822E86A092212500E02F35077
:100CB0000726F4500822E86A09220EAE64EF06F017
:100CC0001250085E1350095A13AE000C0D50085E06
:100CD0000E50095A000C016A57EC07F001B675EF87
:100CE00006F001A20ED001B405D07F0E096EFF0EF2
:100CF000086E1FD0800E096E086A1BD0096A086A48
:100D000018D001B0FBD78F0E0A60EDD77E0E0A64B3
:100D1000F5D78E0E0A5C05E0D890093208320A2A0F
:100D2000F8D701A406D0086C091EE86A092209AEAA
:100D3000E5D71200AAEC06F001B6000C01B0010CD8
:100D4000000CAAEC06F001B6000C01B0000C01A4E6
:100D5000000C010C016A57EC07F06FEC07F001B6CC
:100D6000120001AE08D001A004D001A802D0018079
:100D70001200019012000F500A5C0BE10E50095C4A
:100D800008E10D50085C05E10C50075C02E10180B0
:100D90001200D8A002D0018E10D00A500FC00AF065
:100DA0000F6E09500EC009F00E6E08500DC008F00D
:100DB0000D6E07500CC007F00C6E0F500A5C10E06F
:100DC000FF0F09E0019001B403D001AE01841200CD
:100DD00001AE019412000F2AD8900E320D320C325F
:100DE0000C50075E0D50085A0E50095A09BEEAD73A
:100DF000D8900736083609360A2EF8D7C8D77F0E9E
:100E00000A6EFF0E096E086E076E12007F0E01BE9D
:100E1000FF0E0A6E02D07F0E0A6E800E096E086AFF
:100E2000076AF3D701AE04D0800E0A6E096AF7D7BD
:100E30000A6A096AF4D70350021013101210F8E07E
:100E400005BEF0D703BE0CD004500510EBE0D890DF
:100E500012361336023603360406D8A00506F2D73A
:100E60000550D4E10428D2E012AE11D07F0E121446
:100E700002E113A00CD0132AE86A0222032207E33E
:100E8000D880033202321332042A0428BFE004500F
:100E9000C9E013C007F002C008F00334096E043043
:100EA0000A6E09320A9E01BE0A8E05EF07F0093666
:100EB0000A3602E30184017E06E101800A6A096ABA
:100EC000086A076A12000A2803E0D8800932120073
:100ED000D890093202E101821200018612000E361A
:100EE0000F3602E3018C017E06E101880F6A0E6A6B
:100EF0000D6A0C6A12000F2803E0D8800E3212002F
:0A0F0000D8900E32EAE1018A1200D7
:060F0A00D9CFE6FFE1CFA4
:100F1000D9FF020EE126939A819AC80EE66EE66A20
:100F200017EC0CF0E552E552938A280EE66E17ECAA
:100F30000CF0E5528150200B01E0010EDE6EDD6AFF
:100F4000A00EE66EE66A17EC0CF0E552E552DECF35
:100F500014F0DDCF15F014C0F3FF15C0F4FF020E3E
:100F6000E15C02E2E16AE552E16EE552E7CFD9FFCA
:100F70001200D9CFE6FFE1CFD9FF939A819AE150D1
:100F8000FD0FE96EFF0EDA20EA6EEE50ED1002E082
:100F9000040E01D0280EE66E17EC0CF0E552938A91
:100FA000D950FD0FE96EFF0EDA20EA6EEE50ED101B
:100FB00005E0180EE66E17EC0CF0E552040EE66E36
:100FC00017EC0CF0E552E552E7CFD9FF1200D9CF6C
:100FD000E6FFE1CFD9FF020EE126939A819A000045
:100FE000000000000000938A040EE66E17EC0CF07F
:100FF000E5528150200B01E0010EDE6EDD6A180E15
:10100000E66E17EC0CF0E552040EE66E17EC0CF0F1
:10101000E552DECF14F0DDCF15F014C0F3FF15C09C
:10102000F4FF00D0020EE15C02E2E16AE552E16EFB
:10103000E552E7CFD9FF1200D9CFE6FFE1CFD9FFC4
:10104000020EE126DE6ADD6ADECF14F0DDCF15F098
:10105000D890155004E6080E145C000E155824E2D2
:10106000010EE76EFD0EDBCF14F0FE0EE7501416F6
:10107000156A14C0E6FF15C0E6FF7BDFE552E552B6
:10108000D950FD0FE96EFF0EDA20EA6E010E0F0B4C
:1010900006E0EC52D890ED32EF32E806FAE1DF2AB2
:1010A000010ED2E3DB2AD0D7020EE15C02E2E16A54
:1010B000E552E16EE552E7CFD9FF1200D9CFE6FF46
:1010C000E1CFD9FF040EE126020EDB6A030EDB6AD4
:1010D000DE6ADD6ADECF14F0DDCF15F0D890155052
:1010E00004E6080E145C000E15581EE2D950020FDB
:1010F000E96EDACFEAFF010E0F0B06E0EC52D89052
:10110000ED32EF32E806FAE162DFF350F41007E067
:10111000D950020FE96EDACFEAFFEE8EED52DF2AE8
:10112000010ED8E3DB2AD6D7020EDBCF14F0030E74
:10113000DBCF15F014C0F3FF15C0F4FF040EE15C23
:1011400002E2E16AE552E16EE552E7CFD9FF120013
:10115000DCDECC0EE66EE66A6FDFE552E552440E49
:10116000E66EE66A69DFE552E5521200D9CFE6FF86
:10117000E1CFD9FF160EE126C8DECC0EE66EE66A98
:101180005BDFE552E552BE0EE66EE66A55DFE552DC
:10119000E5520A0EDB6A0B0EDB6A0A0EDBCF14F097
:1011A0000B0EDBCF15F0D890155004E6090E145C39
:1011B000000E155818E282DFF350E66ED9CF14F016
:1011C000DACF15F00A0EDB50D924E96E0B0EDB5096
:1011D000DA20EA6EE552E750EF6E0A0EDB2A0B0EBC
:1011E000DCE3DB2ADAD7010EDB50070BE66ED950C1
:1011F0000C0FE96EDACFEAFFE552E750EE6EED6ACA
:101200000C0EDBCF14F00D0EDBCF15F014C015F073
:10121000146A0C0E14C0DBFF0D0E15C0DBFFDF508F
:10122000E66ED9500E0FE96EDACFEAFFE552E750CD
:10123000EE6EED6A0E0EDBCF16F00F0EDBCF17F061
:101240000C0EDB501610146E0D0EDB501710156EC1
:10125000100E14C0DBFF110E15C0DBFF0C0EDB50AF
:10126000800B09E0D950100FE96EDACFEAFFEE6C7F
:10127000EF1E000EED22100EDBCF08F0110EDBCFBB
:1012800009F001EC05F007C014F008C015F009C022
:1012900016F00AC017F00C6A0D6A800E0E6E3D0E35
:1012A0000F6EABEC05F0120E07C0DBFF130E08C08B
:1012B000DBFF140E09C0DBFF150E0AC0DBFF120EA8
:1012C000DBCF14F0130EDBCF15F0140EDBCF16F0CE
:1012D000150EDBCF17F014C006F015C007F016C0CE
:1012E00008F017C009F0160EE15C02E2E16AE5526F
:0A12F000E16EE552E7CFD9FF1200CE
:0612FA008F0ED3147009F1
:10130000D36E0F01386B396B3A6B3B6B3C6B3B997F
:101310003A9D3A9F93829680968296849480948296
:1013200094949398948C948E95889380938A8294C5
:10133000F28EF28CD08E3F0ECD140009CD6ECF0E02
:10134000CD141009CD6ECD84CD80CC9E9D809E8025
:101350009F803C0ECF6EAF0ECE6EF28AF294F18477
:10136000D59CD59AD596F80ED5140509D56EDB0E09
:10137000D66ED58EF19CF288F292AC98AC94B89669
:10138000AC8AAC9C190EAF6EAB8EAB8880EC0BF0C8
:1013900022EC0CF0A8EC08F0C80EE66ECCEC0BF0DA
:1013A000E552C80EE66ECCEC0BF0E552B6EC08F058
:1013B00006C005FF07C006FF08C007FF09C008FFF9
:1013C000660EE66E020EE66E000EE66E0F0EE66E1E
:1013D00005CFE6FF06CFE6FF07CFE6FF08CFE6FF23
:1013E00016EC00F0146E080EE15E1450670E0F014B
:1013F000175D01E154D80F0109510A11F7E0096B9B
:101400000A6B0C35F3E20B510408000E0C55EEE2AA
:10141000A8EC08F0B6EC08F006C005FF07C006FF10
:1014200008C007FF09C008FFA8EC08F0660EE66ECA
:10143000020EE66E000EE66E0F0EE66E05CFE6FFBC
:1014400006CFE6FF07CFE6FF08CFE6FF16EC00F079
:10145000146E080EE15E145082940F010B6B0C6B3E
:10146000C5D71200DACFE4FFE6529EA00CD0010EE1
:101470000F01096F0A6B3C0ECF6EAF0ECE6E0B2BB9
:10148000000E0C239E90F2A406D00F01670E176F7A
:10149000DB0ED66EF294E552E5CFDAFF110000CFF5
:1014A000E6FF19D8E55201CFE6FF15D8E55202CF85
:1014B000E6FF11D8E55203CFE6FF0DD8E55204CF81
:1014C000E6FF09D8E5520A0EE66E05D8E5520F018F
:1014D0006E0E176F1200D9CFE6FFE1CFD9FFACA295
:1014E000FED7FE0EDB50AD6EE552E7CFD9FF1200FE
:1014F0001E0EF66E000EF76E000EF86E0F0109005C
:10150000F550126F0900F550136F03E1126701D017
:101510003DD00900F5500D6F0900F5500E6F090020
:10152000F5500F6F09000900F550E96E0900F550FC
:10153000EA6E090009000900F550106F0900F55026
:10154000116F09000900F6CF14FFF7CF15FFF8CF90
:1015500016FF0DCFF6FF0ECFF7FF0FCFF8FF0F01ED
:10156000105302E1115307E00900F550EE6E100729
:10157000F8E21107F9D714CFF6FF15CFF7FF16CF12
:0E158000F8FF0F011207000E135BBFD7120019
:02158E00D9CFB3
:10159000E6FFE1CFD9FFF00E95168316FE0EDB5065
:1015A0008009E8380F0B0F0B831289928C9A63EC39
:1015B0000BF0898463EC0BF08994F00E8316FE0E19
:1015C000DB500F0B831263EC0BF0898463EC0BF0A0
:0E15D00089940F0E9512E552E7CFD9FF120055
:0215DE00D9CF63
:1015E000E6FFE1CFD9FFF00E95168316FE0EDB5015
:1015F0004009E8380F0B0F0B831289928C9A63EC29
:101600000BF0898463EC0BF08994F00E8316FE0EC8
:10161000DB500F0B831263EC0BF0898463EC0BF04F
:0E16200089940F0E9512E552E7CFD9FF120004
:02162E00D9CF12
:10163000E6FFE1CFD9FFF00E95168316FE0EDB38DC
:101640000F0B0F0B83128C8A899263EC0BF0898449
:1016500063EC0BF08994F00E8316FE0EDB500F0B3B
:10166000831263EC0BF0898463EC0BF089940F0E0A
:0A1670009512E552E7CFD9FF1200F2
:06167A00D9CFE6FFE1CF2D
:10168000D9FFF00E95168316FE0EDB380F0B0F0BED
:10169000831289928C9A63EC0BF0898463EC0BF0D3
:1016A0008994F00E8316FE0EDB500F0B831263EC51
:1016B0000BF0898463EC0BF089940F0E9512E552C0
:0616C000E7CFD9FF120084
:0A16C600000000000000000000001A
:1016D000000000000000000000000000000000000A
:1016E0000000000000001200060EE66ECCEC0BF0CD
:1016F000E5521200020EE66ECCEC0BF0E552120041
:10170000959095929594959692929294959A1200AE
:10171000D9CFE6FFE1CFD9FFE65289828C8A63EC0C
:101720000BF0898463EC0BF08338F00BF00BDF6E69
:10173000899463EC0BF0898463EC0BF00F0E831437
:10174000DF1289948C9A8992DF50E552E552E7CFF7
:04175000D9FF1200AB
:0C175400D9CFE6FFE1CFD9FFE652898231
:101760008C9A63EC0BF0898463EC0BF08338F00BFC
:10177000F00BDF6E899463EC0BF0898463EC0BF063
:101780000F0E8314DF12899489927F0EDF14E552C5
:08179000E552E7CFD9FF12007A
:08179800FF0EE350216EEF0E7D
:1017A00001D0F30EE76EE72ED3EF0BF00C0E206E98
:1017B000E76AE72ED9EF0BF0202ED8EF0BF0212EA1
:0617C000D1EF0BF0120056
:0A17C600056A046A100EE76ED89061
:1017D00008360936043605360D50045C0E5005589F
:1017E00005E30D50045E0E50055A082AE72EF0D787
:0217F0001200E5
:0E17F200380EF36E00EE00F00F0E01D812005C
:10180000EA6002D0EE6AFCD7F350E9601200EE6A9B
:02181000FCD703
:0E1812001EEE00F02EEE00F0F86A019C78EC5D
:0E1820000AF003EC00F07DEC09F0FBD712009B
:02182E00FF0EAB
:10183000E350E84E1200000000D000D000D0E82EA7
:04184000FAD71200C1
:0C18440096809682968494809482F288AC
:06185000F292F19C12006F
:020000040030CA
:0100010038C6
:0100020019E4
:010003003CC0
:010006008178
:00000001FF
