:020000040000FA
:06000000EDEF0FF012000D
:020006001200E6
:06000800FFEF08F01200FA
:01000E0000F1
:01000F0000F0
:060018008BEF09F012005D
:02001E000200DE
:100020000F000000280F0000010000000E0000007B
:08003000270F00000100000091
:08003800D9CFE6FFE1CFD9FFAB
:10004000150EE126F90EDBCF08F0FA0EDBCF09F032
:100050000E0E08C0DBFF0F0E09C0DBFFF80EDB2819
:10006000146E156A14BE1568060E14C0DBFF070E69
:1000700015C0DBFFF80EDBCF14F0143407E3070ED6
:10008000F36E060EF3CFDBFF070EDB6AF80EDBCF55
:1000900014F0160EE76E1418E8AE02D0143403D034
:1000A000E750D880145407E2170EF36E060EF3CF14
:1000B000DBFF070EDB6A080EDB6A090EDB6AF70E50
:1000C000DB50660804E0F70EDB50460807E1010E3E
:1000D000F36E080EF3CFDBFF090EDB6AF70EDB5081
:1000E000670804E0F70EDB50470807E1020EF36EE5
:1000F000080EF3CFDBFF090EDB6ADE6ADD6AFB0E5A
:10010000DBCF14F0FC0EDBCF15F0FD0EDBCF16F0CD
:10011000FE0EDBCF17F00C6A0D6A0E6A0F6A14C070
:1001200007F015C008F016C009F017C00AF0A7ECD8
:1001300006F0010A33E1F90EDBCFE9FFDB2AFA0E04
:10014000DBCFEAFF01E3DB2A2D0EEF6EFB0EDBCFE8
:1001500014F0FC0EDBCF15F0FD0EDBCF16F0FE0E1B
:10016000DBCF17F00C6A0D6A800E0E6EBF0E0F6E9D
:1001700014C007F015C008F016C009F017C00AF047
:10018000B1EC05F0FB0E07C0DBFFFC0E08C0DBFF87
:10019000FD0E09C0DBFFFE0E0AC0DBFFFB0EDBCF4E
:1001A00007F0FC0EDBCF08F0FD0EDBCF09F0FE0EF2
:1001B000DBCF0AF00C6A0D6A0E6A0F6AA0EC06F03B
:1001C000010A4BE0FB0EDBCF14F0FC0EDBCF15F089
:1001D000FD0EDBCF16F0FE0EDBCF17F00C6A0D6ABA
:1001E000800E0E6E3F0E0F6E14C007F015C008F0A3
:1001F00016C009F017C00AF0A7EC06F0010A2DE1BD
:10020000FB0EDBCF14F0FC0EDBCF15F0FD0EDBCFC9
:1002100016F0FE0EDBCF17F00C6A0D6A200E0E6E84
:10022000410E0F6E14C007F015C008F016C009F09B
:1002300017C00AF0B1EC05F0FB0E07C0DBFFFC0EA7
:1002400008C0DBFFFD0E09C0DBFFFE0E0AC0DBFFAE
:10025000DF06010EB7E2DB06B5D7FB0EDBCF14F0ED
:10026000FC0EDBCF15F0FD0EDBCF16F0FE0EDBCF64
:1002700017F00C6A0D6A200E0E6E410E0F6E14C040
:1002800007F015C008F016C009F017C00AF0A7EC77
:1002900006F0010A2EE0FB0EDBCF14F0FC0EDBCFE4
:1002A00015F0FD0EDBCF16F0FE0EDBCF17F0CD0EF6
:1002B0000C6ECC0E0D6E0E6E3D0E0F6E14C007F060
:1002C00015C008F016C009F017C00AF0B1EC05F02F
:1002D000FB0E07C0DBFFFC0E08C0DBFFFD0E09C0F4
:1002E000DBFFFE0E0AC0DBFFDF2A010EB6E3DB2ACE
:1002F000B4D7D950080FE96EDACFEAFFEE50ED100F
:1003000012E0060EDBCF16F0070EDBCF17F0DE5043
:100310001624146EDD501720156E060E14C0DBFF78
:10032000070E15C0DBFFF80EDB5027E1DECF14F01F
:10033000DDCF15F0060EDBCF16F0070EDBCF17F082
:1003400017501518E8AE02D0153404D01450165CBE
:100350001550175812E2D950080FE96EDACFEAFFAC
:10036000EE50ED100AE0D9CFE9FFDACFEAFF060E32
:10037000EECFDBFF070EEDCFDBFF0A0EDB6A0B0EC5
:10038000DB6A800EF36E0C0EF3CFDBFF3F0EF36ED5
:100390000D0EF3CFDBFF010EF36E020EF3CFDBFF8A
:1003A000030EDB6A020EDBCF14F0030EDBCF15F079
:1003B000060EDBCF16F0070EDBCF17F0155017181F
:1003C000E8AE02D0173404D01650145C17501558FC
:1003D0002FE20A0EDBCF14F00B0EDBCF15F00C0E64
:1003E000DBCF16F00D0EDBCF17F0CD0E0C6ECC0E62
:1003F0000D6E0E6E3D0E0F6E14C007F015C008F0A6
:1004000016C009F017C00AF0B1EC05F00A0E07C0DB
:10041000DBFF0B0E08C0DBFF0C0E09C0DBFF0D0E6F
:100420000AC0DBFF020EDB2A030EBCE3DB2ABAD7CD
:10043000FB0EDBCF14F0FC0EDBCF15F0FD0EDBCF97
:1004400016F0FE0EDBCF17F00A0EDBCF1CF00B0E02
:10045000DBCF1DF00C0EDBCF1EF00D0EDBCF1FF03F
:100460000C6A0D6A0E6A3F0E0F6E1CC007F01DC0AD
:1004700008F01EC009F01FC00AF0B1EC05F007C07B
:1004800018F008C019F009C01AF00AC01BF007C024
:100490000CF008C00DF009C00EF00AC00FF014C037
:1004A00007F015C008F016C009F017C00AF01BECE1
:1004B00005F0FB0E07C0DBFFFC0E08C0DBFFFD0EE6
:1004C00009C0DBFFFE0E0AC0DBFFFB0EDBCF14F022
:1004D000FC0EDBCF15F0FD0EDBCF16F0FE0EDBCFF2
:1004E00017F00C6A0D6A200E0E6E410E0F6E14C0CE
:1004F00007F015C008F016C009F017C00AF0A7EC05
:1005000006F0010A17E0FB0EDB6AFC0EDB6A800EC8
:10051000F36EFD0EF3CFDBFF3F0EF36EFE0EF3CF57
:10052000DBFFDF2A010E01E3DB2A060EDB2A070EC2
:1005300001E3DB2AD950080FE96EDACFEAFFEE506B
:10054000ED1062E0DECF14F0DDCF15F00001800E7B
:1005500015145AE0F90EDBCFE9FFDB2AFA0EDBCFE8
:10056000EAFF01E3DB2A300EEF6EF80EDB500BE002
:10057000F90EDBCFE9FFDB2AFA0EDBCFEAFF01E35E
:10058000DB2A2E0EEF6E060EDBCF14F0070EDBCF4C
:1005900015F0800E15140EE0DECF16F0DDCF17F04B
:1005A000060EDB50165C146E070EDB50175814C095
:1005B000DEFFDD6E020EDB68030EDB68020EDBCFB2
:1005C00014F0030EDBCF15F0DECF16F0DDCF17F001
:1005D00017501518E8AE02D0153404D01450165C2C
:1005E0001550175811E2F90EDBCFE9FFDB2AFA0E9E
:1005F000DBCFEAFF01E3DB2A300EEF6E020EDB06F3
:10060000030EDCE2DB06DAD7020EDB6A030EDB6ADE
:10061000020EDBCF14F0030EDBCF15F0060EDBCF9E
:1006200016F0070EDBCF17F015501718E8AE02D002
:10063000173404D01650145C1750155801E3FFD03E
:10064000FB0EDBCF07F0FC0EDBCF08F0FD0EDBCF9F
:1006500009F0FE0EDBCF0AF071EC06F0040E08C0C4
:10066000DBFF050E09C0DBFF300EE76E040EDBCFAB
:1006700014F0050EDBCF15F0E7501426000E1522FE
:10068000F90EDBCFE9FFDB2AFA0EDBCFEAFF01E34D
:10069000DB2A14C0EFFFD950080FE96EDACFEAFF6A
:1006A000EE50ED1008E1D950020FE96EDACFEAFF03
:1006B000EE50ED1015E0D950080FE96EDACFEAFFE1
:1006C000EE50ED101BE0020EDBCF14F0030EDBCF7B
:1006D00015F0DF50141812E1DE52DD5015180EE14E
:1006E000F80EDB500BE0F90EDBCFE9FFDB2AFA0E48
:1006F000DBCFEAFF01E3DB2A2E0EEF6E040EDBCF29
:1007000008F0050EDBCF09F007EC05F0100E07C06E
:10071000DBFF110E08C0DBFF120E09C0DBFF130E5A
:100720000AC0DBFF100EDBCF14F0110EDBCF15F08B
:10073000120EDBCF16F0130EDBCF17F00C6A0D6A2A
:10074000200E0E6E410E0F6E14C007F015C008F09B
:1007500016C009F017C00AF0B1EC05F0100E07C082
:10076000DBFF110E08C0DBFF120E09C0DBFF130E0A
:100770000AC0DBFFFB0EDBCF14F0FC0EDBCF15F065
:10078000FD0EDBCF16F0FE0EDBCF17F00C6A0D6A04
:10079000200E0E6E410E0F6E14C007F015C008F04B
:1007A00016C009F017C00AF0B1EC05F0FB0E07C047
:1007B000DBFFFC0E08C0DBFFFD0E09C0DBFFFE0EF9
:1007C0000AC0DBFFFB0EDBCF14F0FC0EDBCF15F015
:1007D000FD0EDBCF16F0FE0EDBCF17F0100EDBCFD9
:1007E00018F0110EDBCF19F0120EDBCF1AF0130E3A
:1007F000DBCF1BF018C00CF019C00DF01AC00EF0C2
:100800001BC00FF014C007F015C008F016C009F0A7
:1008100017C00AF01AEC05F0FB0E07C0DBFFFC0E58
:1008200008C0DBFFFD0E09C0DBFFFE0E0AC0DBFFC8
:10083000020EDB2A030E01E2EBD6DB2AE9D6D95001
:10084000080FE96EDACFEAFFEE50ED1001E0B9D003
:10085000D9CFE9FFDACFEAFFEE50ED1001E1B1D0D8
:10086000F90EDBCFE9FFDB2AFA0EDBCFEAFF01E36B
:10087000DB2AF70EDBCFEFFFDECF14F0DDCF15F074
:100880000001800E151417E008680968DECF0DF02E
:10089000DDCF0EF044EC06F006C0DEFF07C0DDFF42
:1008A000F90EDBCFE9FFDB2AFA0EDBCFEAFF01E32B
:1008B000DB2A2D0EEF6EE80EF36E040EF3CFDBFF96
:1008C000030EF36E050EF3CFDBFF040EDBCF14F047
:1008D000050EDBCF15F0DECF16F0DDCF17F0175089
:1008E0001518E8AE02D0153404D01450165C15501B
:1008F000175816E20A0E146E156A040EDBCF08F0C4
:10090000050EDBCF09F014C00DF015C00EF01EEC83
:1009100006F0040E08C0DBFF050E09C0DBFFD5D7CB
:10092000040EDBCF14F0050EDBCF15F0153449E2D1
:1009300014500008000E155444E2140EDB50300F22
:10094000E66EF90EDBCFE9FFDB2AFA0EDBCFEAFF1A
:1009500001E3DB2AE552E750EF6EDECF16F0DDCF84
:1009600017F0140EDBCF18F0196A18BE196818C0FA
:1009700008F019C009F0040EDBCF0DF0050EDBCF37
:100980000EF044EC06F00650165C146E0750175833
:1009900014C0DEFFDD6E0A0E146E156A040EDBCF86
:1009A00008F0050EDBCF09F014C00DF015C00EF0F5
:1009B0001EEC06F0040E08C0DBFF050E09C0DBFFCD
:1009C000AFD7F90EDBCFE9FFDB2AFA0EDBCFEAFF68
:1009D00001E3DB2AEF6AF90EDBCF16F0FA0EDBCF6C
:1009E00017F00E0EDB50165C146E0F0EDB5017580E
:1009F00014C0F3FFF46E150EE15C02E2E16AE55209
:0A0A0000E16EE552E7CFD9FF1200C6
:060A0A00019E08D0019ED0
:100A100009AE05D0086C091EE86A0922018E09C0DA
:100A200003F008C002F0136A126A8E0E046E056AA3
:100A300021EF07F00F7E016A5DEC07F075EC07F01F
:100A400001B605EF07F001A20AD001AA03D001BE4A
:100A500005EF07F001A411EF07F00EEF07F001AA70
:100A600005D001AC11EF07F00EEF07F001A00AD09E
:100A700001A808D001BE04D001A402D01AEF07F0EB
:100A80001EEF07F0126A056A0F500A5C116E10E340
:100A900007C013F008C002F009C003F00AC010F04C
:100AA0000CC007F00DC008F00EC009F0013A09D0E3
:100AB0000CC013F00DC002F00EC003F00FC010F018
:100AC000116C019E01BC018E10C004F001B04DEF0D
:100AD00007F01A0E11604DEF07F0046A0A6A01A4CC
:100AE00008D0076C081E091E0A1EE86A082209229F
:100AF0000A2201AC08D0136C021E031E041EE86A11
:100B0000022203220422066A115207E00A34093243
:100B1000083207320632112EF9D707501326085033
:100B20000222095003220A50042206C012F0019E3C
:100B300004AE0BD0126C131E021E031E041EE86AC4
:100B40001322022203220422018E04A006D0D880A0
:100B50000332023213321232102A10C004F021EF95
:100B600007F0016A5DEC07F075EC07F001B605EFE0
:100B700007F001A205D001B805EF07F00CEF07F070
:100B800001AA05D001B005EF07F00CEF07F001B0A6
:100B900002D001A802D018EF07F0056A0F500A240E
:100BA000046EE86A05227E0E045EE86A055A126A3F
:100BB000136A026A036A0E500902F4CF03F0F3CFFE
:100BC00002F00D500902F3501326F4500222000ED9
:100BD00003220E500802F3501326F4500222000E96
:100BE00003220C500902F3501226F4501322000E77
:100BF000022203220D500802F3501226F450132251
:100C0000000E022203220E500702F3501226F45067
:100C10001322000E022203220C500802F450122666
:100C2000000E1322022203220D500702F450122656
:100C3000000E13220222032221EF07F0006A0EAEFB
:100C400027EF06F00D6C0E1EE86A0E22001E09AE9C
:100C50002FEF06F0086C091EE86A0922001EB4ECAA
:100C60000FF009BE3FEF06F000AE000C086C091E45
:100C7000E86A0922046C051EE86A0522000C00BE21
:100C800036EF06F00188FF0C09C013F008C012F01F
:100C900008500D02F4CF07F0F3CF06F009500E0212
:100CA000F4CF09F0F3CF08F00D02F3500726F4500B
:100CB0000822E86A092212500E02F3500726F45067
:100CC0000822E86A09220EAE6AEF06F01250085EAA
:100CD0001350095A13AE000C0D50085E0E50095AFD
:100CE000000C016A5DEC07F001B67BEF06F001A293
:100CF0000ED001B405D07F0E096EFF0E086E1FD016
:100D0000800E096E086A1BD0096A086A18D001B003
:100D1000FBD78F0E0A60EDD77E0E0A64F5D78E0ED4
:100D20000A5C05E0D890093208320A2AF8D701A4F3
:100D300006D0086C091EE86A092209AEE5D7120040
:100D4000B0EC06F001B6000C01B0010C000CB0ECE8
:100D500006F001B6000C01B0000C01A4000C010C5F
:100D6000016A5DEC07F075EC07F001B6120001AE08
:100D700008D001A004D001A802D001801200019087
:100D800012000F500A5C0BE10E50095C08E10D5097
:100D9000085C05E10C50075C02E101801200D8A05C
:100DA00002D0018E10D00A500FC00AF00F6E095009
:100DB0000EC009F00E6E08500DC008F00D6E075001
:100DC0000CC007F00C6E0F500A5C10E0FF0F09E03A
:100DD000019001B403D001AE0184120001AE019470
:100DE00012000F2AD8900E320D320C320C50075ED2
:100DF0000D50085A0E50095A09BEEAD7D890073646
:100E0000083609360A2EF8D7C8D77F0E0A6EFF0EAD
:100E1000096E086E076E12007F0E01BEFF0E0A6E8D
:100E200002D07F0E0A6E800E096E086A076AF3D739
:100E300001AE04D0800E0A6E096AF7D70A6A096A01
:100E4000F4D70350021013101210F8E005BEF0D7CB
:100E500003BE0CD004500510EBE0D89012361336C8
:100E6000023603360406D8A00506F2D70550D4E1B1
:100E70000428D2E012AE11D07F0E121402E113A0AA
:100E80000CD0132AE86A0222032207E3D880033237
:100E900002321332042A0428BFE00450C9E013C010
:100EA00007F002C008F00334096E04300A6E0932FC
:100EB0000A9E01BE0A8E0BEF07F009360A3602E3DE
:100EC0000184017E06E101800A6A096A086A076AEC
:100ED00012000A2803E0D88009321200D8900932A3
:100EE00002E101821200018612000E360F3602E383
:100EF000018C017E06E101880F6A0E6A0D6A0C6A98
:100F000012000F2803E0D8800E321200D8900E3263
:060F1000EAE1018A120073
:0A0F1600D9CFE6FFE1CFD9FFE65284
:100F2000DF6A0A0EDF5C18E2EA6ADF34FE0BEA369B
:100F3000E96E600EE926000EEA22EE6AED6AEA6AC0
:100F4000DF34FE0BEA36E96E7C0EE926000EEA225B
:100F5000EE6AED6ADF2AE5D7E552E552E7CFD9FF21
:100F60001200D9CFE6FFE1CFD9FFFD0EDBCF7AF03B
:100F7000FE0EDBCF7BF0E552E7CFD9FF1200D9CFD1
:100F8000E6FFE1CFD9FFFD0EDBCF74F0FE0EDBCF25
:100F900075F0E552E7CFD9FF1200D9CFE6FFE1CFD8
:100FA000D9FFFD0EDBCF78F0FE0EDBCF79F0E552F6
:100FB000E7CFD9FF1200D9CFE6FFE1CFD9FFFD0E71
:100FC000DBCF76F0FE0EDBCF77F0E552E7CFD9FF2F
:100FD0001200D9CFE6FFE1CFD9FF020EE126010EC4
:100FE000DE6EDD6ADECFE9FFDDCFEAFFD890E936BD
:100FF000EA36E806FBE1600EE926000EEA22EE5032
:10100000ED100EE0DECF14F0DDCF15F00A0E145C0B
:10101000000E155805E2DF2A010EE4E3DB2AE2D7D1
:10102000DECF14F0DDCF15F00A0E145C000E15585B
:101030003AE2DECFE9FFDDCFEAFF010ED890E936D4
:10104000EA36E806FBE1600EE926000EEA22FD0E14
:10105000DBCFEEFFFE0EDBCFEDFFDECFE9FFDDCF16
:10106000EAFF010ED890E936EA36E806FBE17C0E8D
:10107000E926000EEA22FB0EDBCFEEFFFC0EDBCFF3
:10108000EDFFDECFE9FFDDCFEAFF010ED890E936B4
:10109000EA36E806FBE1900EE926000EEA22EE6A47
:1010A000ED6ADF5001D0FF0E146E020EE15C02E229
:1010B000E16AE552E16E1450E552E7CFD9FF120024
:1010C000D9CFE6FFE1CFD9FF000EF36EFE0EDBCFE6
:1010D000F4FFF350F45C20E30A0EF36EFE0EDBCF58
:1010E000F4FFF350F45C18E2FE0EEA6ADB34FE0B08
:1010F000EA36E96E600EE926000EEA22EE6AED6A33
:10110000FE0EEA6ADB34FE0BEA36E96E7C0EE92657
:10111000000EEA22EE6AED6AE552E7CFD9FF12002F
:10112000D9CFE6FFE1CFD9FFE6528F0ED314700975
:10113000D36E0F01386B396B3A6B3B6B3C6B3B8961
:10114000949493989588829C819816EC0EF006EC06
:1011500010F064EC0FF0F28ED08EF28CCAEC0FF02F
:10116000DF6A0A0EDF5CFCE2EA6ADF34FE0BEA3675
:10117000E96E600EE926000EEA22EE50ED103DE029
:10118000EA6ADF34FE0BEA36E96E900EE926000EBD
:10119000EA22EECF14F0EFCF15F0EA6ADF34FE0B4F
:1011A000EA36E96E7C0EE926000EEA22EECF16F052
:1011B000EFCF17F01650145C175015581EE3EA6A6B
:1011C000DF34FE0BEA36E96E900EE926000EEA22C5
:1011D000EE6AED6AEA6ADF34FE0BEA36E96E600E0B
:1011E000E926000EEA22EECF14F0EFCF15F004D07E
:1011F00015C0FAFF1450F96EFBDFDF2AB2D7DACF41
:10120000E4FFE2CFDAFFE9CFE4FFEACFE4FFF6CF75
:10121000E4FFF7CFE4FFF5CFE4FFF3CFE4FFF4CF33
:10122000E4FFFACFE4FF00EE00F0140EE80403E35D
:10123000EECFE4FFFBD700EE14F00C0EE80403E35E
:10124000EECFE4FFFBD7E652D9CFE6FFE1CFD9FFDF
:10125000E6529EA017D0FE0ECF6E0B0ECE6EDF6A4A
:101260000A0EDF5C0EE2EA6ADF34FE0BEA36E96E54
:10127000900EE926000EEA22EE2A000EEF22DF2A67
:10128000EFD79E90F2A21FD0020EE66E9DEC0FF0FB
:10129000E55284B003D00F01640E276F82B203D0F1
:1012A0000F01750E276F84B203D00F016C0E276FEC
:1012B00082B003D00F01720E276F84B403D00F01E8
:1012C000650E276FF292E552E552E7CFD9FFE5525E
:1012D00000EE1FF00C0EE80403E3E5CFEDFFFBD7B3
:1012E00000EE13F0140EE80403E3E5CFEDFFFBD7A7
:1012F000E5CFFAFFE5CFF4FFE5CFF3FFE5CFF5FF4C
:10130000E5CFF7FFE5CFF6FFE5CFEAFFE5CFE9FF51
:10131000E5CFDAFF1100DACFE4FFE652E552E5CF80
:04132000DAFF1100DF
:0C132400D9CFE6FFE1CFD9FF020EE12691
:10133000939A819AC80EE66EFBEC0FF0E552938A01
:10134000280EE66EFBEC0FF0E5528150200B01E019
:10135000010EDE6EDD6AA00EE66EFBEC0FF0E552CC
:10136000DECF14F0DDCF15F014C0F3FF15C0F4FF8D
:10137000020EE15C02E2E16AE552E16EE552E7CF7E
:10138000D9FF1200D9CFE6FFE1CFD9FF939A819A16
:10139000E150FD0FE96EFF0EDA20EA6EEE50ED101F
:1013A00002E0040E01D0280EE66EFBEC0FF0E552D1
:1013B000938AD950FD0FE96EFF0EDA20EA6EEE50E7
:1013C000ED1005E0180EE66EFBEC0FF0E552040E92
:1013D000E66EFBEC0FF0E552E552E7CFD9FF1200C5
:1013E000D9CFE6FFE1CFD9FF020EE126939A819A89
:1013F0000000000000000000938A040EE66EFBEC83
:101400000FF0E5528150200B01E0010EDE6EDD6A27
:10141000180EE66EFBEC0FF0E552040EE66EFBECE8
:101420000FF0E552DECF14F0DDCF15F014C0F3FF5E
:1014300015C0F4FF00D0020EE15C02E2E16AE55261
:10144000E16EE552E7CFD9FF1200D9CFE6FFE1CF39
:10145000D9FF020EE126DE6ADD6ADECF14F0DDCFB1
:1014600015F0D890155004E6080E145C000E1558BF
:1014700024E2010EE76EFD0EDBCF14F0FE0EE75006
:101480001416156A14C0E6FF15C0E6FF7BDFE552AF
:10149000E552D950FD0FE96EFF0EDA20EA6E010E1B
:1014A0000F0B06E0EC52D890ED32EF32E806FAE18D
:1014B000DF2A010ED2E3DB2AD0D7020EE15C02E282
:1014C000E16AE552E16EE552E7CFD9FF1200D9CFCC
:1014D000E6FFE1CFD9FF040EE126020EDB6A030E20
:1014E000DB6ADE6ADD6ADECF14F0DDCF15F0D8905E
:1014F000155004E6080E145C000E15581EE2D95073
:10150000020FE96EDACFEAFF010E0F0B06E0EC5294
:10151000D890ED32EF32E806FAE162DFF350F410D2
:1015200007E0D950020FE96EDACFEAFFEE8EED52F6
:10153000DF2A010ED8E3DB2AD6D7020EDBCF14F068
:10154000030EDBCF15F014C0F3FF15C0F4FF040E3B
:10155000E15C02E2E16AE552E16EE552E7CFD9FFD4
:101560001200E0DECC0EE66EE66A6FDFE552E55271
:10157000440EE66EE66A69DFE552E5521200D9CF05
:10158000E6FFE1CFD9FF160EE126CCDECC0EE66EEB
:10159000E66A5BDFE552E552BE0EE66EE66A55DFAF
:1015A000E552E5520A0EDB6A0B0EDB6A0A0EDBCF50
:1015B00014F00B0EDBCF15F0D890155004E6090E91
:1015C000145C000E155818E282DFF350E66ED9CF96
:1015D00014F0DACF15F00A0EDB50D924E96E0B0EA9
:1015E000DB50DA20EA6EE552E750EF6E0A0EDB2A96
:1015F0000B0EDCE3DB2ADAD7010EDB50070BE66EBD
:10160000D9500C0FE96EDACFEAFFE552E750EE6EE3
:10161000ED6A0C0EDBCF14F00D0EDBCF15F014C00D
:1016200015F0146A0C0E14C0DBFF0D0E15C0DBFFA5
:10163000DF50E66ED9500E0FE96EDACFEAFFE552C1
:10164000E750EE6EED6A0E0EDBCF16F00F0EDBCF1D
:1016500017F00C0EDB501610146E0D0EDB50171029
:10166000156E100E14C0DBFF110E15C0DBFF0C0E43
:10167000DB50800B09E0D950100FE96EDACFEAFF9A
:10168000EE6CEF1E000EED22100EDBCF08F0110EF7
:10169000DBCF09F007EC05F007C014F008C015F027
:1016A00009C016F00AC017F00C6A0D6A800E0E6EA3
:1016B0003D0E0F6EB1EC05F0120E07C0DBFF130EEE
:1016C00008C0DBFF140E09C0DBFF150E0AC0DBFFEC
:1016D000120EDBCF14F0130EDBCF15F0140EDBCFA0
:1016E00016F0150EDBCF17F014C006F015C007F08A
:1016F00016C008F017C009F0160EE15C02E2E16ABC
:0C170000E552E16EE552E7CFD9FF120080
:04170C008BEC07F06B
:10171000620EE66E1A0EE66EB1EC07F0E552E55287
:101720006E0EE66E1A0EE66EBFEC07F0E552E5525D
:10173000700EE66E1A0EE66ECDEC07F0E552E5523D
:101740007C0EE66E1A0EE66EDBEC07F0E552E55213
:1017500090EF08F0D9CFE6FFE1CFD9FFE652DF6A7C
:10176000DFCF14F0090EE76E1418E8AE02D014347F
:1017700003D0E750D88014540CE3DFCFE9FFEA6AC6
:10178000E9BEEA68000EE9260F0EEA22EF6ADF2AB8
:10179000E7D7DF6A0F010069060E016F120E026FB4
:1017A000FE0EDBCF03FF040EE66E040EE66E0F0E98
:1017B000E66E000EE66E0F0EE66EA4D8146E050EF1
:1017C000E15E145004CFDFFF05CF04FFDFCF05FF3C
:1017D000DF6ADFCFE9FFEA6AE9BEEA68000EE926C0
:1017E0000F0EEA22EF50736EDF2ADFCF14F0050EE2
:1017F000E76E1418E8AE02D0143403D0E750D88056
:10180000145409E372A2FED7DFCFE9FFEA6AE9AE1A
:10181000E5D7EA68E3D7E552E552E7CFD9FF1200F2
:10182000D9CFE6FFE1CFD9FFE652DF6ADFCF14F070
:10183000090EE76E1418E8AE02D0143403D0E75056
:10184000D88014540CE3DFCFE9FFEA6AE9BEEA6806
:10185000000EE9260F0EEA22EF6ADF2AE7D7DF6AD9
:101860000F0100690A0E016F100E026FFD0EDBCF33
:1018700003FFFC0EDBCF04FFFB0EDBCF05FFFA0EF0
:10188000DBCF06FFFE0EDBCF07FF080EE66E080E6D
:10189000E66E0F0EE66E000EE66E0F0EE66E32D8A6
:1018A000146E050EE15E145008CFDFFF09CF08FF6C
:1018B000DFCF09FFDF6ADFCFE9FFEA6AE9BEEA6846
:1018C000000EE9260F0EEA22EF50736EDF2ADFCFFB
:1018D00014F0090EE76E1418E8AE02D0143403D0E9
:1018E000E750D880145409E372A2FED7DFCFE9FF96
:1018F000EA6AE9AEE5D7EA68E3D7E552E552E7CF11
:10190000D9FF1200D9CFE6FFE1CFD9FF060EE126BD
:10191000FB0EDBCFE9FFFC0EDBCFEAFFEE6AED6AE0
:10192000010EF36E020EF3CFDBFF030EDB6A020E35
:10193000DBCF14F0030EDBCF15F0FA0EDB50166E82
:10194000176A17501518E8AE02D0153404D0145099
:10195000165C1550175801E27AD0FB0EDBCFE9FF79
:10196000FC0EDBCFEAFFEECF16F0EFCF17F017C07B
:1019700016F0176AFD0EDBCFE9FFFE0EDBCFEAFFA4
:10198000EF501618156E146A040E14C0DBFF050E16
:1019900015C0DBFFDE6ADD6ADECF14F0DDCF15F0A7
:1019A000D890155004E6080E145C000E155826E277
:1019B000050EDB50800B0EE0040EDBCF14F0050E9D
:1019C000DBCF15F0D89014361536210E141A100EF0
:1019D000151A09D0040EDBCF14F0050EDBCF15F07D
:1019E000D89014361536040E14C0DBFF050E15C052
:1019F000DBFFDF2A010ED0E3DB2ACED7FB0EDBCFE5
:101A0000E9FFFC0EDBCFEAFFEECF16F016C017F0B1
:101A1000166A040EDB501618146E050EDB501718EC
:101A2000156EFB0EDBCFE9FFFC0EDBCFEAFF14C027
:101A3000EEFF15C0EDFF020EDB2A030E01E3DB2AE9
:101A4000FD0EDB2AFE0E01E272D7DB2A70D7060EEE
:101A5000E15C02E2E16AE552E16EE552E7CFD9FFCF
:101A60001200D9CFE6FFE552E7CFD9FF12001200EE
:101A7000D9CFE6FFE552E7CFD9FF1200D9CFE6FF75
:081A8000E552E7CFD9FF120087
:081A8800D9CFE6FFE1CFD9FF41
:101A9000F00E831695169292959A929489928C9A4A
:101AA00089940AEC0EF0300EE66ED5EC0EF0E5529D
:101AB000050EE66E9DEC0FF0E552300EE66ED5ECAD
:101AC0000EF0E552010EE66E9DEC0FF0E552320E7F
:101AD000E66ED5EC0EF0E55282EC0FF00009FCE169
:101AE00082EC0FF00009FCE1FE0EDBCFE6FFD5EC47
:101AF0000EF0E55282EC0FF00009FCE1080EE66EF4
:101B0000D5EC0EF0E55282EC0FF00009FCE10F0E6F
:101B1000E66ED5EC0EF0E55282EC0FF00009FCE128
:101B2000010EE66ED5EC0EF0E55282EC0FF00009E6
:101B3000FCE1060EE66ED5EC0EF0E55282EC0FF0FD
:101B40000009FCE1E66A38EC0EF0E552E552E7CF19
:041B5000D9FF1200A7
:0C1B54001E0EF66E000EF76E000EF86E0E
:101B60000F010900F550226F0900F550236F03E1C2
:101B7000226701D03DD00900F5501D6F0900F550D6
:101B80001E6F0900F5501F6F09000900F550E96E3E
:101B90000900F550EA6E090009000900F550206FB0
:101BA0000900F550216F09000900F6CF24FFF7CF97
:101BB00025FFF8CF26FF1DCFF6FF1ECFF7FF1FCF63
:101BC000F8FF0F01205302E1215307E00900F5500F
:101BD000EE6E2007F8E22107F9D724CFF6FF25CFD4
:101BE000F7FF26CFF8FF0F012207000E235BBFD7B8
:021BF0001200E1
:0E1BF2000000000000000000000000000000E5
:101C000000000000000000000000000000000000D4
:101C100000001200060EE66E9DEC0FF0E552120079
:101C2000020EE66E9DEC0FF0E55212009590959233
:101C30009594959692929294959A280EE66E44EC1D
:101C40000DF0E55282EC0FF00009FCE1200EE66E8B
:101C5000200EE66E88EC0EF0E552E55282EC0FF0B5
:101C60000009FCE1400EE66E38EC0EF0E552120081
:101C7000D9CFE6FFE1CFD9FFF00E95168316FE0E01
:101C8000DB508009E8380F0B0F0B831289928C9A76
:101C9000F9EC0DF08984F9EC0DF08994F00E8316BF
:101CA000FE0EDB500F0B8312F9EC0DF08984F9EC7A
:101CB0000DF089940F0E9512E552E7CFD9FF12006F
:101CC000D9CFE6FFE1CFD9FFF00E95168316FE0EB1
:101CD000DB504009E8380F0B0F0B831289928C9A66
:101CE000F9EC0DF08984F9EC0DF08994F00E83166F
:101CF000FE0EDB500F0B8312F9EC0DF08984F9EC2A
:101D00000DF089940F0E9512E552E7CFD9FF12001E
:101D1000D9CFE6FFE1CFD9FFFD0EDBCFF6FFFE0EF8
:101D2000DBCFF7FF0800F55016E082EC0FF000095A
:101D3000FCE1FD0EDBCFF6FFFE0EDBCFF7FF080068
:101D4000F550E66EAFEC0EF0E552FD0EDB2AFE0E0E
:0E1D5000E3E3DB2AE1D7E552E7CFD9FF12002B
:021D5E00D9CFDB
:101D6000E6FFE1CFD9FFF00E95168316FE0EDB38A5
:101D70000F0B0F0B83128C8A8992F9EC0DF089847A
:101D8000F9EC0DF08994F00E8316FE0EDB500F0B6C
:101D90008312F9EC0DF08984F9EC0DF089940F0EA3
:0A1DA0009512E552E7CFD9FF1200BB
:061DAA00D9CFE6FFE1CFF6
:101DB000D9FFF00E95168316FE0EDB380F0B0F0BB6
:101DC000831289928C9AF9EC0DF08984F9EC0DF06C
:101DD0008994F00E8316FE0EDB500F0B8312F9EC84
:101DE0000DF08984F9EC0DF089940F0E9512E552EF
:061DF000E7CFD9FF12004D
:0A1DF600D9CFE6FFE1CFD9FFFD0EC3
:101E0000DBCFE9FFFE0EDBCFEAFFEF5015E082ECFF
:101E10000FF00009FCE1FD0EDBCFE9FFFE0EDBCF8A
:101E2000EAFFEF50E66EAFEC0EF0E552FD0EDB2A56
:101E3000FE0EE5E3DB2AE3D7E552E7CFD9FF120038
:101E4000D9CFE6FFE1CFD9FFE65289828C8AF9EC3F
:101E50000DF08984F9EC0DF08338F00BF00BDF6E98
:101E60008994F9EC0DF08984F9EC0DF00F0E8314D0
:101E7000DF1289948C9A8992DF50E552E552E7CFC0
:041E8000D9FF120074
:0C1E8400D9CFE6FFE1CFD9FFE6528982FA
:101E90008C9AF9EC0DF08984F9EC0DF08338F00B95
:101EA000F00BDF6E8994F9EC0DF08984F9EC0DF0FC
:101EB0000F0E8314DF12899489927F0EDF14E5528E
:081EC000E552E7CFD9FF120043
:081EC800958E958C72987294BE
:101ED0007096190E756E729C719CA58AA49AA38A3D
:101EE0007188718E728A948E948CAC98AC94B896EA
:101EF000AF6EAC9CAB9C9F8A9E9A9D8AAB88AB8E42
:041F0000AC8A120095
:0C1F040089828C9AF9EC0DF08984F9ECCC
:101F10000DF083A609D08994F9EC0DF08984F9ECD1
:101F20000DF089948992010C8994F9EC0DF0898463
:0A1F3000F9EC0DF089948992000C81
:061F3A00FF0EE350216ED2
:101F4000EF0E01D0F30EE76EE72EA4EF0FF00C0EAC
:101F5000206EE76AE72EAAEF0FF0202EA9EF0FF010
:081F6000212EA2EF0FF0120088
:081F6800056A046A100EE76E21
:101F7000D89008360936043605360D50045C0E50EC
:101F8000055805E30D50045E0E50055A082AE72E49
:041F9000F0D7120074
:0C1F9400FE0ECF6E0B0ECE6E3F0ECD1475
:101FA0000009CD6ECF0ECD143009CD6ECD84CC9E00
:0A1FB0009E909F809D80CD8012005E
:061FBA00380EF36E00EE8C
:101FC00000F00F0E01D81200EA6002D0EE6AFCD7D2
:0A1FD000F350E9601200EE6AFCD73E
:061FDA001EEE00F02EEEE9
:101FE00000F0F86A019CAAEC0DF003EC00F086EC1E
:061FF0000BF0FBD712000C
:0A1FF600FF0EE350E84E1200000059
:0C20000000D000D000D0E82EFAD712006B
:04200C0096809682A2
:102010009684948094829380F288F292F19C1200CC
:0B20200048656C6C6F20776F726400E5
:020000040030CA
:0100010008F6
:0100020018E5
:010003003CC0
:01000500BF3B
:010006008178
:00000001FF
