:0400000051EF00F0CC
:10000800FACF13F0FBCF14F0E9CF15F030EF11F071
:10001800D8CF01F0E8CF02F0E0CF03F0FACF04F038
:10002800FBCF05F0E9CF06F0EACF07F0E1CF08F003
:10003800E2CF09F0D9CF0AF0DACF0BF0F3CF0CF00A
:10004800F4CF0DF0F6CF0EF0F7CF0FF0F8CF10F099
:10005800F5CF11F011C0F5FF10C0F8FF0FC0F7FF82
:100068000EC0F6FF0DC0F4FF0CC0F3FF0BC0DAFFA3
:100078000AC0D9FF09C0E2FF08C0E1FF07C0EAFFD4
:1000880006C0E9FF05C0FBFF04C0FAFF03C0E0FF9C
:0E00980002C0E8FF01C0D8FF1000C7EF13F050
:1010000048656C6C6F0000007DC083F07EC084F08A
:10101000010E000100017F2500010001906F000119
:101020000001916B000E9123160E000100017F65F7
:1010300007D0000E00010001916F170E0001906FA4
:10104000000E000100018F6F000E00018E6F000185
:1010500000018051660AD8B406D000010001805119
:10106000460AD8A407D0000E000100018F6F010EC0
:1010700000018E6F000100018051670AD8B406D0CC
:10108000000100018051470AD8A407D0000E0001DA
:1010900000018F6F020E00018E6F000E0001000133
:1010A000956F000E0001946F000100017C51800AD1
:1010B000800F07E1000E00017B5D03E1000E0001DF
:1010C0007A5DD8B018D07DC0D9FF7EC0DAFF2D0E72
:1010D000DF6E000100017D4B7E2B7AC021F07BC0CA
:1010E00022F07CC023F0DDEC13F023C07CF022C0A2
:1010F0007BF021C07AF07F0E000100017C15000119
:101100007B1100017A11D8A420D04ED07AC060F0B3
:101110007BC061F07CC062F0000E00010001636FD3
:10112000200E00010001646F410E00010001656F97
:1011300057EC0EF062C07CF061C07BF060C07AF0CA
:10114000000100019407D8A095077AC021F07BC068
:1011500022F07CC023F0000E246E800E256E3F0E20
:10116000266E80EC11F0D8B01FD0D0D77AC060F0D6
:101170007BC061F07CC062F0CD0E00010001636FA6
:10118000CC0E00010001646F3D0E00010001656F8F
:1011900057EC0EF062C07CF061C07BF060C07AF06A
:1011A00000010001944B952B7AC021F07BC022F006
:1011B0007CC023F0000E246E200E256E410E266E9C
:1011C00080EC11F0D8B0D2D7000100018F518E1100
:1011D000D8B411D000010001945100010001902504
:1011E00000010001906F0001000195510001000114
:1011F00091210001916F000100017F671ED0000165
:1012000000019151800A0001816F00010001945199
:1012100000010001905D000100019551800A00016C
:101220008159D8B00AD0000100018F518E11D8B475
:1012300004D094C090F095C091F0000E0001000120
:10124000866F800E00010001876F3F0E00010001D4
:10125000886F000E000100018D6F010E00018C6F80
:101260001ED086C060F087C061F088C062F0CD0EED
:1012700000010001636FCC0E00010001646F3D0EA0
:1012800000010001656F57EC0EF062C088F061C08C
:1012900087F060C086F0000100018C4B8D2B0001AF
:1012A00000018D51800A0001816F00019051000101
:1012B00000018C5D000100019151800A00018159FB
:1012C000D8A0CFD7000E00010001636F000E00010F
:1012D0000001646F3F0E00010001656F86C060F081
:1012E00087C061F088C062F057EC0EF062C06EF00B
:1012F00061C06DF060C06CF07AC06FF07BC070F0C0
:101300007CC071F07EEC0BF06EC07CF06DC07BF0A9
:101310006CC07AF07AC021F07BC022F07CC023F050
:10132000000E246E200E256E410E266E80EC11F00C
:10133000D8A014D0000E000100017A6F800E0001C9
:1013400000017B6F3F0E000100017C6F0001000176
:10135000944B952B00010001904B912B0001000153
:101360008F518E11D8B463D00001000195AF5FD0CA
:101370007DC0D9FF7EC0DAFF300EDF6E00010001B4
:101380007D4B7E2B000100017F51D8B40AD07DC077
:10139000D9FF7EC0DAFF2E0EDF6E000100017D4B0B
:1013A0007E2B0001000191AF1AD0000190C081F0A6
:1013B000000191C082F00001811F821F814B822BAE
:1013C0000001000194510001812500010001946F8A
:1013D000000100019551000182210001956F00017B
:1013E00000018C6900018D690FD07DC0D9FF7EC0DE
:1013F000DAFF300EDF6E000100017D4B7E2B000115
:1014000000018C07D8A08D07000100019551800ACA
:101410000001816F00018C5100010001945D000109
:1014200000018D51800A00018159D8A0DED7000E3D
:10143000000100018D6F000E00018C6FA9D07AC0F1
:1014400021F07BC022F07CC023F0E3EC0FF021C040
:1014500092F022C093F0000100019251300F7DC044
:10146000D9FF7EC0DAFFDF6E000100017D4B7E2BCD
:10147000000100018F518E11D8A406D00001000197
:101480008D518C11D8B415D0000100018F518E11EF
:10149000D8B41ED0000100019551000100018D1942
:1014A00006E1000100019451000100018C19D8A44B
:1014B0000FD0000100017F51D8B40AD07DC0D9FF00
:1014C0007EC0DAFF2E0EDF6E000100017D4B7E2B09
:1014D00092C029F093C02AF085EC12F02BC08BF05B
:1014E0002AC08AF029C089F089C060F08AC061F002
:1014F0008BC062F0000E00010001636F200E00013E
:101500000001646F410E00010001656F57EC0EF0A1
:1015100062C08BF061C08AF060C089F07AC060F070
:101520007BC061F07CC062F0000E00010001636FBF
:10153000200E00010001646F410E00010001656F83
:1015400057EC0EF062C07CF061C07BF060C07AF0B6
:1015500089C021F08AC022F08BC023F0DDEC13F0AB
:1015600023C06EF022C06DF021C06CF07AC06FF025
:101570007BC070F07CC071F07EEC0BF06EC07CF034
:101580006DC07BF06CC07AF0000100018C4B8D2B9C
:10159000000100018D51800A0001816F000190510E
:1015A000000100018C5D000100019151800A0001E1
:1015B0008159D8A044D7000100018F518E11D8A4C1
:1015C00092D00001000195519411D8B48CD07DC007
:1015D000D9FF7EC0DAFF000180C0DFFF00010001FB
:1015E0007D4B7E2B0001000195AF11D00001000161
:1015F000946D0001951FD8B0952B7DC0D9FF7EC09A
:10160000DAFF2D0EDF6E000100017D4B7E2B030EF5
:1016100000010001936FE80E0001926F0ED092C09E
:1016200021F093C022F0000E246E0A0E236EC8EC47
:1016300011F021C092F022C093F0000100019551F9
:10164000800A0001816F0001925100010001945D48
:10165000000100019351800A00018159D8A0DFD711
:10166000000100019351800A800F010ED8B4925DF1
:10167000D8A039D0000100018551300F7DC0D9FFBD
:101680007EC0DAFFDF6E000100017D4B7E2B000182
:1016900085C021F0226A92C023F093C024F05DEC53
:1016A00013F0211E221E214A222A0001000194511A
:1016B0000001212500010001946F000100019551F6
:1016C000000122210001956F92C021F093C022F009
:1016D000000E246E0A0E236EC8EC11F021C092F0A9
:1016E00022C093F0BDD77DC0D9FF7EC0DAFF000EC7
:1016F000DF6E000100017D4B7E2B12000F0E0001FA
:10170000726F00016CC073F000016DC074F00001D5
:101710006EC075F0000172290001766F05D00001DE
:10172000D8907533743373330001762FF8D70001E6
:10173000735100010001796F0F0E0001726F0001FB
:101740006FC073F0000170C074F0000171C075F0DB
:10175000000172290001766F05D00001D890753321
:10176000743373330001762FF8D7000173510001F1
:101770000001786F000100017951D8B415D0000143
:101780000001785100010001796115D000010001CC
:10179000795100080001000178250001726F190ECF
:1017A0000001725DD8A007D06FC06CF070C06DF002
:1017B00071C06EF01200000100017851D8B415D04C
:1017C00000010001795100010001786115D000018C
:1017D0000001785100080001000179250001726FB5
:1017E000190E0001725DD8A007D06CC06CF06DC0FE
:1017F0006DF06EC06EF012000001726F060E0001F7
:101800000001776F00017251000100016EAF03D03B
:1018100000010001778F0001000171AF03D00001CA
:101820000001778D000100016D8FFF0E00010001A6
:101830006C17FF0E000100016D17000E0001000182
:101840006E1700010001708FFF0E000100016F177D
:10185000FF0E000100017017000E0001000171175A
:101860000001000178510001000179612FD00001D1
:10187000D89000016F370001703700017137000107
:101880000001780700010001785100010001791979
:10189000D8B414D000010001770700017751070B7D
:1018A000D8B40CD0E4D70001D89000016E33000109
:1018B0006D3300016C3300010001792B0001000140
:1018C0007851000100017963EED735D000010001A5
:1018D00079510001000178612ED00001D8900001FB
:1018E0006C3700016D3700016E3700010001790788
:1018F000000100017851000100017919D8B414D019
:1019000000010001770700017751070BD8B40CD014
:10191000E4D70001D8900001713300017033000159
:101920006F3300010001782B0001000178510001A4
:1019300000017963EED70001000177AF18D0FF0EE8
:10194000000100016C1BFF0E000100016D1BFF0E6A
:10195000000100016E1B010E000100016C27000E4A
:10196000000100016D23000E000100016E23000143
:10197000000177AD18D0FF0E000100016F1BFF0EB4
:1019800000010001701BFF0E00010001711B010E20
:10199000000100016F27000E000100017023000EFE
:1019A0000001000171230001726F000E00010001AF
:1019B000776F00017251000100016C5100010001BC
:1019C0006F27000100016D5100010001702300012B
:1019D00000016E510001000171230001000171AF8F
:1019E00020D0FF0E000100016F1BFF0E000100015F
:1019F000701BFF0E00010001711B010E00010001B0
:101A00006F27000E000100017023000E000100018D
:101A100071230001726F010E00010001776F000158
:101A200072516FC021F070C022F071C023F079C0F4
:101A300024F077C025F0D4EC10F023C06EF022C063
:101A40006DF021C06CF01200D388D38AD38C000EC5
:101A50000F010F01386F000E0F010F01396F000EDB
:101A60000F010F013A6F000E0F010F013B6F000EC7
:101A70000F010F013C6F0F010F013B990F010F0187
:101A80003A9D0F010F013A9F938296809682968429
:101A90009480948294949398948C948E9588938057
:101AA000938A8294F28EF28CD08E3F0ECD16CD505A
:101AB000CF0B1009CD6ECD84CD80CC9E9D809E80B5
:101AC0009F803C0ECF6EAF0ECE6EF28AF294F18400
:101AD000D59CD59AD596D550F80B0509D56EDB0E59
:101AE000D66ED58EF19CF288F292AC98AC94B896F2
:101AF000AC8AAC9C190EAF6EAB8EAB8824EC14F0A4
:101B00001BEC14F00001966F280E256E0001965113
:101B100064EC10F040EC13F00009D8A4FBD70001EE
:101B2000966F000E216E0001965105EC13F0000136
:101B3000966F010E216E0001965110EC12F040ECF0
:101B400013F00009D8A4FBD7100E236E000E226EEE
:101B50007AEC13F001EC14F00001966FC80E216EC0
:101B60000001965110EC14F00001966FC80E216E22
:101B70000001965110EC14F04AEC0FF06EC035F0F5
:101B80006DC034F06CC033F033C07AF034C07BF0F9
:101B900035C07CF0000E000100017E6F3A0E00019E
:101BA0007D6F0001966F020E000100017F6F000142
:101BB00096510001976F660E00010001806F0001D1
:101BC000975104EC08F040EC13F00009D8A4FBD7BF
:101BD0000001966F400E216E0001965110EC12F03C
:101BE00040EC13F00009D8A4FBD7000E236E3A0E88
:101BF000226EAFEC13F03F50670AD8B4C8EC12F075
:101C000037503610D8B4F7D7000E376E000E366E48
:101C10003950800A800F050ED8B4385CD8A0EBD7B5
:101C20004AEC0FF06EC035F06DC034F06CC033F08C
:101C300001EC14F033C07AF034C07BF035C07CF096
:101C4000000E000100017E6F3A0E00017D6F000161
:101C5000966F020E000100017F6F00019651000196
:101C6000976F660E00010001806F0001975104EC30
:101C700008F040EC13F00009D8A4FBD70001966FE0
:101C8000400E216E0001965110EC12F040EC13F062
:101C90000009D8A4FBD7000E236E3A0E226EAFECDB
:101CA00013F08294000E396E000E386EA4D70F0E1A
:101CB0002E6E000160C02FF0000161C030F0000105
:101CC00062C031F02E28326E04D0D89031323032DA
:101CD0002F32322EFAD72F5000010001666F00011B
:101CE00066670DD0000E00010001606F000E00015C
:101CF0000001616F000E00010001626F12000F0E03
:101D00002E6E000163C02FF0000164C030F00001AE
:101D100065C031F02E28326E04D0D8903132303286
:101D20002F32322EFAD72F50000100016B6F0001C5
:101D30006B670DD0000E00010001606F000E000106
:101D40000001616F000E00010001626F12000001CE
:101D500000016B517B0F00010001662762C06BF030
:101D600000016551000100016B1B800E00010001A4
:101D70006B1700010001618F00010001648FFF0EED
:101D8000000100016317FF0E000100016417000E3F
:101D9000000100016517000E00010001676F000ED1
:101DA00000010001686F000E00010001696F2E6ED6
:101DB000070E000100016A6F2E500001000160A1B2
:101DC00012D00001000163510001000167270001EA
:101DD0000001645100010001682300010001655108
:101DE0000001000169230001D89000016233000165
:101DF0006133000160330001D890000163370001B6
:101E0000643700016537000100016A2FD6D72E6EB6
:101E1000090E000100016A6F2E500001000160A14F
:101E200012D0000100016351000100016727000189
:101E300000016451000100016823000100016551A7
:101E40000001000169230001D89000016233000104
:101E50006133000160330001D89000016933000153
:101E6000683300016733000100016A2FD6D767C0CD
:101E700021F068C022F069C023F066C024F06BC076
:101E800025F0D4EC10F023C062F022C061F021C034
:101E900060F0120023EC13F0000E266ECC0E256EBF
:101EA00095EC13F0000E266EBE0E256E95EC13F029
:101EB000000E00010001826F000E0001816F000121
:101EC00000018251800A800F090ED8B4815DD8B01C
:101ED00015D00001700E000100018125D96E0001AE
:101EE000000E000100018221DA6EA7EC12F02750EB
:101EF000DF6E00010001814B822BE1D771C06FF0D2
:101F0000070E00016F1700016F5100010001836F80
:101F10000001846B00010001835100010001846F06
:101F20000001836B0001000170C07DF00001000121
:101F30007E6B000100017D51000100018311000151
:101F400000017F6F000100017E510001000184113A
:101F50000001806F0001000183AF0ED07FC021F02F
:101F600080C022F0FF0E246EFF0E236E5DEC13F096
:101F700021C07FF022C080F07FC029F080C02AF00D
:101F800085EC12F02BC062F02AC061F029C060F02D
:101F9000000E00010001636F800E00010001646FFC
:101FA0003D0E00010001656F57EC0EF062C07CF041
:101FB00061C07BF060C07AF07AC06CF07BC06DF0DD
:101FC0007CC06EF012000F0E256E21C026F022C0DC
:101FD00027F023C028F02528296E04D0D890283275
:101FE00027322632292EFAD726502F6E2F6609D097
:101FF000000E216E000E226E000E236E000E246E67
:102000001200170E256E21C026F022C027F023C033
:1020100028F02528296E04D0D8902832273226327D
:10202000292EFAD726502A6E228EFF0E2116FF0E79
:102030002216000E231621502B6E22502C6E235098
:102040002D6E2E6A8E0E2F5E2FAE16D02F50800A68
:102050008F0FD8B009D0000E216E000E226E000E38
:10206000236E000E246E1200D8902E322D322C32A8
:102070002B322F3EF9D714D0170E2F640FD0000E3D
:10208000216E000E226E000E236E000E246E1200D2
:10209000D8902B362C362D362E362F062F66F8D7B5
:1020A0002A50D8B408D02E1E2D1E2C1E2B6C000ECC
:1020B0002C222D222E222BC021F02CC022F02DC04C
:1020C00023F02EC024F01200F00E8316F00E9516A9
:1020D0009292959A929489928C9A899433EC14F006
:1020E000266E300E216E265005EC13F0266E050E7E
:1020F000216E265010EC14F0266E300E216E265004
:1021000005EC13F0266E010E216E265010EC14F033
:10211000266E320E216E265005EC13F040EC13F0C3
:102120000009D8A4FBD740EC13F00009D8A4FBD7D2
:1021300025C021F005EC13F040EC13F00009D8A401
:10214000FBD7266E080E216E265005EC13F040ECEE
:1021500013F00009D8A4FBD7266E0F0E216E26506F
:1021600005EC13F040EC13F00009D8A4FBD7266E61
:10217000010E216E265005EC13F040EC13F000091F
:10218000D8A4FBD7266E040E216E265005EC13F062
:1021900040EC13F00009D8A4FBD7266E800E216E08
:1021A000265010EC12F012002450D8B405D0215063
:1021B00022102310D8A40CD0000E216E000E226E27
:1021C000000E236E1200242AD890233222322132AC
:1021D000000E2114266E000E2214276EFE0E23140C
:1021E000286E265027102810D8B40CD0ECD7242AFB
:1021F000010E2126000E2222000E2322D890233227
:1022000022322132000E2114266E000E2214276E77
:10221000FF0E2314286E265027102810D8B406D09D
:10222000E6D72406D89021362236233622AEF9D7B7
:1022300024A0229ED89024322450286E276A266A31
:102240002650211227502212285023122550D8A49C
:10225000238E21C021F022C022F023C023F01200DF
:10226000EACF16F0E1CF17F0E2CF18F0D9CF19F08E
:10227000DACF1AF0F3CF1BF0F4CF1CF0F6CF1DF03D
:10228000F7CF1EF0F8CF1FF0F5CF20F09EA001D0C1
:1022900001D00CD0000E376E010E366E3C0ECF6EA4
:1022A000AF0ECE6E384A392A9E9000D0F2A401D0EB
:1022B00001D009D0126E670E3F6E125000D0DB0EB7
:1022C000D66EF29400D020C0F5FF1FC0F8FF1EC0EC
:1022D000F7FF1DC0F6FF1CC0F4FF1BC0F3FF1AC0C0
:1022E000DAFF19C0D9FF18C0E2FF17C0E1FF16C01E
:1022F000EAFF15C0E9FF14C0FBFF13C0FAFF11008D
:1023000023AE16D021C027F022C028F023C029F028
:10231000271E281E291E272A000E28222922000EE9
:102320002724216E000E2820226E800E2920236E85
:1023300026AE16D024C027F025C028F026C029F0EC
:10234000271E281E291E272A000E28222922000EB9
:102350002724246E000E2820256E800E2920266E4C
:10236000000E211A000E221A800E231A000E241AC3
:10237000000E251A800E261A2450215C2550225862
:1023800026502358D8B002D0D8901200D88012001E
:10239000256E000E276E255024AE08D0236C241E17
:1023A000D8B0242A256E010E276E255022AE06D005
:1023B000216C221ED8B0222A010E271A000E296E87
:1023C000000E286E24502310D8B41ED0256E010EA6
:1023D000266E255004D0D89023362436262A24AEE3
:1023E000FAD7D890283629362350215C2450225819
:1023F000D8A005D02350215E2450225A2880D8909E
:1024000024322332262EEDD72750D8B404D0286C9E
:10241000291ED8B0292A28C021F029C022F0120094
:10242000F00E9516F00E83162150226E236A800E50
:102430002212000E2312040E246E23342332223281
:10244000242EFBD722500F0B831289928C9AF0EC2A
:1024500013F08984F0EC13F08994F00E8316215068
:102460000F0B8312F0EC13F08984F0EC13F08994D5
:102470000F0E95121200939A819A00F000F000F06E
:1024800000F0938A246E040E216E24502CEC14F07C
:102490008138E832010B246E2450256E266A246EA2
:1024A000180E216E24502CEC14F0246E040E216EB4
:1024B00024502CEC14F025C022F026C023F012008A
:1024C000939A819A23502210D8B407D0246E040E18
:1024D000216E24502CEC14F006D0246E280E216EB0
:1024E00024502CEC14F0938A23502210D8B406D038
:1024F000246E180E216E24502CEC14F0246E040E61
:10250000216E24502CEC14F012002C6E000E2D6E57
:102510002C502AAE08D0296C2A1ED8B02A2A2C6E3C
:10252000010E2D6E2C5029C021F02AC022F0236A02
:102530002C6E8E0E246E2C502DC025F0D4EC10F095
:1025400023C02BF022C02AF021C029F01200000E77
:102550002A6E000E296E000E2C6E000E2B6E2C5073
:10256000800A800F080ED8B42B5CD8B00CD02A3467
:102570002A3229323BEC12F023502210D8A4298EA3
:102580002B4A2C2AECD729C027F02AC028F01200A9
:102590003AC021F03AEC14F03BC021F03AEC14F0D0
:1025A0003CC021F03AEC14F03DC021F03AEC14F0BC
:1025B0003EC021F03AEC14F0226E0A0E216E225039
:1025C0003AEC14F0226E6E0E3F6E22501200F00EA6
:1025D0009516F00E831621380F0B0F0B83128C8A81
:1025E0008992F0EC13F08984F0EC13F08994F00EEA
:1025F000831621500F0B8312F0EC13F08984F0EC5A
:1026000013F089940F0E95121200F00E9516F00E2D
:10261000831621380F0B0F0B831289928C9AF0ECE2
:1026200013F08984F0EC13F08994F00E8316215096
:102630000F0B8312F0EC13F08984F0EC13F0899403
:102640000F0E95121200939A819A226EC80E216E77
:1026500022502CEC14F0938A226E280E216E225008
:102660002CEC14F08138E832010B226E2250236EDC
:10267000246A226EA00E216E22502CEC14F012005F
:1026800089828C9AF0EC13F08984F0EC13F083A625
:102690000AD08994F0EC13F08984F0EC13F089945B
:1026A0008992010E12008994F0EC13F08984F0EC09
:1026B00013F089948992000E120021502302F3CF67
:1026C00025F0F4CF26F021502402F3CFF4FFF36A73
:1026D000F3502526F450262222502302F3CFF4FF94
:1026E000F36AF3502526F450262225C021F026C097
:1026F00022F0120010D040EC13F00009D8A4FBD750
:1027000022C0F6FF23C0F7FF0800F5CF21F0E7EC69
:1027100012F0224A232A22C0F6FF23C0F7FF080046
:10272000F5500009D8B41200E6D7000E286E000E4E
:10273000276E2850800A800F080ED8B4275CD8B0C6
:102740001200010E2514226E000E2614236E60EC7A
:1027500012F0263426322532274A282AEAD70FD00B
:1027600040EC13F00009D8A4FBD722C0D9FF23C046
:10277000DAFFDF50216EE7EC12F0224A232A22C052
:10278000D9FF23C0DAFFDF50D8B41200E9D700EE3A
:1027900033F00C0EEE6AE806FDE17E0EF66E280EB2
:1027A000F76E000EF86E0900F5CF3FF0000EF86EE0
:1027B000100EF76E000124EF0DF07F0E231422108F
:1027C0002110D8B406D0000E211A000E221A800E55
:1027D000231A21C021F022C022F023C023F01200CE
:1027E00000F000F000F000F000F000F000F000F069
:1027F00000F000F000F000F000F000F000F000F059
:10280000120023EC13F0000E266ECC0E256E95EC14
:1028100013F0000E266E440E256E95EC13F0120098
:102820000D0E226EFB0EE82EFED7222EFCD700D016
:10283000212EF6D7120096809682968494809482F8
:10284000F288F292F19C120095909592959495964B
:1028500092929294959A1200030EE82EFED700F001
:10286000212EFAD71200236E060E216E235010EC93
:1028700014F01200ACA2FED721C0ADFF1200300050
:020000040020DA
:08000000FFFFFFFFFFFFFFFF00
:020000040030CA
:0E000000FF38193CFFBF81FF0FC00FE00F401B
:00000001FF
